{
  "contractName": "ERC20token_manager",
  "abi": [
    {
      "inputs": [],
      "stateMutability": "nonpayable",
      "type": "constructor"
    },
    {
      "inputs": [],
      "name": "stdToken",
      "outputs": [
        {
          "internalType": "contract ERC20token",
          "name": "",
          "type": "address"
        }
      ],
      "stateMutability": "view",
      "type": "function",
      "constant": true
    },
    {
      "inputs": [],
      "name": "getName",
      "outputs": [
        {
          "internalType": "string",
          "name": "",
          "type": "string"
        }
      ],
      "stateMutability": "view",
      "type": "function",
      "constant": true
    },
    {
      "inputs": [],
      "name": "getSymbol",
      "outputs": [
        {
          "internalType": "string",
          "name": "",
          "type": "string"
        }
      ],
      "stateMutability": "view",
      "type": "function",
      "constant": true
    },
    {
      "inputs": [],
      "name": "getTotalSupply",
      "outputs": [
        {
          "internalType": "uint256",
          "name": "",
          "type": "uint256"
        }
      ],
      "stateMutability": "view",
      "type": "function",
      "constant": true
    },
    {
      "inputs": [
        {
          "internalType": "address",
          "name": "account",
          "type": "address"
        }
      ],
      "name": "getBalanceOf",
      "outputs": [
        {
          "internalType": "uint256",
          "name": "",
          "type": "uint256"
        }
      ],
      "stateMutability": "view",
      "type": "function",
      "constant": true
    },
    {
      "inputs": [
        {
          "internalType": "address",
          "name": "_s_addr",
          "type": "address"
        },
        {
          "internalType": "address",
          "name": "_r_addr",
          "type": "address"
        }
      ],
      "name": "getAllowance",
      "outputs": [
        {
          "internalType": "uint256",
          "name": "",
          "type": "uint256"
        }
      ],
      "stateMutability": "view",
      "type": "function",
      "constant": true
    },
    {
      "inputs": [
        {
          "internalType": "address",
          "name": "recipient",
          "type": "address"
        },
        {
          "internalType": "uint256",
          "name": "amount",
          "type": "uint256"
        }
      ],
      "name": "transfer",
      "outputs": [],
      "stateMutability": "nonpayable",
      "type": "function"
    },
    {
      "inputs": [
        {
          "internalType": "address",
          "name": "sender",
          "type": "address"
        },
        {
          "internalType": "address",
          "name": "recipient",
          "type": "address"
        },
        {
          "internalType": "uint256",
          "name": "amount",
          "type": "uint256"
        }
      ],
      "name": "forceApprove",
      "outputs": [],
      "stateMutability": "nonpayable",
      "type": "function"
    },
    {
      "inputs": [
        {
          "internalType": "address",
          "name": "sender",
          "type": "address"
        },
        {
          "internalType": "address",
          "name": "recipient",
          "type": "address"
        },
        {
          "internalType": "uint256",
          "name": "amount",
          "type": "uint256"
        }
      ],
      "name": "transferFrom",
      "outputs": [],
      "stateMutability": "nonpayable",
      "type": "function"
    }
  ],
  "bytecode": "0x608060405234801561001057600080fd5b5061271060405161002090610069565b90815260405190819003602001906000f080158015610043573d6000803e3d6000fd5b50600080546001600160a01b0319166001600160a01b0392909216919091179055610076565b610dd48061077083390190565b6106eb806100856000396000f3fe608060405234801561001057600080fd5b50600436106100935760003560e01c806361f49ed61161006657806361f49ed6146101955780639b96eece146101cb578063a66dcb44146101f1578063a9059cbb14610215578063c4e41b221461024157610093565b80630af4187d1461009857806315070401146100d857806317d7de7c1461015557806323b872dd1461015d575b600080fd5b6100c6600480360360408110156100ae57600080fd5b506001600160a01b0381358116916020013516610249565b60408051918252519081900360200190f35b6100e06102d2565b6040805160208082528351818301528351919283929083019185019080838360005b8381101561011a578181015183820152602001610102565b50505050905090810190601f1680156101475780820380516001836020036101000a031916815260200191505b509250505060405180910390f35b6100e0610408565b6101936004803603606081101561017357600080fd5b506001600160a01b0381358116916020810135909116906040013561044c565b005b610193600480360360608110156101ab57600080fd5b506001600160a01b038135811691602081013590911690604001356104c3565b6100c6600480360360208110156101e157600080fd5b50356001600160a01b031661051d565b6101f961059d565b604080516001600160a01b039092168252519081900360200190f35b6101936004803603604081101561022b57600080fd5b506001600160a01b0381351690602001356105ac565b6100c6610635565b6000805460408051636eb1769f60e11b81526001600160a01b03868116600483015285811660248301529151919092169163dd62ed3e916044808301926020929190829003018186803b15801561029f57600080fd5b505afa1580156102b3573d6000803e3d6000fd5b505050506040513d60208110156102c957600080fd5b50519392505050565b60008054604080516395d89b4160e01b815290516060936001600160a01b03909316926395d89b419260048082019391829003018186803b15801561031657600080fd5b505afa15801561032a573d6000803e3d6000fd5b505050506040513d6000823e601f3d908101601f19168201604052602081101561035357600080fd5b810190808051604051939291908464010000000082111561037357600080fd5b90830190602082018581111561038857600080fd5b82516401000000008111828201881017156103a257600080fd5b82525081516020918201929091019080838360005b838110156103cf5781810151838201526020016103b7565b50505050905090810190601f1680156103fc5780820380516001836020036101000a031916815260200191505b50604052505050905090565b60008054604080516306fdde0360e01b815290516060936001600160a01b03909316926306fdde039260048082019391829003018186803b15801561031657600080fd5b6000805460408051631006317d60e31b81526001600160a01b038781166004830152868116602483015260448201869052915191909216926380318be8926064808201939182900301818387803b1580156104a657600080fd5b505af11580156104ba573d6000803e3d6000fd5b50505050505050565b600080546040805163271c5ea560e21b81526001600160a01b03878116600483015286811660248301526044820186905291519190921692639c717a94926064808201939182900301818387803b1580156104a657600080fd5b60008054604080516370a0823160e01b81526001600160a01b038581166004830152915191909216916370a08231916024808301926020929190829003018186803b15801561056b57600080fd5b505afa15801561057f573d6000803e3d6000fd5b505050506040513d602081101561059557600080fd5b505192915050565b6000546001600160a01b031681565b600080546040805163a9059cbb60e01b81526001600160a01b038681166004830152602482018690529151919092169263a9059cbb92604480820193602093909283900390910190829087803b15801561060557600080fd5b505af1158015610619573d6000803e3d6000fd5b505050506040513d602081101561062f57600080fd5b50505050565b60008060009054906101000a90046001600160a01b03166001600160a01b03166318160ddd6040518163ffffffff1660e01b815260040160206040518083038186803b15801561068457600080fd5b505afa158015610698573d6000803e3d6000fd5b505050506040513d60208110156106ae57600080fd5b505190509056fea2646970667358221220b80b5b1fb6cfaf48590776db2d06d9302abc3bcb07050a085fecc0c10cdb6c3464736f6c6343000700003360806040523480156200001157600080fd5b5060405162000dd438038062000dd4833981810160405260208110156200003757600080fd5b5051604080518082018252600d81526c05374616e64617264455243323609c1b6020828101918252835180850190945260038085526245524360e81b9185019190915282519293926200008b929062000276565b508051620000a190600490602084019062000276565b50506005805460ff1916601217905550620000bd6006620000e1565b620000da33620000cc620000f7565b60ff16600a0a830262000100565b5062000312565b6005805460ff191660ff92909216919091179055565b60055460ff1690565b6001600160a01b0382166200015c576040805162461bcd60e51b815260206004820152601f60248201527f45524332303a206d696e7420746f20746865207a65726f206164647265737300604482015290519081900360640190fd5b6200016a600083836200020f565b62000186816002546200021460201b620006381790919060201c565b6002556001600160a01b03821660009081526020818152604090912054620001b99183906200063862000214821b17901c565b6001600160a01b0383166000818152602081815260408083209490945583518581529351929391927fddf252ad1be2c89b69c2b068fc378daa952ba7f163c4a11628f55a4df523b3ef9281900390910190a35050565b505050565b6000828201838110156200026f576040805162461bcd60e51b815260206004820152601b60248201527f536166654d6174683a206164646974696f6e206f766572666c6f770000000000604482015290519081900360640190fd5b9392505050565b828054600181600116156101000203166002900490600052602060002090601f016020900481019282601f10620002b957805160ff1916838001178555620002e9565b82800160010185558215620002e9579182015b82811115620002e9578251825591602001919060010190620002cc565b50620002f7929150620002fb565b5090565b5b80821115620002f75760008155600101620002fc565b610ab280620003226000396000f3fe608060405234801561001057600080fd5b50600436106100cf5760003560e01c806370a082311161008c5780639c717a94116100665780639c717a9414610291578063a457c2d7146102c7578063a9059cbb146102f3578063dd62ed3e1461031f576100cf565b806370a082311461022b57806380318be81461025157806395d89b4114610289576100cf565b806306fdde03146100d4578063095ea7b31461015157806318160ddd1461019157806323b872dd146101ab578063313ce567146101e157806339509351146101ff575b600080fd5b6100dc61034d565b6040805160208082528351818301528351919283929083019185019080838360005b838110156101165781810151838201526020016100fe565b50505050905090810190601f1680156101435780820380516001836020036101000a031916815260200191505b509250505060405180910390f35b61017d6004803603604081101561016757600080fd5b506001600160a01b0381351690602001356103e3565b604080519115158252519081900360200190f35b610199610400565b60408051918252519081900360200190f35b61017d600480360360608110156101c157600080fd5b506001600160a01b03813581169160208101359091169060400135610406565b6101e961048d565b6040805160ff9092168252519081900360200190f35b61017d6004803603604081101561021557600080fd5b506001600160a01b038135169060200135610496565b6101996004803603602081101561024157600080fd5b50356001600160a01b03166104e4565b6102876004803603606081101561026757600080fd5b506001600160a01b038135811691602081013590911690604001356104ff565b005b6100dc61050f565b610287600480360360608110156102a757600080fd5b506001600160a01b03813581169160208101359091169060400135610570565b61017d600480360360408110156102dd57600080fd5b506001600160a01b038135169060200135610591565b61017d6004803603604081101561030957600080fd5b506001600160a01b0381351690602001356105f9565b6101996004803603604081101561033557600080fd5b506001600160a01b038135811691602001351661060d565b60038054604080516020601f60026000196101006001881615020190951694909404938401819004810282018101909252828152606093909290918301828280156103d95780601f106103ae576101008083540402835291602001916103d9565b820191906000526020600020905b8154815290600101906020018083116103bc57829003601f168201915b5050505050905090565b60006103f76103f0610699565b848461069d565b50600192915050565b60025490565b6000610413848484610789565b6104838461041f610699565b61047e856040518060600160405280602881526020016109e7602891396001600160a01b038a1660009081526001602052604081209061045d610699565b6001600160a01b0316815260208101919091526040016000205491906108e4565b61069d565b5060019392505050565b60055460ff1690565b60006103f76104a3610699565b8461047e85600160006104b4610699565b6001600160a01b03908116825260208083019390935260409182016000908120918c168152925290205490610638565b6001600160a01b031660009081526020819052604090205490565b61050a838383610789565b505050565b60048054604080516020601f60026000196101006001881615020190951694909404938401819004810282018101909252828152606093909290918301828280156103d95780601f106103ae576101008083540402835291602001916103d9565b60008161057d858561060d565b01905061058b84848361069d565b50505050565b60006103f761059e610699565b8461047e85604051806060016040528060258152602001610a5860259139600160006105c8610699565b6001600160a01b03908116825260208083019390935260409182016000908120918d168152925290205491906108e4565b60006103f7610606610699565b8484610789565b6001600160a01b03918216600090815260016020908152604080832093909416825291909152205490565b600082820183811015610692576040805162461bcd60e51b815260206004820152601b60248201527f536166654d6174683a206164646974696f6e206f766572666c6f770000000000604482015290519081900360640190fd5b9392505050565b3390565b6001600160a01b0383166106e25760405162461bcd60e51b8152600401808060200182810382526024815260200180610a346024913960400191505060405180910390fd5b6001600160a01b0382166107275760405162461bcd60e51b815260040180806020018281038252602281526020018061099f6022913960400191505060405180910390fd5b6001600160a01b03808416600081815260016020908152604080832094871680845294825291829020859055815185815291517f8c5be1e5ebec7d5bd14f71427d1e84f3dd0314c0f7b2291e5b200ac8c7c3b9259281900390910190a3505050565b6001600160a01b0383166107ce5760405162461bcd60e51b8152600401808060200182810382526025815260200180610a0f6025913960400191505060405180910390fd5b6001600160a01b0382166108135760405162461bcd60e51b815260040180806020018281038252602381526020018061097c6023913960400191505060405180910390fd5b61081e83838361050a565b61085b816040518060600160405280602681526020016109c1602691396001600160a01b03861660009081526020819052604090205491906108e4565b6001600160a01b03808516600090815260208190526040808220939093559084168152205461088a9082610638565b6001600160a01b038084166000818152602081815260409182902094909455805185815290519193928716927fddf252ad1be2c89b69c2b068fc378daa952ba7f163c4a11628f55a4df523b3ef92918290030190a3505050565b600081848411156109735760405162461bcd60e51b81526004018080602001828103825283818151815260200191508051906020019080838360005b83811015610938578181015183820152602001610920565b50505050905090810190601f1680156109655780820380516001836020036101000a031916815260200191505b509250505060405180910390fd5b50505090039056fe45524332303a207472616e7366657220746f20746865207a65726f206164647265737345524332303a20617070726f766520746f20746865207a65726f206164647265737345524332303a207472616e7366657220616d6f756e7420657863656564732062616c616e636545524332303a207472616e7366657220616d6f756e74206578636565647320616c6c6f77616e636545524332303a207472616e736665722066726f6d20746865207a65726f206164647265737345524332303a20617070726f76652066726f6d20746865207a65726f206164647265737345524332303a2064656372656173656420616c6c6f77616e63652062656c6f77207a65726fa26469706673582212207244ffe463db5a10251e5c128bdb517fde67472f601fed3296d07e2309ba526564736f6c63430007000033",
  "immutableReferences": {},
  "source": "// SPDX-License-Identifier: MIT\r\npragma solidity >=0.6.0 <0.8.0;\r\n\r\nimport \"./ERC20token.sol\";\r\n\r\ncontract ERC20token_manager{\r\n\r\n    ERC20token public stdToken;\r\n    \r\n    constructor () {\r\n        stdToken = new ERC20token(10000);\r\n    }\r\n    \r\n    function getName() public view returns (string memory){\r\n        return stdToken.name();\r\n    }\r\n    \r\n    function getSymbol() public view returns (string memory){\r\n        return stdToken.symbol();\r\n    }\r\n    \r\n    function getTotalSupply() public view returns (uint256){\r\n        return stdToken.totalSupply();\r\n    }\r\n    \r\n    function getBalanceOf(address account) public view returns (uint256){\r\n        return stdToken.balanceOf(account);\r\n    }\r\n    \r\n    function getAllowance(address _s_addr, address _r_addr) public view returns (uint) {\r\n        return stdToken.allowance(_s_addr, _r_addr);\r\n    }\r\n    \r\n    function transfer(address recipient, uint256 amount) public {\r\n        stdToken.transfer(recipient, amount);\r\n    }\r\n    \r\n    function forceApprove(address sender, address recipient, uint256 amount) public {\r\n        stdToken.approveOverride(sender, recipient, amount);\r\n    }\r\n    \r\n    function transferFrom(address sender, address recipient, uint256 amount) public {\r\n        stdToken.transferOverride(sender, recipient, amount);\r\n    }\r\n}",
  "sourcePath": "E:\\PROJECTS\\Blockchain-project\\flask-python\\static\\contracts\\contracts\\ERC20token_manager.sol",
  "compiler": {
    "name": "solc",
    "version": "0.7.0+commit.9e61f92b.Emscripten.clang"
  },
  "schemaVersion": "3.3.3",
  "updatedAt": "2021-02-04T22:04:37.852Z",
  "networkType": "ethereum",
  "devdoc": {
    "kind": "dev",
    "methods": {},
    "version": 1
  },
  "userdoc": {
    "kind": "user",
    "methods": {},
    "version": 1
  }
}