{
  "contractName": "Factory",
  "abi": [
    {
      "inputs": [
        {
          "internalType": "address",
          "name": "_addr",
          "type": "address"
        },
        {
          "internalType": "string",
          "name": "_name",
          "type": "string"
        }
      ],
      "name": "new_manager",
      "outputs": [
        {
          "internalType": "contract Manager",
          "name": "",
          "type": "address"
        }
      ],
      "stateMutability": "nonpayable",
      "type": "function"
    },
    {
      "inputs": [
        {
          "internalType": "address",
          "name": "_addr",
          "type": "address"
        },
        {
          "internalType": "string",
          "name": "_name",
          "type": "string"
        },
        {
          "internalType": "string",
          "name": "_category",
          "type": "string"
        }
      ],
      "name": "new_freelancer",
      "outputs": [
        {
          "internalType": "contract Freelancer",
          "name": "",
          "type": "address"
        }
      ],
      "stateMutability": "nonpayable",
      "type": "function"
    },
    {
      "inputs": [
        {
          "internalType": "address",
          "name": "_addr",
          "type": "address"
        },
        {
          "internalType": "string",
          "name": "_name",
          "type": "string"
        },
        {
          "internalType": "string",
          "name": "_category",
          "type": "string"
        }
      ],
      "name": "new_evaluator",
      "outputs": [
        {
          "internalType": "contract Evaluator",
          "name": "",
          "type": "address"
        }
      ],
      "stateMutability": "nonpayable",
      "type": "function"
    },
    {
      "inputs": [
        {
          "internalType": "address",
          "name": "_addr",
          "type": "address"
        },
        {
          "internalType": "string",
          "name": "_name",
          "type": "string"
        }
      ],
      "name": "new_financer",
      "outputs": [
        {
          "internalType": "contract Financer",
          "name": "",
          "type": "address"
        }
      ],
      "stateMutability": "nonpayable",
      "type": "function"
    }
  ],
  "bytecode": "0x608060405234801561001057600080fd5b50611a89806100206000396000f3fe608060405234801561001057600080fd5b506004361061004c5760003560e01c80633c517706146100515780639e3eb21d146101a6578063aa24d7321461025a578063cefa61ca1461030e575b600080fd5b61018a6004803603606081101561006757600080fd5b6001600160a01b038235169190810190604081016020820135600160201b81111561009157600080fd5b8201836020820111156100a357600080fd5b803590602001918460018302840111600160201b831117156100c457600080fd5b91908080601f0160208091040260200160405190810160405280939291908181526020018383808284376000920191909152509295949360208101935035915050600160201b81111561011657600080fd5b82018360208201111561012857600080fd5b803590602001918460018302840111600160201b8311171561014957600080fd5b91908080601f016020809104026020016040519081016040528093929190818152602001838380828437600092019190915250929550610447945050505050565b604080516001600160a01b039092168252519081900360200190f35b61018a600480360360408110156101bc57600080fd5b6001600160a01b038235169190810190604081016020820135600160201b8111156101e657600080fd5b8201836020820111156101f857600080fd5b803590602001918460018302840111600160201b8311171561021957600080fd5b91908080601f016020809104026020016040519081016040528093929190818152602001838380828437600092019190915250929550610561945050505050565b61018a6004803603604081101561027057600080fd5b6001600160a01b038235169190810190604081016020820135600160201b81111561029a57600080fd5b8201836020820111156102ac57600080fd5b803590602001918460018302840111600160201b831117156102cd57600080fd5b91908080601f016020809104026020016040519081016040528093929190818152602001838380828437600092019190915250929550610611945050505050565b61018a6004803603606081101561032457600080fd5b6001600160a01b038235169190810190604081016020820135600160201b81111561034e57600080fd5b82018360208201111561036057600080fd5b803590602001918460018302840111600160201b8311171561038157600080fd5b91908080601f0160208091040260200160405190810160405280939291908181526020018383808284376000920191909152509295949360208101935035915050600160201b8111156103d357600080fd5b8201836020820111156103e557600080fd5b803590602001918460018302840111600160201b8311171561040657600080fd5b91908080601f016020809104026020016040519081016040528093929190818152602001838380828437600092019190915250929550610622945050505050565b60008084848460405161045990610634565b80846001600160a01b031681526020018060200180602001838103835285818151815260200191508051906020019080838360005b838110156104a657818101518382015260200161048e565b50505050905090810190601f1680156104d35780820380516001836020036101000a031916815260200191505b50838103825284518152845160209182019186019080838360005b838110156105065781810151838201526020016104ee565b50505050905090810190601f1680156105335780820380516001836020036101000a031916815260200191505b5095505050505050604051809103906000f080158015610557573d6000803e3d6000fd5b5095945050505050565b600080838360405161057290610641565b6001600160a01b0383168152604060208083018281528451928401929092528351606084019185019080838360005b838110156105b95781810151838201526020016105a1565b50505050905090810190601f1680156105e65780820380516001836020036101000a031916815260200191505b509350505050604051809103906000f080158015610608573d6000803e3d6000fd5b50949350505050565b60008083836040516105729061064e565b6000808484846040516104599061065b565b6105548061066983390190565b61049280610bbd83390190565b6104b28061104f83390190565b610553806115018339019056fe608060405234801561001057600080fd5b506040516105543803806105548339818101604052606081101561003357600080fd5b81516020830180516040519294929383019291908464010000000082111561005a57600080fd5b90830190602082018581111561006f57600080fd5b825164010000000081118282018810171561008957600080fd5b82525081516020918201929091019080838360005b838110156100b657818101518382015260200161009e565b50505050905090810190601f1680156100e35780820380516001836020036101000a031916815260200191505b506040526020018051604051939291908464010000000082111561010657600080fd5b90830190602082018581111561011b57600080fd5b825164010000000081118282018810171561013557600080fd5b82525081516020918201929091019080838360005b8381101561016257818101518382015260200161014a565b50505050905090810190601f16801561018f5780820380516001836020036101000a031916815260200191505b506040525050600080546001600160a01b0319166001600160a01b038616179055506002600155600560025581516101ce9060039060208501906101eb565b5080516101e29060049060208401906101eb565b5050505061027e565b828054600181600116156101000203166002900490600052602060002090601f016020900481019282601f1061022c57805160ff1916838001178555610259565b82800160010185558215610259579182015b8281111561025957825182559160200191906001019061023e565b50610265929150610269565b5090565b5b80821115610265576000815560010161026a565b6102c78061028d6000396000f3fe608060405234801561001057600080fd5b506004361061007d5760003560e01c8063c016a0bf1161005b578063c016a0bf1461013d578063ccc0795914610147578063e300b2e61461014f578063ef430aa6146101575761007d565b806306fdde031461008257806310055c1d146100ff578063767800de14610119575b600080fd5b61008a61015f565b6040805160208082528351818301528351919283929083019185019080838360005b838110156100c45781810151838201526020016100ac565b50505050905090810190601f1680156100f15780820380516001836020036101000a031916815260200191505b509250505060405180910390f35b6101076101ed565b60408051918252519081900360200190f35b6101216101f3565b604080516001600160a01b039092168252519081900360200190f35b610145610202565b005b610107610219565b61014561021f565b61008a610236565b6003805460408051602060026001851615610100026000190190941693909304601f810184900484028201840190925281815292918301828280156101e55780601f106101ba576101008083540402835291602001916101e5565b820191906000526020600020905b8154815290600101906020018083116101c857829003601f168201915b505050505081565b60015481565b6000546001600160a01b031681565b600a6002541015610217576002805460010190555b565b60025481565b600160025411156102175760028054600019019055565b6004805460408051602060026001851615610100026000190190941693909304601f810184900484028201840190925281815292918301828280156101e55780601f106101ba576101008083540402835291602001916101e556fea26469706673582212208d335373fb75c30a6aaf33cf6e33190837ab9a0a4f40a7498d156a71da2a5ab364736f6c63430007000033608060405234801561001057600080fd5b506040516104923803806104928339818101604052604081101561003357600080fd5b81516020830180516040519294929383019291908464010000000082111561005a57600080fd5b90830190602082018581111561006f57600080fd5b825164010000000081118282018810171561008957600080fd5b82525081516020918201929091019080838360005b838110156100b657818101518382015260200161009e565b50505050905090810190601f1680156100e35780820380516001836020036101000a031916815260200191505b506040525050600080546001600160a01b0319166001600160a01b038516178155905060015560056002558051610121906003906020840190610129565b5050506101bc565b828054600181600116156101000203166002900490600052602060002090601f016020900481019282601f1061016a57805160ff1916838001178555610197565b82800160010185558215610197579182015b8281111561019757825182559160200191906001019061017c565b506101a39291506101a7565b5090565b5b808211156101a357600081556001016101a8565b6102c7806101cb6000396000f3fe608060405234801561001057600080fd5b506004361061007d5760003560e01c8063c016a0bf1161005b578063c016a0bf1461013d578063ccc0795914610147578063e300b2e61461014f578063ef430aa6146101575761007d565b806306fdde031461008257806310055c1d146100ff578063767800de14610119575b600080fd5b61008a61015f565b6040805160208082528351818301528351919283929083019185019080838360005b838110156100c45781810151838201526020016100ac565b50505050905090810190601f1680156100f15780820380516001836020036101000a031916815260200191505b509250505060405180910390f35b6101076101ed565b60408051918252519081900360200190f35b6101216101f3565b604080516001600160a01b039092168252519081900360200190f35b610145610202565b005b610107610219565b61014561021f565b61008a610236565b6003805460408051602060026001851615610100026000190190941693909304601f810184900484028201840190925281815292918301828280156101e55780601f106101ba576101008083540402835291602001916101e5565b820191906000526020600020905b8154815290600101906020018083116101c857829003601f168201915b505050505081565b60015481565b6000546001600160a01b031681565b600a6002541015610217576002805460010190555b565b60025481565b600160025411156102175760028054600019019055565b6004805460408051602060026001851615610100026000190190941693909304601f810184900484028201840190925281815292918301828280156101e55780601f106101ba576101008083540402835291602001916101e556fea2646970667358221220e9354aa65a145b47fc56d1de96d0a5ac1038db097fa795b4f21aecf6e61eabf964736f6c63430007000033608060405234801561001057600080fd5b506040516104b23803806104b28339818101604052604081101561003357600080fd5b81516020830180516040519294929383019291908464010000000082111561005a57600080fd5b90830190602082018581111561006f57600080fd5b825164010000000081118282018810171561008957600080fd5b82525081516020918201929091019080838360005b838110156100b657818101518382015260200161009e565b50505050905090810190601f1680156100e35780820380516001836020036101000a031916815260200191505b506040525050600080546001600160a01b0319166001600160a01b038516179055506003600155805161011d906003906020840190610149565b50600060028190556040805160208101918290528290526101419160049190610149565b5050506101dc565b828054600181600116156101000203166002900490600052602060002090601f016020900481019282601f1061018a57805160ff19168380011785556101b7565b828001600101855582156101b7579182015b828111156101b757825182559160200191906001019061019c565b506101c39291506101c7565b5090565b5b808211156101c357600081556001016101c8565b6102c7806101eb6000396000f3fe608060405234801561001057600080fd5b506004361061007d5760003560e01c8063c016a0bf1161005b578063c016a0bf1461013d578063ccc0795914610147578063e300b2e61461014f578063ef430aa6146101575761007d565b806306fdde031461008257806310055c1d146100ff578063767800de14610119575b600080fd5b61008a61015f565b6040805160208082528351818301528351919283929083019185019080838360005b838110156100c45781810151838201526020016100ac565b50505050905090810190601f1680156100f15780820380516001836020036101000a031916815260200191505b509250505060405180910390f35b6101076101ed565b60408051918252519081900360200190f35b6101216101f3565b604080516001600160a01b039092168252519081900360200190f35b610145610202565b005b610107610219565b61014561021f565b61008a610236565b6003805460408051602060026001851615610100026000190190941693909304601f810184900484028201840190925281815292918301828280156101e55780601f106101ba576101008083540402835291602001916101e5565b820191906000526020600020905b8154815290600101906020018083116101c857829003601f168201915b505050505081565b60015481565b6000546001600160a01b031681565b600a6002541015610217576002805460010190555b565b60025481565b600160025411156102175760028054600019019055565b6004805460408051602060026001851615610100026000190190941693909304601f810184900484028201840190925281815292918301828280156101e55780601f106101ba576101008083540402835291602001916101e556fea2646970667358221220be54575848698a461deac930d8566d50b7faa491c2cf757a1e8e510c49a7d44b64736f6c63430007000033608060405234801561001057600080fd5b506040516105533803806105538339818101604052606081101561003357600080fd5b81516020830180516040519294929383019291908464010000000082111561005a57600080fd5b90830190602082018581111561006f57600080fd5b825164010000000081118282018810171561008957600080fd5b82525081516020918201929091019080838360005b838110156100b657818101518382015260200161009e565b50505050905090810190601f1680156100e35780820380516001836020036101000a031916815260200191505b506040526020018051604051939291908464010000000082111561010657600080fd5b90830190602082018581111561011b57600080fd5b825164010000000081118282018810171561013557600080fd5b82525081516020918201929091019080838360005b8381101561016257818101518382015260200161014a565b50505050905090810190601f16801561018f5780820380516001836020036101000a031916815260200191505b506040525050600080546001600160a01b0319166001600160a01b0386161790555060018055600560025581516101cd9060039060208501906101ea565b5080516101e19060049060208401906101ea565b5050505061027d565b828054600181600116156101000203166002900490600052602060002090601f016020900481019282601f1061022b57805160ff1916838001178555610258565b82800160010185558215610258579182015b8281111561025857825182559160200191906001019061023d565b50610264929150610268565b5090565b5b808211156102645760008155600101610269565b6102c78061028c6000396000f3fe608060405234801561001057600080fd5b506004361061007d5760003560e01c8063c016a0bf1161005b578063c016a0bf1461013d578063ccc0795914610147578063e300b2e61461014f578063ef430aa6146101575761007d565b806306fdde031461008257806310055c1d146100ff578063767800de14610119575b600080fd5b61008a61015f565b6040805160208082528351818301528351919283929083019185019080838360005b838110156100c45781810151838201526020016100ac565b50505050905090810190601f1680156100f15780820380516001836020036101000a031916815260200191505b509250505060405180910390f35b6101076101ed565b60408051918252519081900360200190f35b6101216101f3565b604080516001600160a01b039092168252519081900360200190f35b610145610202565b005b610107610219565b61014561021f565b61008a610236565b6003805460408051602060026001851615610100026000190190941693909304601f810184900484028201840190925281815292918301828280156101e55780601f106101ba576101008083540402835291602001916101e5565b820191906000526020600020905b8154815290600101906020018083116101c857829003601f168201915b505050505081565b60015481565b6000546001600160a01b031681565b600a6002541015610217576002805460010190555b565b60025481565b600160025411156102175760028054600019019055565b6004805460408051602060026001851615610100026000190190941693909304601f810184900484028201840190925281815292918301828280156101e55780601f106101ba576101008083540402835291602001916101e556fea2646970667358221220ceffa6ba4b6c693f650b7a98cfaebaf8e5012ac3cc026e7943a9a4a2ad938cff64736f6c63430007000033a2646970667358221220e927fa50412aae82483641e1626869ee25a5877d4bcb1668f9bfa0324b35298864736f6c63430007000033",
  "immutableReferences": {},
  "source": "// SPDX-License-Identifier: MIT\r\npragma solidity >=0.6.0 <0.8.0;\r\n\r\nimport \"./Manager.sol\";\r\nimport \"./Freelancer.sol\";\r\nimport \"./Evaluator.sol\";\r\nimport \"./Financer.sol\";\r\n\r\ncontract Factory {\r\n    \r\n    \r\n    function new_manager(address _addr, string memory _name) public returns (Manager) {\r\n        Manager manager = new Manager(_addr, _name);\r\n        return manager;\r\n    }\r\n    \r\n    function new_freelancer(address _addr, string memory _name, string memory _category) public returns (Freelancer) {\r\n        Freelancer freelancer = new Freelancer(_addr, _name, _category);\r\n        return freelancer;\r\n    }\r\n    \r\n    function new_evaluator(address _addr, string memory _name, string memory _category) public returns (Evaluator) {\r\n        Evaluator evaluator = new Evaluator(_addr, _name, _category);\r\n        return evaluator;\r\n    }\r\n    \r\n    function new_financer(address _addr, string memory _name) public returns (Financer) {\r\n        Financer financer = new Financer(_addr, _name);\r\n        return financer;\r\n    }\r\n    \r\n}",
  "sourcePath": "E:\\PROJECTS\\Blockchain-project\\flask-python\\static\\contracts\\contracts\\Factory.sol",
  "compiler": {
    "name": "solc",
    "version": "0.7.0+commit.9e61f92b.Emscripten.clang"
  },
  "schemaVersion": "3.3.3",
  "updatedAt": "2021-02-04T22:04:37.860Z",
  "networkType": "ethereum",
  "devdoc": {
    "kind": "dev",
    "methods": {},
    "version": 1
  },
  "userdoc": {
    "kind": "user",
    "methods": {},
    "version": 1
  }
}