{
  "contractName": "Freelancer",
  "abi": [
    {
      "inputs": [
        {
          "internalType": "address",
          "name": "_addr",
          "type": "address"
        },
        {
          "internalType": "string",
          "name": "_name",
          "type": "string"
        },
        {
          "internalType": "string",
          "name": "_category",
          "type": "string"
        }
      ],
      "stateMutability": "nonpayable",
      "type": "constructor"
    },
    {
      "inputs": [],
      "name": "addr",
      "outputs": [
        {
          "internalType": "address",
          "name": "",
          "type": "address"
        }
      ],
      "stateMutability": "view",
      "type": "function"
    },
    {
      "inputs": [],
      "name": "category",
      "outputs": [
        {
          "internalType": "string",
          "name": "",
          "type": "string"
        }
      ],
      "stateMutability": "view",
      "type": "function"
    },
    {
      "inputs": [],
      "name": "name",
      "outputs": [
        {
          "internalType": "string",
          "name": "",
          "type": "string"
        }
      ],
      "stateMutability": "view",
      "type": "function"
    },
    {
      "inputs": [],
      "name": "rep",
      "outputs": [
        {
          "internalType": "uint256",
          "name": "",
          "type": "uint256"
        }
      ],
      "stateMutability": "view",
      "type": "function"
    },
    {
      "inputs": [],
      "name": "rep_down",
      "outputs": [],
      "stateMutability": "nonpayable",
      "type": "function"
    },
    {
      "inputs": [],
      "name": "rep_up",
      "outputs": [],
      "stateMutability": "nonpayable",
      "type": "function"
    },
    {
      "inputs": [],
      "name": "role",
      "outputs": [
        {
          "internalType": "uint256",
          "name": "",
          "type": "uint256"
        }
      ],
      "stateMutability": "view",
      "type": "function"
    }
  ],
  "bytecode": "0x608060405234801561001057600080fd5b506040516105533803806105538339818101604052606081101561003357600080fd5b81516020830180516040519294929383019291908464010000000082111561005a57600080fd5b90830190602082018581111561006f57600080fd5b825164010000000081118282018810171561008957600080fd5b82525081516020918201929091019080838360005b838110156100b657818101518382015260200161009e565b50505050905090810190601f1680156100e35780820380516001836020036101000a031916815260200191505b506040526020018051604051939291908464010000000082111561010657600080fd5b90830190602082018581111561011b57600080fd5b825164010000000081118282018810171561013557600080fd5b82525081516020918201929091019080838360005b8381101561016257818101518382015260200161014a565b50505050905090810190601f16801561018f5780820380516001836020036101000a031916815260200191505b506040525050600080546001600160a01b0319166001600160a01b0386161790555060018055600560025581516101cd9060039060208501906101ea565b5080516101e19060049060208401906101ea565b5050505061027d565b828054600181600116156101000203166002900490600052602060002090601f016020900481019282601f1061022b57805160ff1916838001178555610258565b82800160010185558215610258579182015b8281111561025857825182559160200191906001019061023d565b50610264929150610268565b5090565b5b808211156102645760008155600101610269565b6102c78061028c6000396000f3fe608060405234801561001057600080fd5b506004361061007d5760003560e01c8063c016a0bf1161005b578063c016a0bf1461013d578063ccc0795914610147578063e300b2e61461014f578063ef430aa6146101575761007d565b806306fdde031461008257806310055c1d146100ff578063767800de14610119575b600080fd5b61008a61015f565b6040805160208082528351818301528351919283929083019185019080838360005b838110156100c45781810151838201526020016100ac565b50505050905090810190601f1680156100f15780820380516001836020036101000a031916815260200191505b509250505060405180910390f35b6101076101ed565b60408051918252519081900360200190f35b6101216101f3565b604080516001600160a01b039092168252519081900360200190f35b610145610202565b005b610107610219565b61014561021f565b61008a610236565b6003805460408051602060026001851615610100026000190190941693909304601f810184900484028201840190925281815292918301828280156101e55780601f106101ba576101008083540402835291602001916101e5565b820191906000526020600020905b8154815290600101906020018083116101c857829003601f168201915b505050505081565b60015481565b6000546001600160a01b031681565b600a6002541015610217576002805460010190555b565b60025481565b600160025411156102175760028054600019019055565b6004805460408051602060026001851615610100026000190190941693909304601f810184900484028201840190925281815292918301828280156101e55780601f106101ba576101008083540402835291602001916101e556fea2646970667358221220feb5da9823d1898deee232c433d3eb1df41d7b9b19ec3f203a71237431db384a64736f6c63430007000033",
  "immutableReferences": {},
  "source": "// SPDX-License-Identifier: MIT\r\npragma solidity >=0.7.0 <=0.7.5;\r\n\r\nimport \"./GenericUser.sol\";\r\n\r\ncontract Freelancer is GenericUser{\r\n    \r\n    constructor (address _addr, string memory _name, string memory _category){\r\n        addr = _addr;\r\n        role = 1;\r\n        rep = 5;\r\n        name = _name;\r\n        category = _category;\r\n    }\r\n}",
  "sourcePath": "E:\\PROJECTS\\Blockchain-project\\flask-python\\static\\contracts\\contracts\\Freelancer.sol",
  "compiler": {
    "name": "solc",
    "version": "0.7.0+commit.9e61f92b.Emscripten.clang"
  },
  "schemaVersion": "3.3.3",
  "updatedAt": "2021-02-03T14:22:14.831Z",
  "networkType": "ethereum",
  "devdoc": {
    "kind": "dev",
    "methods": {},
    "version": 1
  },
  "userdoc": {
    "kind": "user",
    "methods": {},
    "version": 1
  }
}