{
  "contractName": "Marketplace",
  "abi": [
    {
      "inputs": [],
      "stateMutability": "nonpayable",
      "type": "constructor"
    },
    {
      "inputs": [
        {
          "internalType": "string",
          "name": "role",
          "type": "string"
        },
        {
          "internalType": "string",
          "name": "name",
          "type": "string"
        },
        {
          "internalType": "string",
          "name": "category",
          "type": "string"
        }
      ],
      "name": "applyForRole",
      "outputs": [],
      "stateMutability": "nonpayable",
      "type": "function"
    },
    {
      "inputs": [],
      "name": "myProfile",
      "outputs": [
        {
          "internalType": "string",
          "name": "",
          "type": "string"
        },
        {
          "internalType": "string",
          "name": "",
          "type": "string"
        },
        {
          "internalType": "uint256",
          "name": "",
          "type": "uint256"
        },
        {
          "internalType": "string",
          "name": "",
          "type": "string"
        }
      ],
      "stateMutability": "view",
      "type": "function",
      "constant": true
    }
  ],
  "bytecode": "0x608060405234801561001057600080fd5b506000600181905580546001600160a01b031916331790556109ae806100376000396000f3fe608060405234801561001057600080fd5b50600436106100365760003560e01c8063350c2be21461003b578063708ecf5f1461018e575b600080fd5b6100436102a4565b60405180806020018060200185815260200180602001848103845288818151815260200191508051906020019080838360005b8381101561008e578181015183820152602001610076565b50505050905090810190601f1680156100bb5780820380516001836020036101000a031916815260200191505b50848103835287518152875160209182019189019080838360005b838110156100ee5781810151838201526020016100d6565b50505050905090810190601f16801561011b5780820380516001836020036101000a031916815260200191505b50848103825285518152855160209182019187019080838360005b8381101561014e578181015183820152602001610136565b50505050905090810190601f16801561017b5780820380516001836020036101000a031916815260200191505b5097505050505050505060405180910390f35b6102a2600480360360608110156101a457600080fd5b8101906020810181356401000000008111156101bf57600080fd5b8201836020820111156101d157600080fd5b803590602001918460018302840111640100000000831117156101f357600080fd5b91939092909160208101903564010000000081111561021157600080fd5b82018360208201111561022357600080fd5b8035906020019184600183028401116401000000008311171561024557600080fd5b91939092909160208101903564010000000081111561026357600080fd5b82018360208201111561027557600080fd5b8035906020019184600183028401116401000000008311171561029757600080fd5b5090925090506104e7565b005b3360008181526002602052604081205460609283929183916001600160a01b039091161461030d576040805162461bcd60e51b81526020600482015260116024820152701859191c995cdcc81b9bdd08199bdd5b99607a1b604482015290519081900360640190fd5b33600090815260026020818152604092839020600381015481840180548651600180831615610100026000190190921696909604601f810186900486028701860190975286865290959083019491936004909301928691908301828280156103b65780601f1061038b576101008083540402835291602001916103b6565b820191906000526020600020905b81548152906001019060200180831161039957829003601f168201915b5050865460408051602060026001851615610100026000190190941693909304601f8101849004840282018401909252818152959950889450925084019050828280156104445780601f1061041957610100808354040283529160200191610444565b820191906000526020600020905b81548152906001019060200180831161042757829003601f168201915b5050845460408051602060026001851615610100026000190190941693909304601f8101849004840282018401909252818152959850869450925084019050828280156104d25780601f106104a7576101008083540402835291602001916104d2565b820191906000526020600020905b8154815290600101906020018083116104b557829003601f168201915b50505050509050935093509350935090919293565b604080518082018252600781526636b0b730b3b2b960c91b602090910152517f2447c43a6160806768d4c947ce727fb12b7f2700badae716947943ea245c25d69087908790808383808284378083019250505092505050604051809103902014806105b15750604080518082018252600a815269333932b2b630b731b2b960b11b602090910152517fa02ecbc81e63f25b98a6f309764a0a557900757c03aa6fe8f291281c1d833e8e90879087908083838082843780830192505050925050506040518091039020145b8061061a5750604080518082018252600981526832bb30b63ab0ba37b960b91b602090910152517f5f59b69ac1b426b06924d9159f4ac3f122f00f5da4f2b64b38efe5044cf3482090879087908083838082843780830192505050925050506040518091039020145b6106555760405162461bcd60e51b815260040180806020018281038252602d81526020018061094c602d913960400191505060405180910390fd5b604080518082018252600781526636b0b730b3b2b960c91b602090910152517f2447c43a6160806768d4c947ce727fb12b7f2700badae716947943ea245c25d6908790879080838380828437808301925050509250505060405180910390201415801561070f57506040805160208101825260009052517fc5d2460186f7233c927e7db2dcc703c0e500b653ca82273b7bfad8045d85a4709083908390808383808284378083019250505092505050604051809103902014155b610757576040805162461bcd60e51b81526020600482015260146024820152736d757374206861766520612063617465676f727960601b604482015290519081900360640190fd5b6040518060a00160405280336001600160a01b0316815260200187878080601f016020809104026020016040519081016040528093929190818152602001838380828437600092019190915250505090825250604080516020601f880181900481028201810190925286815291810191908790879081908401838280828437600092019190915250505090825250600560208083019190915260408051601f860183900483028101830182528581529201919085908590819084018382808284376000920182905250939094525050338152600260209081526040909120835181546001600160a01b0319166001600160a01b0390911617815583820151805191935061086b9260018501929101906108b8565b50604082015180516108879160028401916020909101906108b8565b5060608201516003820155608082015180516108ad9160048401916020909101906108b8565b505050505050505050565b828054600181600116156101000203166002900490600052602060002090601f016020900481019282601f106108f957805160ff1916838001178555610926565b82800160010185558215610926579182015b8281111561092657825182559160200191906001019061090b565b50610932929150610936565b5090565b5b80821115610932576000815560010161093756fe726f6c65206d757374206265206d616e616765722c20667265656c616e636572206f72206576616c7561746f72a264697066735822122038a0b465aa0b164fd4545c0e2deb0a812de2bcdee4992460a137804ee513740264736f6c63430007000033",
  "immutableReferences": {},
  "source": "pragma solidity >=0.7.0 <=0.7.3;\r\n\r\ncontract Marketplace {\r\n\r\n    address owner;\r\n    uint productsNr;\r\n\r\n    enum States{ defined, started, finished}\r\n\r\n    struct genericUser{\r\n        address payable adr;\r\n        string role;\r\n        string name;\r\n        uint rep;\r\n        string category;\r\n    }\r\n\r\n    struct freelancerShare{\r\n        address adr;\r\n        uint share;\r\n    }\r\n\r\n    struct product{\r\n        uint product_id;\r\n        address manager_adress;\r\n        string description;\r\n        uint dev;\r\n        uint rev;\r\n        string category;\r\n        address evaluator;\r\n        uint freelancersNr;\r\n        mapping (uint => freelancerShare) shares;\r\n        States currentState;\r\n    }\r\n\r\n    mapping (address => genericUser) users;\r\n    mapping (uint => product) products;\r\n\r\n    constructor(){\r\n        productsNr = 0;\r\n        owner = msg.sender;\r\n    }\r\n\r\n    function applyForRole(string calldata role, string calldata name, string calldata category) public {\r\n        require(keccak256(bytes(role)) == keccak256(bytes(\"manager\")) ||\r\n        keccak256(bytes(role)) ==  keccak256(bytes(\"freelancer\")) ||\r\n        keccak256(bytes(role)) == keccak256(bytes(\"evaluator\")), \"role must be manager, freelancer or evaluator\");\r\n\r\n\r\n        require(keccak256(bytes(role)) != keccak256(bytes(\"manager\")) &&\r\n        keccak256(bytes(category)) != keccak256(bytes(\"\")), \"must have a category\" );\r\n       users[msg.sender] = genericUser(msg.sender,role, name, 5, category);\r\n    }\r\n\r\n\r\n    function myProfile() public view returns(string memory, string memory, uint, string memory) {\r\n       require(users[msg.sender].adr == msg.sender, \"address not found\");\r\n       return (users[msg.sender].name, users[msg.sender].role, users[msg.sender].rep, users[msg.sender].category);\r\n\r\n    }\r\n\r\n    // function applyForFinancer(string name) public {\r\n    //   // trebuie sa vedem cum ii dam token-uri\r\n    // }\r\n}\r\n",
  "sourcePath": "E:/PROJECTS/Blockchain-project/flask-python/static/contracts/contracts/Marketplace.sol",
  "compiler": {
    "name": "solc",
    "version": "0.7.0+commit.9e61f92b.Emscripten.clang"
  },
  "schemaVersion": "3.3.3",
  "updatedAt": "2021-02-01T20:12:56.039Z",
  "networkType": "ethereum",
  "devdoc": {
    "kind": "dev",
    "methods": {},
    "version": 1
  },
  "userdoc": {
    "kind": "user",
    "methods": {},
    "version": 1
  }
}