{
  "contractName": "Marketplace",
  "abi": [
    {
      "inputs": [
        {
          "internalType": "contract Factory",
          "name": "_uf",
          "type": "address"
        },
        {
          "internalType": "contract ERC20token_manager",
          "name": "_tkn_mng",
          "type": "address"
        }
      ],
      "stateMutability": "nonpayable",
      "type": "constructor"
    },
    {
      "inputs": [],
      "name": "productsNu",
      "outputs": [
        {
          "internalType": "uint256",
          "name": "",
          "type": "uint256"
        }
      ],
      "stateMutability": "view",
      "type": "function",
      "constant": true
    },
    {
      "inputs": [
        {
          "internalType": "address[]",
          "name": "_addresses",
          "type": "address[]"
        }
      ],
      "name": "storeUsers",
      "outputs": [],
      "stateMutability": "nonpayable",
      "type": "function"
    },
    {
      "inputs": [
        {
          "internalType": "string",
          "name": "_description",
          "type": "string"
        },
        {
          "internalType": "uint256",
          "name": "_dev",
          "type": "uint256"
        },
        {
          "internalType": "uint256",
          "name": "_rev",
          "type": "uint256"
        },
        {
          "internalType": "string",
          "name": "_category",
          "type": "string"
        }
      ],
      "name": "init_product",
      "outputs": [],
      "stateMutability": "nonpayable",
      "type": "function"
    },
    {
      "inputs": [
        {
          "internalType": "address",
          "name": "_addr",
          "type": "address"
        }
      ],
      "name": "getUserProfile",
      "outputs": [
        {
          "internalType": "string",
          "name": "name",
          "type": "string"
        },
        {
          "internalType": "string",
          "name": "role",
          "type": "string"
        },
        {
          "internalType": "uint256",
          "name": "reputation",
          "type": "uint256"
        },
        {
          "internalType": "uint256",
          "name": "balance",
          "type": "uint256"
        },
        {
          "internalType": "string",
          "name": "category",
          "type": "string"
        }
      ],
      "stateMutability": "view",
      "type": "function",
      "constant": true
    },
    {
      "inputs": [
        {
          "internalType": "uint256",
          "name": "_prod_id",
          "type": "uint256"
        }
      ],
      "name": "getProductDetails",
      "outputs": [
        {
          "internalType": "address",
          "name": "manager_address",
          "type": "address"
        },
        {
          "internalType": "string",
          "name": "description",
          "type": "string"
        },
        {
          "internalType": "uint256",
          "name": "dev",
          "type": "uint256"
        },
        {
          "internalType": "uint256",
          "name": "rev",
          "type": "uint256"
        },
        {
          "internalType": "string",
          "name": "category",
          "type": "string"
        },
        {
          "internalType": "string",
          "name": "state",
          "type": "string"
        }
      ],
      "stateMutability": "view",
      "type": "function",
      "constant": true
    }
  ],
  "bytecode": "0x6080604052600060065534801561001557600080fd5b50604051612ff3380380612ff38339818101604052604081101561003857600080fd5b508051602090910151600480546001600160a01b039283166001600160a01b03199182161790915560058054929093169116179055612f778061007c6000396000f3fe60806040523480156200001157600080fd5b50600436106200005e5760003560e01c80632b65a38b14620000635780636813b53b14620001a3578063987ee156146200032e578063cbbd5dac14620004b2578063e0b1909e14620004ce575b600080fd5b620001a1600480360360808110156200007b57600080fd5b810190602081018135600160201b8111156200009657600080fd5b820183602082011115620000a957600080fd5b803590602001918460018302840111600160201b83111715620000cb57600080fd5b91908080601f0160208091040260200160405190810160405280939291908181526020018383808284376000920191909152509295843595602086013595919450925060608101915060400135600160201b8111156200012a57600080fd5b8201836020820111156200013d57600080fd5b803590602001918460018302840111600160201b831117156200015f57600080fd5b91908080601f01602080910402602001604051908101604052809392919081815260200183838082843760009201919091525092955062000575945050505050565b005b620001c360048036036020811015620001bb57600080fd5b50356200074b565b60405180876001600160a01b03168152602001806020018681526020018581526020018060200180602001848103845289818151815260200191508051906020019080838360005b83811015620002255781810151838201526020016200020b565b50505050905090810190601f168015620002535780820380516001836020036101000a031916815260200191505b50848103835286518152865160209182019188019080838360005b83811015620002885781810151838201526020016200026e565b50505050905090810190601f168015620002b65780820380516001836020036101000a031916815260200191505b50848103825285518152855160209182019187019080838360005b83811015620002eb578181015183820152602001620002d1565b50505050905090810190601f168015620003195780820380516001836020036101000a031916815260200191505b50995050505050505050505060405180910390f35b62000357600480360360208110156200034657600080fd5b50356001600160a01b031662000c8b565b60405180806020018060200186815260200185815260200180602001848103845289818151815260200191508051906020019080838360005b83811015620003aa57818101518382015260200162000390565b50505050905090810190601f168015620003d85780820380516001836020036101000a031916815260200191505b5084810383528851815288516020918201918a019080838360005b838110156200040d578181015183820152602001620003f3565b50505050905090810190601f1680156200043b5780820380516001836020036101000a031916815260200191505b50848103825285518152855160209182019187019080838360005b838110156200047057818101518382015260200162000456565b50505050905090810190601f1680156200049e5780820380516001836020036101000a031916815260200191505b509850505050505050505060405180910390f35b620004bc62001170565b60408051918252519081900360200190f35b620001a160048036036020811015620004e657600080fd5b810190602081018135600160201b8111156200050157600080fd5b8201836020820111156200051457600080fd5b803590602001918460208302840111600160201b831117156200053657600080fd5b91908080602002602001604051908101604052809392919081815260200183836020028082843760009201919091525092955062001176945050505050565b336000908152602081815260408083205481516310055c1d60e01b815291516001600160a01b03909116926310055c1d9260048082019391829003018186803b158015620005c257600080fd5b505afa158015620005d7573d6000803e3d6000fd5b505050506040513d6020811015620005ee57600080fd5b505114620005fb57600080fd5b600060065433868686866040516200061390620028a9565b80878152602001866001600160a01b031681526020018060200185815260200184815260200180602001838103835287818151815260200191508051906020019080838360005b83811015620006745781810151838201526020016200065a565b50505050905090810190601f168015620006a25780820380516001836020036101000a031916815260200191505b50838103825284518152845160209182019186019080838360005b83811015620006d7578181015183820152602001620006bd565b50505050905090810190601f168015620007055780820380516001836020036101000a031916815260200191505b5098505050505050505050604051809103906000f0801580156200072d573d6000803e3d6000fd5b506006805460010190559050620007448162001c0e565b5050505050565b6000606060008060608060606000600160008a815260200190815260200160002060009054906101000a90046001600160a01b03166001600160a01b0316631865c57d6040518163ffffffff1660e01b815260040160206040518083038186803b158015620007b957600080fd5b505afa158015620007ce573d6000803e3d6000fd5b505050506040513d6020811015620007e557600080fd5b50519050806200081757604051806040016040528060078152602001661119599a5b995960ca1b81525091506200086d565b806001141562000849576040518060400160405280600781526020016614dd185c9d195960ca1b81525091506200086d565b60405180604001604052806008815260200167119a5b9a5cda195960c21b81525091505b600089815260016020908152604091829020548251630c0076c760e11b815292516001600160a01b0390911692631800ed8e926004808301939192829003018186803b158015620008bd57600080fd5b505afa158015620008d2573d6000803e3d6000fd5b505050506040513d6020811015620008e957600080fd5b505160008a815260016020526040808220548151633942720b60e11b815291516001600160a01b0390911692637284e4169260048082019391829003018186803b1580156200093757600080fd5b505afa1580156200094c573d6000803e3d6000fd5b505050506040513d6000823e601f3d908101601f1916820160405260208110156200097657600080fd5b8101908080516040519392919084600160201b8211156200099657600080fd5b908301906020820185811115620009ac57600080fd5b8251600160201b811182820188101715620009c657600080fd5b82525081516020918201929091019080838360005b83811015620009f5578181015183820152602001620009db565b50505050905090810190601f16801562000a235780820380516001836020036101000a031916815260200191505b50604052505050600160008c815260200190815260200160002060009054906101000a90046001600160a01b03166001600160a01b03166391cca3db6040518163ffffffff1660e01b815260040160206040518083038186803b15801562000a8a57600080fd5b505afa15801562000a9f573d6000803e3d6000fd5b505050506040513d602081101562000ab657600080fd5b505160008c8152600160209081526040918290205482516302bbb92360e61b815292516001600160a01b039091169263aeee48c0926004808301939192829003018186803b15801562000b0857600080fd5b505afa15801562000b1d573d6000803e3d6000fd5b505050506040513d602081101562000b3457600080fd5b505160008d8152600160205260408082205481516377a1855360e11b815291516001600160a01b039091169263ef430aa69260048082019391829003018186803b15801562000b8257600080fd5b505afa15801562000b97573d6000803e3d6000fd5b505050506040513d6000823e601f3d908101601f19168201604052602081101562000bc157600080fd5b8101908080516040519392919084600160201b82111562000be157600080fd5b90830190602082018581111562000bf757600080fd5b8251600160201b81118282018810171562000c1157600080fd5b82525081516020918201929091019080838360005b8381101562000c4057818101518382015260200162000c26565b50505050905090810190601f16801562000c6e5780820380516001836020036101000a031916815260200191505b5060405250959f949e50929c50909a509850939650945050505050565b6001600160a01b038082166000908152602081815260408083205481516310055c1d60e01b81529151606095869594859487948594879491909116926310055c1d9260048082019391829003018186803b15801562000ce957600080fd5b505afa15801562000cfe573d6000803e3d6000fd5b505050506040513d602081101562000d1557600080fd5b505190508062000d47576040518060400160405280600781526020016626b0b730b3b2b960c91b815250915062000dd4565b806001141562000d7c576040518060400160405280600a815260200169233932b2b630b731b2b960b11b815250915062000dd4565b806002141562000db0576040518060400160405280600981526020016822bb30b63ab0ba37b960b91b815250915062000dd4565b604051806040016040528060088152602001672334b730b731b2b960c11b81525091505b6001600160a01b038089166000908152602081905260408082205481516306fdde0360e01b815291519316926306fdde0392600480840193919291829003018186803b15801562000e2457600080fd5b505afa15801562000e39573d6000803e3d6000fd5b505050506040513d6000823e601f3d908101601f19168201604052602081101562000e6357600080fd5b8101908080516040519392919084600160201b82111562000e8357600080fd5b90830190602082018581111562000e9957600080fd5b8251600160201b81118282018810171562000eb357600080fd5b82525081516020918201929091019080838360005b8381101562000ee257818101518382015260200162000ec8565b50505050905090810190601f16801562000f105780820380516001836020036101000a031916815260200191505b5060408181526001600160a01b03808f1660009081526020818152908390205463ccc0795960e01b855292518a975092909116945063ccc079599350600480840193919291829003018186803b15801562000f6a57600080fd5b505afa15801562000f7f573d6000803e3d6000fd5b505050506040513d602081101562000f9657600080fd5b50516004805460408051634dcb776760e11b81526001600160a01b038f81169482019490945290519290911691639b96eece91602480820192602092909190829003018186803b15801562000fea57600080fd5b505afa15801562000fff573d6000803e3d6000fd5b505050506040513d60208110156200101657600080fd5b50516001600160a01b03808d166000908152602081905260408082205481516377a1855360e11b8152915193169263ef430aa692600480840193919291829003018186803b1580156200106857600080fd5b505afa1580156200107d573d6000803e3d6000fd5b505050506040513d6000823e601f3d908101601f191682016040526020811015620010a757600080fd5b8101908080516040519392919084600160201b821115620010c757600080fd5b908301906020820185811115620010dd57600080fd5b8251600160201b811182820188101715620010f757600080fd5b82525081516020918201929091019080838360005b83811015620011265781810151838201526020016200110c565b50505050905090810190601f168015620011545780820380516001836020036101000a031916815260200191505b5060405250505096509650965096509650505091939590929450565b60065481565b6000816000815181106200118657fe5b60200260200101519050600082600181518110620011a057fe5b60200260200101519050600083600281518110620011ba57fe5b60200260200101519050600084600381518110620011d457fe5b60200260200101519050600085600481518110620011ee57fe5b602002602001015190506000866005815181106200120857fe5b602002602001015190506000876006815181106200122257fe5b602002602001015190506000886007815181106200123c57fe5b602002602001015190506000896008815181106200125657fe5b6020026020010151905060008a6009815181106200127057fe5b6020026020010151905060008b600a815181106200128a57fe5b6020026020010151905060008c600b81518110620012a457fe5b6020026020010151905062001371600560009054906101000a90046001600160a01b03166001600160a01b0316639e3eb21d8e6040518263ffffffff1660e01b815260040180826001600160a01b0316815260200180602001828103825260078152602001806636b0b730b3b2b960c91b81525060200192505050602060405180830381600087803b1580156200133a57600080fd5b505af11580156200134f573d6000803e3d6000fd5b505050506040513d60208110156200136657600080fd5b50516107d062001d6a565b6005546040805163677d30e560e11b81526001600160a01b038e8116600483015260606024830152600c60648301526b0667265656c616e6365722d360a41b608483015260a06044830152600e60a48301526d43727970746f63757272656e637960901b60c483015291516200144693929092169163cefa61ca9160e4808201926020929091908290030181600087803b1580156200140f57600080fd5b505af115801562001424573d6000803e3d6000fd5b505050506040513d60208110156200143b57600080fd5b50516109c462001d6a565b600580546040805163677d30e560e11b81526001600160a01b038e8116600483015260606024830152600c60648301526b667265656c616e6365722d3160a01b608483015260a0604483015260a48201949094526447616d657360d81b60c4820152905162001513939092169163cefa61ca9160e4808201926020929091908290030181600087803b158015620014dc57600080fd5b505af1158015620014f1573d6000803e3d6000fd5b505050506040513d60208110156200150857600080fd5b5051610bb862001d6a565b600580546040805163677d30e560e11b81526001600160a01b038d8116600483015260606024830152600c60648301526b333932b2b630b731b2b9169960a11b608483015260a0604483015260a48201949094526447616d657360d81b60c48201529051620015e0939092169163cefa61ca9160e4808201926020929091908290030181600087803b158015620015a957600080fd5b505af1158015620015be573d6000803e3d6000fd5b505050506040513d6020811015620015d557600080fd5b5051611d4c62001d6a565b6005546040805163677d30e560e11b81526001600160a01b038b8116600483015260606024830152600c60648301526b667265656c616e6365722d3360a01b608483015260a06044830152600e60a48301526d43727970746f63757272656e637960901b60c48301529151620016b593929092169163cefa61ca9160e4808201926020929091908290030181600087803b1580156200167e57600080fd5b505af115801562001693573d6000803e3d6000fd5b505050506040513d6020811015620016aa57600080fd5b505161113062001d6a565b6005805460408051631e28bb8360e11b81526001600160a01b038b8116600483015260606024830152600b60648301526a06576616c7561746f722d360ac1b608483015260a0604483015260a48201949094526447616d657360d81b60c48201529051620017819390921691633c5177069160e4808201926020929091908290030181600087803b1580156200174a57600080fd5b505af11580156200175f573d6000803e3d6000fd5b505050506040513d60208110156200177657600080fd5b50516102bc62001d6a565b60055460408051631e28bb8360e11b81526001600160a01b03898116600483015260606024830152600b60648301526a6576616c7561746f722d3160a81b608483015260a06044830152600e60a48301526d43727970746f63757272656e637960901b60c4830152915162001855939290921691633c5177069160e4808201926020929091908290030181600087803b1580156200181e57600080fd5b505af115801562001833573d6000803e3d6000fd5b505050506040513d60208110156200184a57600080fd5b50516103b662001d6a565b6005805460408051631e28bb8360e11b81526001600160a01b03898116600483015260606024830152600b60648301526a32bb30b63ab0ba37b9169960a91b608483015260a0604483015260a48201949094526447616d657360d81b60c48201529051620019219390921691633c5177069160e4808201926020929091908290030181600087803b158015620018ea57600080fd5b505af1158015620018ff573d6000803e3d6000fd5b505050506040513d60208110156200191657600080fd5b505161044c62001d6a565b60055460408051631e28bb8360e11b81526001600160a01b03878116600483015260606024830152600b60648301526a6576616c7561746f722d3360a81b608483015260a06044830152600e60a48301526d43727970746f63757272656e637960901b60c48301529151620019f5939290921691633c5177069160e4808201926020929091908290030181600087803b158015620019be57600080fd5b505af1158015620019d3573d6000803e3d6000fd5b505050506040513d6020811015620019ea57600080fd5b50516101f462001d6a565b600554604080516355126b9960e11b81526001600160a01b03868116600483015260248201839052600a604483015269066696e616e6365722d360b41b6064830152915162001aa393929092169163aa24d732916084808201926020929091908290030181600087803b15801562001a6c57600080fd5b505af115801562001a81573d6000803e3d6000fd5b505050506040513d602081101562001a9857600080fd5b505161753062001d6a565b600554604080516355126b9960e11b81526001600160a01b03858116600483015260248201839052600a60448301526966696e616e6365722d3160b01b6064830152915162001b5193929092169163aa24d732916084808201926020929091908290030181600087803b15801562001b1a57600080fd5b505af115801562001b2f573d6000803e3d6000fd5b505050506040513d602081101562001b4657600080fd5b50516161a862001d6a565b600554604080516355126b9960e11b81526001600160a01b03848116600483015260248201839052600a6044830152693334b730b731b2b9169960b11b6064830152915162001bff93929092169163aa24d732916084808201926020929091908290030181600087803b15801562001bc857600080fd5b505af115801562001bdd573d6000803e3d6000fd5b505050506040513d602081101562001bf457600080fd5b505161c35062001d6a565b50505050505050505050505050565b6000816001600160a01b031663eab0a4796040518163ffffffff1660e01b815260040160206040518083038186803b15801562001c4a57600080fd5b505afa15801562001c5f573d6000803e3d6000fd5b505050506040513d602081101562001c7657600080fd5b5051600081815260016020526040902080546001600160a01b0319166001600160a01b0385161790559050600362001cae8262001f11565b815460018082018455600093845260209384902083516007909302019182558284015190820180546001600160a01b0319166001600160a01b03909216919091179055604082015180519293919262001d0e9260028501920190620028b7565b50606082015160038201556080820151600482015560a0820151805162001d40916005840191602090910190620028b7565b5060c082015160068201805460ff1916600183600281111562001d5f57fe5b021790555050505050565b6000826001600160a01b031663767800de6040518163ffffffff1660e01b815260040160206040518083038186803b15801562001da657600080fd5b505afa15801562001dbb573d6000803e3d6000fd5b505050506040513d602081101562001dd257600080fd5b50516001600160a01b03808216600090815260208190526040902080546001600160a01b0319169186169190911790559050600262001e118262002475565b8154600180820184556000938452602093849020835160059093020180546001600160a01b0319166001600160a01b03909316929092178255828401519082015560408201516002820155606082015180519293919262001e799260038501920190620028b7565b506080820151805162001e97916004840191602090910190620028b7565b5050600480546040805163a9059cbb60e01b81526001600160a01b038681169482019490945260248101879052905192909116925063a9059cbb91604480830192600092919082900301818387803b15801562001ef357600080fd5b505af115801562001f08573d6000803e3d6000fd5b50505050505050565b62001f1b6200293c565b62001f256200293c565b60008381526001602090815260409182902054825163eab0a47960e01b815292516001600160a01b039091169263eab0a479926004808301939192829003018186803b15801562001f7557600080fd5b505afa15801562001f8a573d6000803e3d6000fd5b505050506040513d602081101562001fa157600080fd5b50518152600083815260016020908152604091829020548251630c0076c760e11b815292516001600160a01b0390911692631800ed8e926004808301939192829003018186803b15801562001ff557600080fd5b505afa1580156200200a573d6000803e3d6000fd5b505050506040513d60208110156200202157600080fd5b50516001600160a01b03908116602083810191909152600085815260019091526040808220548151633942720b60e11b81529151931692637284e41692600480840193919291829003018186803b1580156200207c57600080fd5b505afa15801562002091573d6000803e3d6000fd5b505050506040513d6000823e601f3d908101601f191682016040526020811015620020bb57600080fd5b8101908080516040519392919084600160201b821115620020db57600080fd5b908301906020820185811115620020f157600080fd5b8251600160201b8111828201881017156200210b57600080fd5b82525081516020918201929091019080838360005b838110156200213a57818101518382015260200162002120565b50505050905090810190601f168015620021685780820380516001836020036101000a031916815260200191505b50604090815285810194909452505050600084815260016020908152908290205482516391cca3db60e01b815292516001600160a01b03909116926391cca3db926004808301939192829003018186803b158015620021c657600080fd5b505afa158015620021db573d6000803e3d6000fd5b505050506040513d6020811015620021f257600080fd5b505160608201526000838152600160209081526040918290205482516302bbb92360e61b815292516001600160a01b039091169263aeee48c0926004808301939192829003018186803b1580156200224957600080fd5b505afa1580156200225e573d6000803e3d6000fd5b505050506040513d60208110156200227557600080fd5b505160808201526000838152600160205260408082205481516377a1855360e11b815291516001600160a01b039091169263ef430aa69260048082019391829003018186803b158015620022c857600080fd5b505afa158015620022dd573d6000803e3d6000fd5b505050506040513d6000823e601f3d908101601f1916820160405260208110156200230757600080fd5b8101908080516040519392919084600160201b8211156200232757600080fd5b9083019060208201858111156200233d57600080fd5b8251600160201b8111828201881017156200235757600080fd5b82525081516020918201929091019080838360005b83811015620023865781810151838201526020016200236c565b50505050905090810190601f168015620023b45780820380516001836020036101000a031916815260200191505b50604090815260a086019490945250505060008481526001602090815290829020548251631865c57d60e01b815292516001600160a01b0390911692631865c57d926004808301939192829003018186803b1580156200241357600080fd5b505afa15801562002428573d6000803e3d6000fd5b505050506040513d60208110156200243f57600080fd5b505160028111156200244d57fe5b8160c0019060028111156200245e57fe5b908160028111156200246c57fe5b90525092915050565b6200247f6200298d565b620024896200298d565b6001600160a01b0380841660009081526020818152604091829020548251633b3c006f60e11b8152925193169263767800de926004808201939291829003018186803b158015620024d957600080fd5b505afa158015620024ee573d6000803e3d6000fd5b505050506040513d60208110156200250557600080fd5b50516001600160a01b039081168252838116600090815260208181526040918290205482516310055c1d60e01b815292519316926310055c1d926004808201939291829003018186803b1580156200255c57600080fd5b505afa15801562002571573d6000803e3d6000fd5b505050506040513d60208110156200258857600080fd5b50516020828101919091526001600160a01b03808516600090815280835260409081902054815163ccc0795960e01b8152915192169263ccc0795992600480840193829003018186803b158015620025df57600080fd5b505afa158015620025f4573d6000803e3d6000fd5b505050506040513d60208110156200260b57600080fd5b50516040808301919091526001600160a01b03808516600090815260208190528281205483516306fdde0360e01b815293519216926306fdde039260048083019392829003018186803b1580156200266257600080fd5b505afa15801562002677573d6000803e3d6000fd5b505050506040513d6000823e601f3d908101601f191682016040526020811015620026a157600080fd5b8101908080516040519392919084600160201b821115620026c157600080fd5b908301906020820185811115620026d757600080fd5b8251600160201b811182820188101715620026f157600080fd5b82525081516020918201929091019080838360005b838110156200272057818101518382015260200162002706565b50505050905090810190601f1680156200274e5780820380516001836020036101000a031916815260200191505b50604090815260608601949094525050506001600160a01b03808516600090815260208190528281205483516377a1855360e11b8152935192169263ef430aa69260048083019392829003018186803b158015620027ab57600080fd5b505afa158015620027c0573d6000803e3d6000fd5b505050506040513d6000823e601f3d908101601f191682016040526020811015620027ea57600080fd5b8101908080516040519392919084600160201b8211156200280a57600080fd5b9083019060208201858111156200282057600080fd5b8251600160201b8111828201881017156200283a57600080fd5b82525081516020918201929091019080838360005b83811015620028695781810151838201526020016200284f565b50505050905090810190601f168015620028975780820380516001836020036101000a031916815260200191505b50604052505050608082015292915050565b61056580620029dd83390190565b828054600181600116156101000203166002900490600052602060002090601f016020900481019282601f10620028fa57805160ff19168380011785556200292a565b828001600101855582156200292a579182015b828111156200292a5782518255916020019190600101906200290d565b5062002938929150620029c5565b5090565b6040518060e001604052806000815260200160006001600160a01b0316815260200160608152602001600081526020016000815260200160608152602001600060028111156200298857fe5b905290565b6040518060a0016040528060006001600160a01b03168152602001600081526020016000815260200160608152602001606081525090565b5b80821115620029385760008155600101620029c656fe608060405234801561001057600080fd5b50604051610565380380610565833981810160405260c081101561003357600080fd5b8151602083015160408085018051915193959294830192918464010000000082111561005e57600080fd5b90830190602082018581111561007357600080fd5b825164010000000081118282018810171561008d57600080fd5b82525081516020918201929091019080838360005b838110156100ba5781810151838201526020016100a2565b50505050905090810190601f1680156100e75780820380516001836020036101000a031916815260200191505b5060408181526020830151908301516060909301805191959394929392918464010000000082111561011857600080fd5b90830190602082018581111561012d57600080fd5b825164010000000081118282018810171561014757600080fd5b82525081516020918201929091019080838360005b8381101561017457818101518382015260200161015c565b50505050905090810190601f1680156101a15780820380516001836020036101000a031916815260200191505b506040525050506000869055600180546001600160a01b0319166001600160a01b03871617905583516101db906002906020870190610210565b506003839055600482905580516101f9906005906020840190610210565b50506006805460ff19169055506102a39350505050565b828054600181600116156101000203166002900490600052602060002090601f016020900481019282601f1061025157805160ff191683800117855561027e565b8280016001018555821561027e579182015b8281111561027e578251825591602001919060010190610263565b5061028a92915061028e565b5090565b5b8082111561028a576000815560010161028f565b6102b3806102b26000396000f3fe608060405234801561001057600080fd5b506004361061007d5760003560e01c806391cca3db1161005b57806391cca3db1461013d578063aeee48c014610145578063eab0a4791461014d578063ef430aa6146101555761007d565b80631800ed8e146100825780631865c57d146100a65780637284e416146100c0575b600080fd5b61008a61015d565b604080516001600160a01b039092168252519081900360200190f35b6100ae61016c565b60408051918252519081900360200190f35b6100c8610185565b6040805160208082528351818301528351919283929083019185019080838360005b838110156101025781810151838201526020016100ea565b50505050905090810190601f16801561012f5780820380516001836020036101000a031916815260200191505b509250505060405180910390f35b6100ae610210565b6100ae610216565b6100ae61021c565b6100c8610222565b6001546001600160a01b031681565b60065460009060ff16600281111561018057fe5b905090565b6002805460408051602060018416156101000260001901909316849004601f810184900484028201840190925281815292918301828280156102085780601f106101dd57610100808354040283529160200191610208565b820191906000526020600020905b8154815290600101906020018083116101eb57829003601f168201915b505050505081565b60035481565b60045481565b60005481565b6005805460408051602060026001851615610100026000190190941693909304601f810184900484028201840190925281815292918301828280156102085780601f106101dd5761010080835404028352916020019161020856fea2646970667358221220cc7c6804b3c3c11035adaf61902d8813ad489c0275f34a7e15d447cf613006c564736f6c63430007000033a2646970667358221220afe007e334277fa4d76a058da66378adb492fea227c3b5c56e37a4f1c07bcc6664736f6c63430007000033",
  "immutableReferences": {},
  "source": "// SPDX-License-Identifier: MIT\r\npragma solidity >=0.6.0 <0.8.0;\r\n\r\nimport \"./GenericUser.sol\";\r\nimport \"./Factory.sol\";\r\nimport \"./ERC20token_manager.sol\";\r\nimport \"./Product.sol\";\r\n\r\ncontract Marketplace {\r\n\r\n    mapping(address => GenericUser) private users_contracts;\r\n    mapping(uint => Product) private products_contracts;\r\n    genericUser[] private users_structs;\r\n    prodStruct[] private products_structs;\r\n    ERC20token_manager private tkn_mng;\r\n    Factory private uf;\r\n    uint public productsNu = 0;\r\n        \r\n    enum States{ defined, started, finished}\r\n    enum Roles{ Manager, Freelancer, Evaluator, Financer}\r\n\r\n    // Role: 0 - manager | 1 - freelancer | 2 - evaluator | 3 - financer\r\n    struct genericUser{\r\n        address addr;\r\n        uint role;\r\n        uint rep;\r\n        string name;\r\n        string category;\r\n    }\r\n\r\n    struct freelancerShare{\r\n        address adr;\r\n        uint share;\r\n    }\r\n\r\n    struct prodStruct{\r\n        uint product_id;\r\n        address manager_address;\r\n        string description;\r\n        uint dev;\r\n        uint rev;\r\n        string category;\r\n        States currentState;\r\n    }\r\n\r\n    constructor (Factory _uf, ERC20token_manager _tkn_mng){\r\n        tkn_mng = _tkn_mng;\r\n        uf = _uf;\r\n    }\r\n    \r\n    modifier onlyManager {\r\n        require(users_contracts[msg.sender].role() == uint(Roles.Manager));\r\n        _;\r\n    }\r\n\r\n    function storeUsers(address[] memory _addresses) public {\r\n        // Ganache\r\n        address manager_addr = _addresses[0];\r\n        \r\n        address freelancer_0_addr = _addresses[1];\r\n        address freelancer_1_addr = _addresses[2];\r\n        address freelancer_2_addr = _addresses[3];\r\n        address freelancer_3_addr = _addresses[4];\r\n        \r\n        address evaluator_0_addr = _addresses[5];\r\n        address evaluator_1_addr = _addresses[6];\r\n        address evaluator_2_addr = _addresses[7];\r\n        address evaluator_3_addr = _addresses[8];\r\n        \r\n        address financer_0_addr = _addresses[9];\r\n        address financer_1_addr = _addresses[10];\r\n        address financer_2_addr = _addresses[11];\r\n        \r\n        // create user contracts and store\r\n        storeAndAllocUser(uf.new_manager(manager_addr, \"manager\"), 2000);\r\n        \r\n        storeAndAllocUser(uf.new_freelancer(freelancer_0_addr, \"freelancer-0\", \"Cryptocurrency\"), 2500);\r\n        storeAndAllocUser(uf.new_freelancer(freelancer_1_addr, \"freelancer-1\", \"Games\"), 3000);\r\n        storeAndAllocUser(uf.new_freelancer(freelancer_2_addr, \"freelancer-2\", \"Games\"), 7500);\r\n        storeAndAllocUser(uf.new_freelancer(freelancer_3_addr, \"freelancer-3\", \"Cryptocurrency\"), 4400);\r\n        \r\n        storeAndAllocUser(uf.new_evaluator(evaluator_0_addr, \"evaluator-0\", \"Games\"), 700);\r\n        storeAndAllocUser(uf.new_evaluator(evaluator_1_addr, \"evaluator-1\", \"Cryptocurrency\"), 950);\r\n        storeAndAllocUser(uf.new_evaluator(evaluator_2_addr, \"evaluator-2\", \"Games\"), 1100);\r\n        storeAndAllocUser(uf.new_evaluator(evaluator_3_addr, \"evaluator-3\", \"Cryptocurrency\"), 500);\r\n        \r\n        storeAndAllocUser(uf.new_financer(financer_0_addr, \"financer-0\"), 30000);\r\n        storeAndAllocUser(uf.new_financer(financer_1_addr, \"financer-1\"), 25000);\r\n        storeAndAllocUser(uf.new_financer(financer_2_addr, \"financer-2\"), 50000);\r\n    }\r\n    \r\n    function createUserStruct(address _addr) private view returns (genericUser memory){\r\n        genericUser memory gu;\r\n        gu.addr = users_contracts[_addr].addr();\r\n        gu.role = users_contracts[_addr].role();\r\n        gu.rep = users_contracts[_addr].rep();\r\n        gu.name = users_contracts[_addr].name();\r\n        gu.category = users_contracts[_addr].category();\r\n        \r\n        return gu;\r\n    }\r\n    \r\n    function createProductStruct(uint _prod_id) private view returns (prodStruct memory){\r\n        prodStruct memory ps;\r\n        ps.product_id = products_contracts[_prod_id].product_id();\r\n        ps.manager_address = products_contracts[_prod_id].manager_address();\r\n        ps.description = products_contracts[_prod_id].description();\r\n        ps.dev = products_contracts[_prod_id].dev();\r\n        ps.rev = products_contracts[_prod_id].rev();\r\n        ps.category = products_contracts[_prod_id].category();\r\n        ps.currentState = States(products_contracts[_prod_id].getState());\r\n        \r\n        return ps;\r\n    }\r\n    \r\n    function storeAndAllocUser(GenericUser _gu, uint _alloc_amount) private {\r\n        address _useraddr = _gu.addr();\r\n        \r\n        users_contracts[_useraddr] = _gu;\r\n        users_structs.push(createUserStruct(_useraddr));\r\n        tkn_mng.transfer(_useraddr, _alloc_amount);\r\n    }\r\n    \r\n    function storeProduct(Product _pr) private {\r\n        uint prod_id = _pr.product_id();\r\n        \r\n        products_contracts[prod_id] = _pr;\r\n        products_structs.push(createProductStruct(prod_id));\r\n    }\r\n    \r\n    function init_product(string memory _description, uint _dev, uint _rev, string memory _category) public onlyManager {\r\n        Product product = new Product(productsNu, msg.sender, _description, _dev, _rev, _category);\r\n        productsNu++;\r\n        storeProduct(product);\r\n    }\r\n    \r\n    function getUserProfile(address _addr) public view returns (string memory name, string memory role, uint reputation, uint balance, string memory category) {\r\n        string memory str_role;\r\n        uint256 int_role = uint(users_contracts[_addr].role());\r\n        \r\n        if (int_role == 0){\r\n            str_role = \"Manager\";\r\n        }else if (int_role == 1){\r\n            str_role = \"Freelancer\";\r\n        }else if (int_role == 2){\r\n            str_role = \"Evaluator\";\r\n        }else{\r\n            str_role = \"Financer\";\r\n        }\r\n        \r\n        return (users_contracts[_addr].name(), str_role, users_contracts[_addr].rep(), tkn_mng.getBalanceOf(_addr), users_contracts[_addr].category());\r\n    }\r\n    \r\n    function getProductDetails(uint _prod_id) public view returns (address manager_address, string memory description, uint dev, uint rev, string memory category, string memory state) {\r\n        string memory str_state;\r\n        uint int_state = products_contracts[_prod_id].getState();\r\n        \r\n        if (int_state == 0){\r\n            str_state = \"Defined\";\r\n        }else if (int_state == 1){\r\n            str_state = \"Started\";\r\n        }else{\r\n            str_state = \"Finished\";\r\n        }\r\n        \r\n        return (products_contracts[_prod_id].manager_address(), products_contracts[_prod_id].description(), products_contracts[_prod_id].dev(), products_contracts[_prod_id].rev(), products_contracts[_prod_id].category(), str_state);\r\n    }\r\n}\r\n",
  "sourcePath": "E:/PROJECTS/Blockchain-project/flask-python/static/contracts/contracts/Marketplace.sol",
  "compiler": {
    "name": "solc",
    "version": "0.7.0+commit.9e61f92b.Emscripten.clang"
  },
  "schemaVersion": "3.3.3",
  "updatedAt": "2021-02-03T21:55:56.039Z",
  "networkType": "ethereum",
  "devdoc": {
    "kind": "dev",
    "methods": {},
    "version": 1
  },
  "userdoc": {
    "kind": "user",
    "methods": {},
    "version": 1
  }
}