{
  "contractName": "Marketplace",
  "abi": [
    {
      "inputs": [
        {
          "internalType": "contract Factory",
          "name": "_uf",
          "type": "address"
        },
        {
          "internalType": "contract ERC20token_manager",
          "name": "_tkn_mng",
          "type": "address"
        }
      ],
      "stateMutability": "nonpayable",
      "type": "constructor"
    },
    {
      "inputs": [],
      "name": "productsNu",
      "outputs": [
        {
          "internalType": "uint256",
          "name": "",
          "type": "uint256"
        }
      ],
      "stateMutability": "view",
      "type": "function",
      "constant": true
    },
    {
      "inputs": [
        {
          "internalType": "string",
          "name": "_description",
          "type": "string"
        },
        {
          "internalType": "uint256",
          "name": "_dev",
          "type": "uint256"
        },
        {
          "internalType": "uint256",
          "name": "_rev",
          "type": "uint256"
        },
        {
          "internalType": "string",
          "name": "_category",
          "type": "string"
        }
      ],
      "name": "init_product",
      "outputs": [],
      "stateMutability": "nonpayable",
      "type": "function"
    },
    {
      "inputs": [],
      "name": "getThisBalance",
      "outputs": [
        {
          "internalType": "uint256",
          "name": "",
          "type": "uint256"
        }
      ],
      "stateMutability": "view",
      "type": "function",
      "constant": true
    },
    {
      "inputs": [
        {
          "internalType": "address",
          "name": "_addr",
          "type": "address"
        }
      ],
      "name": "getUserProfile",
      "outputs": [
        {
          "internalType": "uint256",
          "name": "role",
          "type": "uint256"
        },
        {
          "internalType": "uint256",
          "name": "reputation",
          "type": "uint256"
        },
        {
          "internalType": "uint256",
          "name": "balance",
          "type": "uint256"
        },
        {
          "internalType": "string",
          "name": "category",
          "type": "string"
        }
      ],
      "stateMutability": "view",
      "type": "function",
      "constant": true
    },
    {
      "inputs": [
        {
          "internalType": "uint256",
          "name": "_prod_id",
          "type": "uint256"
        }
      ],
      "name": "getProductDetails",
      "outputs": [
        {
          "internalType": "uint256",
          "name": "dev",
          "type": "uint256"
        },
        {
          "internalType": "uint256",
          "name": "rev",
          "type": "uint256"
        },
        {
          "internalType": "string",
          "name": "category",
          "type": "string"
        },
        {
          "internalType": "uint256",
          "name": "state",
          "type": "uint256"
        },
        {
          "internalType": "uint256",
          "name": "funded_sum",
          "type": "uint256"
        }
      ],
      "stateMutability": "view",
      "type": "function",
      "constant": true
    },
    {
      "inputs": [
        {
          "internalType": "uint256",
          "name": "_prod_id",
          "type": "uint256"
        },
        {
          "internalType": "uint256",
          "name": "_token_amount",
          "type": "uint256"
        }
      ],
      "name": "finance_product",
      "outputs": [],
      "stateMutability": "nonpayable",
      "type": "function"
    },
    {
      "inputs": [
        {
          "internalType": "uint256",
          "name": "_prod_id",
          "type": "uint256"
        },
        {
          "internalType": "uint256",
          "name": "_token_amount",
          "type": "uint256"
        }
      ],
      "name": "withdraw_sum",
      "outputs": [],
      "stateMutability": "nonpayable",
      "type": "function"
    },
    {
      "inputs": [
        {
          "internalType": "uint256",
          "name": "_prod_id",
          "type": "uint256"
        }
      ],
      "name": "retireProduct",
      "outputs": [],
      "stateMutability": "nonpayable",
      "type": "function"
    },
    {
      "inputs": [
        {
          "internalType": "uint256",
          "name": "_prod_id",
          "type": "uint256"
        }
      ],
      "name": "registerForEvaluation",
      "outputs": [],
      "stateMutability": "nonpayable",
      "type": "function"
    },
    {
      "inputs": [
        {
          "internalType": "uint256",
          "name": "_prod_id",
          "type": "uint256"
        },
        {
          "internalType": "uint256",
          "name": "_dev_amount",
          "type": "uint256"
        }
      ],
      "name": "registerForFreelancing",
      "outputs": [],
      "stateMutability": "nonpayable",
      "type": "function"
    },
    {
      "inputs": [
        {
          "internalType": "uint256",
          "name": "_prod_id",
          "type": "uint256"
        }
      ],
      "name": "selectFreelancers",
      "outputs": [],
      "stateMutability": "nonpayable",
      "type": "function"
    },
    {
      "inputs": [
        {
          "internalType": "uint256",
          "name": "_prod_id",
          "type": "uint256"
        }
      ],
      "name": "notifyManager",
      "outputs": [],
      "stateMutability": "nonpayable",
      "type": "function"
    },
    {
      "inputs": [
        {
          "internalType": "uint256",
          "name": "_prod_id",
          "type": "uint256"
        },
        {
          "internalType": "bool",
          "name": "accept",
          "type": "bool"
        }
      ],
      "name": "acceptResult",
      "outputs": [],
      "stateMutability": "nonpayable",
      "type": "function"
    },
    {
      "inputs": [
        {
          "internalType": "uint256",
          "name": "_prod_id",
          "type": "uint256"
        },
        {
          "internalType": "bool",
          "name": "accept",
          "type": "bool"
        }
      ],
      "name": "evaluateProduct",
      "outputs": [],
      "stateMutability": "nonpayable",
      "type": "function"
    }
  ],
  "bytecode": "0x608060405260006006553480156200001657600080fd5b50604051620069cf380380620069cf833981016040819052620000399162000b53565b600480546001600160a01b038084166001600160a01b03199283161783556005805486831693169290921791829055604051639e3eb21d60e01b81527309666eb528f0e1df658249eac9f2f85d65a131a493735e1ef4abfe15695ce42b1fdaa369682d0b22807e9373bec7ece078138344c44574dfd19e01177108f34493737ce3bd36bf52a1133d404ea6036389fd5e51b15f9373bcb67ecdfd1908e4268a2a8e1f12eba8074be8f693738f12ec61806f82b433ad62b1cd44c20d707aeca9937393364590630e3dbc9e803859d55b86b682a974ed9373d59f510ab6908ec362fed6abde53160054f2922d93620001a2939290911691639e3eb21d9162000143918d910162000c85565b602060405180830381600087803b1580156200015e57600080fd5b505af115801562000173573d6000803e3d6000fd5b505050506040513d601f19601f8201168201806040525081019062000199919062000b2d565b6107d0620005be565b60055460405163677d30e560e11b815262000236916001600160a01b03169063cefa61ca90620001d7908b9060040162000cee565b602060405180830381600087803b158015620001f257600080fd5b505af115801562000207573d6000803e3d6000fd5b505050506040513d601f19601f820116820180604052508101906200022d919062000b2d565b6109c4620005be565b60055460405163677d30e560e11b8152620002ca916001600160a01b03169063cefa61ca906200026b908a9060040162000df2565b602060405180830381600087803b1580156200028657600080fd5b505af11580156200029b573d6000803e3d6000fd5b505050506040513d601f19601f82011682018060405250810190620002c1919062000b2d565b610bb8620005be565b60055460405163677d30e560e11b81526200035e916001600160a01b03169063cefa61ca90620002ff90899060040162000d77565b602060405180830381600087803b1580156200031a57600080fd5b505af11580156200032f573d6000803e3d6000fd5b505050506040513d601f19601f8201168201806040525081019062000355919062000b2d565b611d4c620005be565b600554604051631e28bb8360e11b8152620003f2916001600160a01b031690633c517706906200039390889060040162000e37565b602060405180830381600087803b158015620003ae57600080fd5b505af1158015620003c3573d6000803e3d6000fd5b505050506040513d601f19601f82011682018060405250810190620003e9919062000b2d565b6102bc620005be565b600554604051631e28bb8360e11b815262000486916001600160a01b031690633c517706906200042790879060040162000d33565b602060405180830381600087803b1580156200044257600080fd5b505af115801562000457573d6000803e3d6000fd5b505050506040513d601f19601f820116820180604052508101906200047d919062000b2d565b6103b6620005be565b6005546040516355126b9960e11b81526200051a916001600160a01b03169063aa24d73290620004bb90869060040162000cb8565b602060405180830381600087803b158015620004d657600080fd5b505af1158015620004eb573d6000803e3d6000fd5b505050506040513d601f19601f8201168201806040525081019062000511919062000b2d565b617530620005be565b6005546040516355126b9960e11b8152620005ae916001600160a01b03169063aa24d732906200054f90859060040162000dbc565b602060405180830381600087803b1580156200056a57600080fd5b505af11580156200057f573d6000803e3d6000fd5b505050506040513d601f19601f82011682018060405250810190620005a5919062000b2d565b61c350620005be565b5050505050505050505062000ee0565b6000826001600160a01b031663767800de6040518163ffffffff1660e01b815260040160206040518083038186803b158015620005fa57600080fd5b505afa1580156200060f573d6000803e3d6000fd5b505050506040513d601f19601f8201168201806040525081019062000635919062000b2d565b6001600160a01b03818116600090815260208190526040902080546001600160a01b03191691861691909117905590506002620006728262000767565b8154600180820184556000938452602093849020835160059093020180546001600160a01b0319166001600160a01b039093169290921782558284015190820155604082015160028201556060820151805192939192620006da926003850192019062000a59565b5060808201518051620006f891600484019160209091019062000a59565b50506004805460405163a9059cbb60e01b81526001600160a01b03909116925063a9059cbb916200072e91859187910162000e7b565b600060405180830381600087803b1580156200074957600080fd5b505af11580156200075e573d6000803e3d6000fd5b50505050505050565b6200077162000ade565b6200077b62000ade565b6001600160a01b0380841660009081526020818152604091829020548251633b3c006f60e11b8152925193169263767800de926004808201939291829003018186803b158015620007cb57600080fd5b505afa158015620007e0573d6000803e3d6000fd5b505050506040513d601f19601f8201168201806040525081019062000806919062000b2d565b6001600160a01b039081168252838116600090815260208181526040918290205482516310055c1d60e01b815292519316926310055c1d926004808201939291829003018186803b1580156200085b57600080fd5b505afa15801562000870573d6000803e3d6000fd5b505050506040513d601f19601f8201168201806040525081019062000896919062000c33565b6020808301919091526001600160a01b03808516600090815280835260409081902054815163ccc0795960e01b8152915192169263ccc0795992600480840193829003018186803b158015620008eb57600080fd5b505afa15801562000900573d6000803e3d6000fd5b505050506040513d601f19601f8201168201806040525081019062000926919062000c33565b6040808301919091526001600160a01b03808516600090815260208190528281205483516306fdde0360e01b815293519216926306fdde039260048083019392829003018186803b1580156200097b57600080fd5b505afa15801562000990573d6000803e3d6000fd5b505050506040513d6000823e601f3d908101601f19168201604052620009ba919081019062000b91565b60608201526001600160a01b038084166000908152602081905260408082205481516377a1855360e11b8152915193169263ef430aa692600480840193919291829003018186803b15801562000a0f57600080fd5b505afa15801562000a24573d6000803e3d6000fd5b505050506040513d6000823e601f3d908101601f1916820160405262000a4e919081019062000b91565b608082015292915050565b828054600181600116156101000203166002900490600052602060002090601f016020900481019282601f1062000a9c57805160ff191683800117855562000acc565b8280016001018555821562000acc579182015b8281111562000acc57825182559160200191906001019062000aaf565b5062000ada92915062000b16565b5090565b6040518060a0016040528060006001600160a01b03168152602001600081526020016000815260200160608152602001606081525090565b5b8082111562000ada576000815560010162000b17565b60006020828403121562000b3f578081fd5b815162000b4c8162000ec7565b9392505050565b6000806040838503121562000b66578081fd5b825162000b738162000ec7565b602084015190925062000b868162000ec7565b809150509250929050565b60006020828403121562000ba3578081fd5b81516001600160401b038082111562000bba578283fd5b818401915084601f83011262000bce578283fd5b81518181111562000bdd578384fd5b604051601f8201601f19168101602001838111828210171562000bfe578586fd5b60405281815283820160200187101562000c16578485fd5b62000c2982602083016020870162000e94565b9695505050505050565b60006020828403121562000c45578081fd5b5051919050565b600e81526d43727970746f63757272656e637960901b602082015260400190565b600581526447616d657360d81b602082015260400190565b6001600160a01b039190911681526040602082018190526007908201526636b0b730b3b2b960c91b606082015260800190565b6001600160a01b03919091168152604060208201819052600a9082015269066696e616e6365722d360b41b606082015260800190565b600060018060a01b038316825260606020830152600c60608301526b0667265656c616e6365722d360a41b608083015260a0604083015262000b4c60a0830162000c4c565b600060018060a01b038316825260606020830152600b60608301526a6576616c7561746f722d3160a81b608083015260a0604083015262000b4c60a0830162000c4c565b600060018060a01b038316825260606020830152600c60608301526b333932b2b630b731b2b9169960a11b608083015260a0604083015262000b4c60a0830162000c6d565b6001600160a01b03919091168152604060208201819052600a90820152693334b730b731b2b9169960b11b606082015260800190565b600060018060a01b038316825260606020830152600c60608301526b667265656c616e6365722d3160a01b608083015260a0604083015262000b4c60a0830162000c6d565b600060018060a01b038316825260606020830152600b60608301526a06576616c7561746f722d360ac1b608083015260a0604083015262000b4c60a0830162000c6d565b6001600160a01b03929092168252602082015260400190565b60005b8381101562000eb157818101518382015260200162000e97565b8381111562000ec1576000848401525b50505050565b6001600160a01b038116811462000edd57600080fd5b50565b615adf8062000ef06000396000f3fe60806040523480156200001157600080fd5b5060043610620001005760003560e01c8063a54bb47a1162000099578063dbac3497116200006f578063dbac34971462000210578063dfcca0491462000227578063fcbb6442146200023e578063fd5e189c14620002555762000100565b8063a54bb47a14620001d8578063b00f234814620001ef578063cbbd5dac14620002065762000100565b80636813b53b11620000db5780636813b53b146200014c5780638332d067146200017f5780638e8cf4a81462000196578063987ee15614620001af5762000100565b8063014c3439146200010557806309576f06146200011e5780632b65a38b1462000135575b600080fd5b6200011c62000116366004620045f5565b6200026c565b005b6200011c6200012f36600462004591565b620008be565b6200011c6200014636600462004516565b62000b7d565b620001636200015d36600462004591565b62000c74565b604051620001769594939291906200498d565b60405180910390f35b6200011c62000190366004620045c3565b62000f16565b620001a062001608565b604051620001769190620046b4565b620001c6620001c036600462004436565b62001695565b604051620001769493929190620049c2565b6200011c620001e9366004620045f5565b620018d8565b6200011c62000200366004620045c3565b62001b57565b620001a0620025ea565b6200011c6200022136600462004591565b620025f0565b6200011c62000238366004620045f5565b62002a1e565b6200011c6200024f36600462004591565b62002c74565b6200011c6200026636600462004591565b62003143565b600133600090815260208181526040918290205482516310055c1d60e01b815292516001600160a01b03909116926310055c1d926004808301939192829003018186803b158015620002bd57600080fd5b505afa158015620002d2573d6000803e3d6000fd5b505050506040513d601f19601f82011682018060405250810190620002f89190620045aa565b146200030357600080fd5b6006548210620003305760405162461bcd60e51b81526004016200032790620048c6565b60405180910390fd5b6000828152600160205260408082205481516377a1855360e11b815291516001600160a01b039091169263ef430aa69260048082019391829003018186803b1580156200037c57600080fd5b505afa15801562000391573d6000803e3d6000fd5b505050506040513d6000823e601f3d908101601f19168201604052620003bb91908101906200449a565b604051602001620003cd919062004645565b60408051808303601f19018152828252805160209182012033600090815291829052828220546377a1855360e11b8552925190936001600160a01b039093169263ef430aa6926004808301939192829003018186803b1580156200043057600080fd5b505afa15801562000445573d6000803e3d6000fd5b505050506040513d6000823e601f3d908101601f191682016040526200046f91908101906200449a565b60405160200162000481919062004645565b6040516020818303038152906040528051906020012014620004b75760405162461bcd60e51b815260040162000327906200479e565b6000828152600160205260409081902054905163156c3dbf60e21b81526001600160a01b03909116906355b0f6fc90620004f690339060040162004663565b60206040518083038186803b1580156200050f57600080fd5b505afa15801562000524573d6000803e3d6000fd5b505050506040513d601f19601f820116820180604052508101906200054a91906200447b565b156200056a5760405162461bcd60e51b81526004016200032790620047ee565b600081116200058d5760405162461bcd60e51b81526004016200032790620048fd565b6001600083815260016020908152604091829020548251631865c57d60e01b815292516001600160a01b0390911692631865c57d926004808301939192829003018186803b158015620005df57600080fd5b505afa158015620005f4573d6000803e3d6000fd5b505050506040513d601f19601f820116820180604052508101906200061a9190620045aa565b146200062557600080fd5b600382815481106200063357fe5b600091825260208083206008600c90930201919091018054600181810183559184528284200180546001600160a01b03191633908117909155858452915260409182902054915163a858daa960e01b81526001600160a01b03929092169163a858daa991620006a59160040162004663565b600060405180830381600087803b158015620006c057600080fd5b505af1158015620006d5573d6000803e3d6000fd5b5050336000908152602081815260409182902054825163ccc0795960e01b815292516001600160a01b03909116945063ccc079599350600480840193829003018186803b1580156200072657600080fd5b505afa1580156200073b573d6000803e3d6000fd5b505050506040513d601f19601f82011682018060405250810190620007619190620045aa565b336000908152600760209081526040808320600190810194909455858352928152908290205482516391cca3db60e01b815292516001600160a01b03909116926391cca3db926004808301939192829003018186803b158015620007c457600080fd5b505afa158015620007d9573d6000803e3d6000fd5b505050506040513d601f19601f82011682018060405250810190620007ff9190620045aa565b8110620008a7576000828152600160209081526040918290205482516391cca3db60e01b815292516001600160a01b03909116926391cca3db926004808301939192829003018186803b1580156200085657600080fd5b505afa1580156200086b573d6000803e3d6000fd5b505050506040513d601f19601f82011682018060405250810190620008919190620045aa565b33600090815260076020526040902055620008ba565b3360009081526007602052604090208190555b5050565b600133600090815260208181526040918290205482516310055c1d60e01b815292516001600160a01b03909116926310055c1d926004808301939192829003018186803b1580156200090f57600080fd5b505afa15801562000924573d6000803e3d6000fd5b505050506040513d601f19601f820116820180604052508101906200094a9190620045aa565b146200095557600080fd5b6006548110620009795760405162461bcd60e51b81526004016200032790620048c6565b6002600082815260016020908152604091829020548251631865c57d60e01b815292516001600160a01b0390911692631865c57d926004808301939192829003018186803b158015620009cb57600080fd5b505afa158015620009e0573d6000803e3d6000fd5b505050506040513d601f19601f8201168201806040525081019062000a069190620045aa565b1462000a1157600080fd5b6000818152600160205260409081902054905162a6df8560e21b81526001600160a01b0390911690819063029b7e149062000a5190339060040162004663565b60206040518083038186803b15801562000a6a57600080fd5b505afa15801562000a7f573d6000803e3d6000fd5b505050506040513d601f19601f8201168201806040525081019062000aa591906200447b565b1562000b63576000828152600160205260409020546001600160a01b031663a9e966b760036040518263ffffffff1660e01b815260040162000ae89190620046b4565b600060405180830381600087803b15801562000b0357600080fd5b505af115801562000b18573d6000803e3d6000fd5b50505050600380838154811062000b2b57fe5b90600052602060002090600c020160060160006101000a81548160ff0219169083600681111562000b5857fe5b0217905550620008ba565b60405162461bcd60e51b81526004016200032790620046bd565b336000908152602081815260408083205481516310055c1d60e01b815291516001600160a01b03909116926310055c1d9260048082019391829003018186803b15801562000bca57600080fd5b505afa15801562000bdf573d6000803e3d6000fd5b505050506040513d601f19601f8201168201806040525081019062000c059190620045aa565b1462000c1057600080fd5b6000600654338686868660405162000c28906200420a565b62000c399695949392919062004934565b604051809103906000f08015801562000c56573d6000803e3d6000fd5b50600680546001019055905062000c6d8162003b56565b5050505050565b6000806060600080600654861062000ca05760405162461bcd60e51b81526004016200032790620048c6565b6000868152600160209081526040918290205482516391cca3db60e01b815292516001600160a01b039091169283926391cca3db92600480840193829003018186803b15801562000cf057600080fd5b505afa15801562000d05573d6000803e3d6000fd5b505050506040513d601f19601f8201168201806040525081019062000d2b9190620045aa565b816001600160a01b031663aeee48c06040518163ffffffff1660e01b815260040160206040518083038186803b15801562000d6557600080fd5b505afa15801562000d7a573d6000803e3d6000fd5b505050506040513d601f19601f8201168201806040525081019062000da09190620045aa565b826001600160a01b031663ef430aa66040518163ffffffff1660e01b815260040160006040518083038186803b15801562000dda57600080fd5b505afa15801562000def573d6000803e3d6000fd5b505050506040513d6000823e601f3d908101601f1916820160405262000e1991908101906200449a565b836001600160a01b0316631865c57d6040518163ffffffff1660e01b815260040160206040518083038186803b15801562000e5357600080fd5b505afa15801562000e68573d6000803e3d6000fd5b505050506040513d601f19601f8201168201806040525081019062000e8e9190620045aa565b846001600160a01b03166333ae9cde6040518163ffffffff1660e01b815260040160206040518083038186803b15801562000ec857600080fd5b505afa15801562000edd573d6000803e3d6000fd5b505050506040513d601f19601f8201168201806040525081019062000f039190620045aa565b939b929a50909850965090945092505050565b336000908152602081815260408083205481516310055c1d60e01b815291516001600160a01b03909116926310055c1d9260048082019391829003018186803b15801562000f6357600080fd5b505afa15801562000f78573d6000803e3d6000fd5b505050506040513d601f19601f8201168201806040525081019062000f9e9190620045aa565b1462000fa957600080fd5b600654821062000fcd5760405162461bcd60e51b81526004016200032790620048c6565b6003600083815260016020908152604091829020548251631865c57d60e01b815292516001600160a01b0390911692631865c57d926004808301939192829003018186803b1580156200101f57600080fd5b505afa15801562001034573d6000803e3d6000fd5b505050506040513d601f19601f820116820180604052508101906200105a9190620045aa565b146200106557600080fd5b6000828152600160209081526040808320548151630c0076c760e11b815291516001600160a01b0390911693928492631800ed8e9260048083019392829003018186803b158015620010b657600080fd5b505afa158015620010cb573d6000803e3d6000fd5b505050506040513d601f19601f82011682018060405250810190620010f191906200445c565b905082156200154e57600460009054906101000a90046001600160a01b03166001600160a01b03166323b872dd3083856001600160a01b031663aeee48c06040518163ffffffff1660e01b815260040160206040518083038186803b1580156200115a57600080fd5b505afa1580156200116f573d6000803e3d6000fd5b505050506040513d601f19601f82011682018060405250810190620011959190620045aa565b6040518463ffffffff1660e01b8152600401620011b59392919062004677565b600060405180830381600087803b158015620011d057600080fd5b505af1158015620011e5573d6000803e3d6000fd5b5050506001600160a01b0380831660009081526020819052604080822054815163c016a0bf60e01b815291519316935063c016a0bf926004808301939282900301818387803b1580156200123857600080fd5b505af11580156200124d573d6000803e3d6000fd5b5050505060005b826001600160a01b031663712132206040518163ffffffff1660e01b815260040160206040518083038186803b1580156200128e57600080fd5b505afa158015620012a3573d6000803e3d6000fd5b505050506040513d601f19601f82011682018060405250810190620012c99190620045aa565b811015620014945760405163118f52db60e31b81526000906001600160a01b03851690638c7a96d89062001302908590600401620046b4565b60206040518083038186803b1580156200131b57600080fd5b505afa15801562001330573d6000803e3d6000fd5b505050506040513d601f19601f820116820180604052508101906200135691906200445c565b600480546001600160a01b03808416600090815260076020526040908190205490516323b872dd60e01b81529495509116926323b872dd926200139e92309287920162004677565b600060405180830381600087803b158015620013b957600080fd5b505af1158015620013ce573d6000803e3d6000fd5b505050506001600160a01b038116600090815260076020526040902060010154600a11156200141c576001600160a01b03811660009081526007602052604090206001908101805490910190555b6001600160a01b0380821660009081526020819052604080822054815163c016a0bf60e01b8152915193169263c016a0bf9260048084019391929182900301818387803b1580156200146d57600080fd5b505af115801562001482573d6000803e3d6000fd5b50506001909301925062001254915050565b506000848152600160205260409020546001600160a01b031663a9e966b760046040518263ffffffff1660e01b8152600401620014d29190620046b4565b600060405180830381600087803b158015620014ed57600080fd5b505af115801562001502573d6000803e3d6000fd5b505050506004600385815481106200151657fe5b90600052602060002090600c020160060160006101000a81548160ff021916908360068111156200154357fe5b021790555062001602565b6000848152600160205260409020546001600160a01b031663a9e966b760066040518263ffffffff1660e01b81526004016200158b9190620046b4565b600060405180830381600087803b158015620015a657600080fd5b505af1158015620015bb573d6000803e3d6000fd5b50505050600660038581548110620015cf57fe5b90600052602060002090600c020160060160006101000a81548160ff02191690836006811115620015fc57fe5b02179055505b50505050565b60048054604051634dcb776760e11b81526000926001600160a01b0390921691639b96eece916200163c9130910162004663565b60206040518083038186803b1580156200165557600080fd5b505afa1580156200166a573d6000803e3d6000fd5b505050506040513d601f19601f82011682018060405250810190620016909190620045aa565b905090565b6001600160a01b038082166000908152602081815260408083205481516310055c1d60e01b8152915193948594859460609493909216926310055c1d926004808301939192829003018186803b158015620016ef57600080fd5b505afa15801562001704573d6000803e3d6000fd5b505050506040513d601f19601f820116820180604052508101906200172a9190620045aa565b6001600160a01b038087166000908152602081815260409182902054825163ccc0795960e01b8152925193169263ccc07959926004808201939291829003018186803b1580156200177a57600080fd5b505afa1580156200178f573d6000803e3d6000fd5b505050506040513d601f19601f82011682018060405250810190620017b59190620045aa565b60048054604051634dcb776760e11b81526001600160a01b0390911691639b96eece91620017e6918b910162004663565b60206040518083038186803b158015620017ff57600080fd5b505afa15801562001814573d6000803e3d6000fd5b505050506040513d601f19601f820116820180604052508101906200183a9190620045aa565b6001600160a01b038089166000908152602081905260408082205481516377a1855360e11b8152915193169263ef430aa692600480840193919291829003018186803b1580156200188a57600080fd5b505afa1580156200189f573d6000803e3d6000fd5b505050506040513d6000823e601f3d908101601f19168201604052620018c991908101906200449a565b93509350935093509193509193565b600333600090815260208181526040918290205482516310055c1d60e01b815292516001600160a01b03909116926310055c1d926004808301939192829003018186803b1580156200192957600080fd5b505afa1580156200193e573d6000803e3d6000fd5b505050506040513d601f19601f82011682018060405250810190620019649190620045aa565b146200196f57600080fd5b6006548210620019935760405162461bcd60e51b81526004016200032790620048c6565b600480546040516323b872dd60e01b815233926001600160a01b03909216916323b872dd91620019ca918591309188910162004677565b600060405180830381600087803b158015620019e557600080fd5b505af1158015620019fa573d6000803e3d6000fd5b5050506000848152600160205260409081902054905163772e301760e01b81526001600160a01b03909116915063772e30179062001a3f90849086906004016200469b565b600060405180830381600087803b15801562001a5a57600080fd5b505af115801562001a6f573d6000803e3d6000fd5b506001925062001a7d915050565b600084815260016020908152604091829020548251631865c57d60e01b815292516001600160a01b0390911692631865c57d926004808301939192829003018186803b15801562001acd57600080fd5b505afa15801562001ae2573d6000803e3d6000fd5b505050506040513d601f19601f8201168201806040525081019062001b089190620045aa565b141562001b525760016003848154811062001b1f57fe5b90600052602060002090600c020160060160006101000a81548160ff0219169083600681111562001b4c57fe5b02179055505b505050565b600233600090815260208181526040918290205482516310055c1d60e01b815292516001600160a01b03909116926310055c1d926004808301939192829003018186803b15801562001ba857600080fd5b505afa15801562001bbd573d6000803e3d6000fd5b505050506040513d601f19601f8201168201806040525081019062001be39190620045aa565b1462001bee57600080fd5b600654821062001c125760405162461bcd60e51b81526004016200032790620048c6565b6006600083815260016020908152604091829020548251631865c57d60e01b815292516001600160a01b0390911692631865c57d926004808301939192829003018186803b15801562001c6457600080fd5b505afa15801562001c79573d6000803e3d6000fd5b505050506040513d601f19601f8201168201806040525081019062001c9f9190620045aa565b1462001caa57600080fd5b600082815260016020908152604091829020548251639cb93dd160e01b815292516001600160a01b03909116928392639cb93dd192600480840193829003018186803b15801562001cfa57600080fd5b505afa15801562001d0f573d6000803e3d6000fd5b505050506040513d601f19601f8201168201806040525081019062001d3591906200445c565b6001600160a01b0316336001600160a01b03161462001d685760405162461bcd60e51b8152600401620003279062004753565b6000816001600160a01b0316631800ed8e6040518163ffffffff1660e01b815260040160206040518083038186803b15801562001da457600080fd5b505afa15801562001db9573d6000803e3d6000fd5b505050506040513d601f19601f8201168201806040525081019062001ddf91906200445c565b9050600460009054906101000a90046001600160a01b03166001600160a01b03166323b872dd3033856001600160a01b031663aeee48c06040518163ffffffff1660e01b815260040160206040518083038186803b15801562001e4157600080fd5b505afa15801562001e56573d6000803e3d6000fd5b505050506040513d601f19601f8201168201806040525081019062001e7c9190620045aa565b6040518463ffffffff1660e01b815260040162001e9c9392919062004677565b600060405180830381600087803b15801562001eb757600080fd5b505af115801562001ecc573d6000803e3d6000fd5b505050508215620022875760005b826001600160a01b031663712132206040518163ffffffff1660e01b815260040160206040518083038186803b15801562001f1457600080fd5b505afa15801562001f29573d6000803e3d6000fd5b505050506040513d601f19601f8201168201806040525081019062001f4f9190620045aa565b8110156200211a5760405163118f52db60e31b81526000906001600160a01b03851690638c7a96d89062001f88908590600401620046b4565b60206040518083038186803b15801562001fa157600080fd5b505afa15801562001fb6573d6000803e3d6000fd5b505050506040513d601f19601f8201168201806040525081019062001fdc91906200445c565b600480546001600160a01b03808416600090815260076020526040908190205490516323b872dd60e01b81529495509116926323b872dd926200202492309287920162004677565b600060405180830381600087803b1580156200203f57600080fd5b505af115801562002054573d6000803e3d6000fd5b505050506001600160a01b038116600090815260076020526040902060010154600a1115620020a2576001600160a01b03811660009081526007602052604090206001908101805490910190555b6001600160a01b0380821660009081526020819052604080822054815163c016a0bf60e01b8152915193169263c016a0bf9260048084019391929182900301818387803b158015620020f357600080fd5b505af115801562002108573d6000803e3d6000fd5b50506001909301925062001eda915050565b506000848152600160205260409020546001600160a01b031663a9e966b760046040518263ffffffff1660e01b8152600401620021589190620046b4565b600060405180830381600087803b1580156200217357600080fd5b505af115801562002188573d6000803e3d6000fd5b505050506004600385815481106200219c57fe5b90600052602060002090600c020160060160006101000a81548160ff02191690836006811115620021c957fe5b02179055506001600160a01b0381166000908152600760205260409020600190810154111562002217576001600160a01b038116600090815260076020526040902060010180546000190190555b6001600160a01b03808216600090815260208190526040808220548151637180597360e11b8152915193169263e300b2e69260048084019391929182900301818387803b1580156200226857600080fd5b505af11580156200227d573d6000803e3d6000fd5b5050505062001602565b60005b826001600160a01b031663712132206040518163ffffffff1660e01b815260040160206040518083038186803b158015620022c457600080fd5b505afa158015620022d9573d6000803e3d6000fd5b505050506040513d601f19601f82011682018060405250810190620022ff9190620045aa565b811015620024505760405163118f52db60e31b81526000906001600160a01b03851690638c7a96d89062002338908590600401620046b4565b60206040518083038186803b1580156200235157600080fd5b505afa15801562002366573d6000803e3d6000fd5b505050506040513d601f19601f820116820180604052508101906200238c91906200445c565b6001600160a01b03811660009081526007602052604090206001908101549192501015620023d8576001600160a01b038116600090815260076020526040902060010180546000190190555b6001600160a01b03808216600090815260208190526040808220548151637180597360e11b8152915193169263e300b2e69260048084019391929182900301818387803b1580156200242957600080fd5b505af11580156200243e573d6000803e3d6000fd5b5050600190930192506200228a915050565b506000600385815481106200246157fe5b90600052602060002090600c0201600b0181905550600384815481106200248457fe5b60009182526020909120600a600c909202010180546001600160a01b03191690556003805485908110620024b457fe5b90600052602060002090600c02016008016000620024d3919062004218565b60038481548110620024e157fe5b90600052602060002090600c0201600901600062002500919062004218565b6000848152600160205260408082205481516336f3612960e21b815291516001600160a01b039091169263dbcd84a4926004808201939182900301818387803b1580156200254d57600080fd5b505af115801562002562573d6000803e3d6000fd5b50505060008581526001602081905260409182902054915163a9e966b760e01b81526001600160a01b03909216925063a9e966b791620025a69190600401620046b4565b600060405180830381600087803b158015620025c157600080fd5b505af1158015620025d6573d6000803e3d6000fd5b50505050600160038581548110620015cf57fe5b60065481565b600233600090815260208181526040918290205482516310055c1d60e01b815292516001600160a01b03909116926310055c1d926004808301939192829003018186803b1580156200264157600080fd5b505afa15801562002656573d6000803e3d6000fd5b505050506040513d601f19601f820116820180604052508101906200267c9190620045aa565b146200268757600080fd5b6006548110620026ab5760405162461bcd60e51b81526004016200032790620048c6565b6000818152600160205260408082205481516377a1855360e11b815291516001600160a01b039091169263ef430aa69260048082019391829003018186803b158015620026f757600080fd5b505afa1580156200270c573d6000803e3d6000fd5b505050506040513d6000823e601f3d908101601f191682016040526200273691908101906200449a565b60405160200162002748919062004645565b60408051808303601f19018152828252805160209182012033600090815291829052828220546377a1855360e11b8552925190936001600160a01b039093169263ef430aa6926004808301939192829003018186803b158015620027ab57600080fd5b505afa158015620027c0573d6000803e3d6000fd5b505050506040513d6000823e601f3d908101601f19168201604052620027ea91908101906200449a565b604051602001620027fc919062004645565b6040516020818303038152906040528051906020012014620028325760405162461bcd60e51b815260040162000327906200479e565b6000818152600160209081526040808320548151639cb93dd160e01b815291516001600160a01b0390911692639cb93dd19260048082019391829003018186803b1580156200288057600080fd5b505afa15801562002895573d6000803e3d6000fd5b505050506040513d601f19601f82011682018060405250810190620028bb91906200445c565b6001600160a01b031614620028e45760405162461bcd60e51b8152600401620003279062004877565b6001600082815260016020908152604091829020548251631865c57d60e01b815292516001600160a01b0390911692631865c57d926004808301939192829003018186803b1580156200293657600080fd5b505afa1580156200294b573d6000803e3d6000fd5b505050506040513d601f19601f82011682018060405250810190620029719190620045aa565b146200297c57600080fd5b33600382815481106200298b57fe5b60009182526020808320600c92909202909101600a0180546001600160a01b0319166001600160a01b0394851617905583825260019052604090819020549051637aa13bf960e01b8152911690637aa13bf990620029ee90339060040162004663565b600060405180830381600087803b15801562002a0957600080fd5b505af115801562000c6d573d6000803e3d6000fd5b600333600090815260208181526040918290205482516310055c1d60e01b815292516001600160a01b03909116926310055c1d926004808301939192829003018186803b15801562002a6f57600080fd5b505afa15801562002a84573d6000803e3d6000fd5b505050506040513d601f19601f8201168201806040525081019062002aaa9190620045aa565b1462002ab557600080fd5b600654821062002ad95760405162461bcd60e51b81526004016200032790620048c6565b6000828152600160205260409081902054905163673e156160e11b8152339183916001600160a01b039091169063ce7c2ac29062002b1c90859060040162004663565b60206040518083038186803b15801562002b3557600080fd5b505afa15801562002b4a573d6000803e3d6000fd5b505050506040513d601f19601f8201168201806040525081019062002b709190620045aa565b101562002b915760405162461bcd60e51b8152600401620003279062004710565b600480546040516323b872dd60e01b81526001600160a01b03909116916323b872dd9162002bc6913091869188910162004677565b600060405180830381600087803b15801562002be157600080fd5b505af115801562002bf6573d6000803e3d6000fd5b505050600084815260016020526040908190205490516301e0b8b960e11b81526001600160a01b0390911691506303c171729062002c3b90849086906004016200469b565b600060405180830381600087803b15801562002c5657600080fd5b505af115801562002c6b573d6000803e3d6000fd5b50505050505050565b336000908152602081815260408083205481516310055c1d60e01b815291516001600160a01b03909116926310055c1d9260048082019391829003018186803b15801562002cc157600080fd5b505afa15801562002cd6573d6000803e3d6000fd5b505050506040513d601f19601f8201168201806040525081019062002cfc9190620045aa565b1462002d0757600080fd5b600654811062002d2b5760405162461bcd60e51b81526004016200032790620048c6565b6000818152600160209081526040808320548151631865c57d60e01b815291516001600160a01b0390911692631865c57d9260048082019391829003018186803b15801562002d7957600080fd5b505afa15801562002d8e573d6000803e3d6000fd5b505050506040513d601f19601f8201168201806040525081019062002db49190620045aa565b1462002dd45760405162461bcd60e51b8152600401620003279062004835565b60005b600082815260016020908152604091829020548251633d78ff2f60e01b815292516001600160a01b0390911692633d78ff2f926004808301939192829003018186803b15801562002e2757600080fd5b505afa15801562002e3c573d6000803e3d6000fd5b505050506040513d601f19601f8201168201806040525081019062002e629190620045aa565b81101562003097576000828152600160205260408082205490516330bd6f2f60e11b81526001600160a01b039091169063617ade5e9062002ea8908590600401620046b4565b60206040518083038186803b15801562002ec157600080fd5b505afa15801562002ed6573d6000803e3d6000fd5b505050506040513d601f19601f8201168201806040525081019062002efc91906200445c565b60008481526001602052604090819020549051636d3bad9760e11b81529192506001600160a01b03169063da775b2e9062002f3c90849060040162004663565b60206040518083038186803b15801562002f5557600080fd5b505afa15801562002f6a573d6000803e3d6000fd5b505050506040513d601f19601f8201168201806040525081019062002f9091906200447b565b156200308d57600480546000858152600160205260409081902054905163673e156160e11b81526001600160a01b03928316936323b872dd933093879391169163ce7c2ac29162002fe49185910162004663565b60206040518083038186803b15801562002ffd57600080fd5b505afa15801562003012573d6000803e3d6000fd5b505050506040513d601f19601f82011682018060405250810190620030389190620045aa565b6040518463ffffffff1660e01b8152600401620030589392919062004677565b600060405180830381600087803b1580156200307357600080fd5b505af115801562003088573d6000803e3d6000fd5b505050505b5060010162002dd7565b506000818152600160205260408082205481516310fed1ef60e21b815291516001600160a01b03909116926343fb47bc926004808201939182900301818387803b158015620030e557600080fd5b505af1158015620030fa573d6000803e3d6000fd5b505050506005600382815481106200310e57fe5b90600052602060002090600c020160060160006101000a81548160ff021916908360068111156200313b57fe5b021790555050565b336000908152602081815260408083205481516310055c1d60e01b815291516001600160a01b03909116926310055c1d9260048082019391829003018186803b1580156200319057600080fd5b505afa158015620031a5573d6000803e3d6000fd5b505050506040513d601f19601f82011682018060405250810190620031cb9190620045aa565b14620031d657600080fd5b6006548110620031fa5760405162461bcd60e51b81526004016200032790620048c6565b6001600082815260016020908152604091829020548251631865c57d60e01b815292516001600160a01b0390911692631865c57d926004808301939192829003018186803b1580156200324c57600080fd5b505afa15801562003261573d6000803e3d6000fd5b505050506040513d601f19601f82011682018060405250810190620032879190620045aa565b146200329257600080fd5b60008181526001602090815260408083205481516391cca3db60e01b815291516001600160a01b03909116939284926391cca3db9260048083019392829003018186803b158015620032e357600080fd5b505afa158015620032f8573d6000803e3d6000fd5b505050506040513d601f19601f820116820180604052508101906200331e9190620045aa565b905060005b81836001600160a01b0316637e6f82956040518163ffffffff1660e01b815260040160206040518083038186803b1580156200335e57600080fd5b505afa15801562003373573d6000803e3d6000fd5b505050506040513d601f19601f82011682018060405250810190620033999190620045aa565b1080156200341a5750826001600160a01b031663c5e25ad36040518163ffffffff1660e01b815260040160206040518083038186803b158015620033dc57600080fd5b505afa158015620033f1573d6000803e3d6000fd5b505050506040513d601f19601f82011682018060405250810190620034179190620045aa565b81105b1562003985576040516301726c9b60e31b81526000906001600160a01b03851690630b9364d89062003451908490600401620046b4565b60206040518083038186803b1580156200346a57600080fd5b505afa1580156200347f573d6000803e3d6000fd5b505050506040513d601f19601f82011682018060405250810190620034a591906200445c565b9050600060015b856001600160a01b031663c5e25ad36040518163ffffffff1660e01b815260040160206040518083038186803b158015620034e657600080fd5b505afa158015620034fb573d6000803e3d6000fd5b505050506040513d601f19601f82011682018060405250810190620035219190620045aa565b811015620036a3576040516301726c9b60e31b81526000906001600160a01b03881690630b9364d8906200355a908590600401620046b4565b60206040518083038186803b1580156200357357600080fd5b505afa15801562003588573d6000803e3d6000fd5b505050506040513d601f19601f82011682018060405250810190620035ae91906200445c565b90506001600160a01b038116620035c657506200369a565b6001600160a01b038085166000908152600760205260408082206001908101549385168352912001541180156200368b575085876001600160a01b0316637e6f82956040518163ffffffff1660e01b815260040160206040518083038186803b1580156200363357600080fd5b505afa15801562003648573d6000803e3d6000fd5b505050506040513d601f19601f820116820180604052508101906200366e9190620045aa565b6001600160a01b0383166000908152600760205260409020540111155b1562003698578093508192505b505b600101620034ac565b5083856001600160a01b0316637e6f82956040518163ffffffff1660e01b815260040160206040518083038186803b158015620036df57600080fd5b505afa158015620036f4573d6000803e3d6000fd5b505050506040513d601f19601f820116820180604052508101906200371a9190620045aa565b6001600160a01b0384166000908152600760205260409020540111156200374357505062003985565b600386815481106200375157fe5b60009182526020808320600c9290920290910160090180546001810182559083528183200180546001600160a01b0319166001600160a01b03861690811790915582526007905260409020546003805488908110620037ac57fe5b600091825260208220600b600c909202010180549092019091556003805488908110620037d557fe5b90600052602060002090600c02016008018281548110620037f257fe5b600091825260208083209190910180546001600160a01b0319166001600160a01b039485161790558882526001905260409081902054905163d6009ded60e01b815291169063d6009ded906200384d90859060040162004663565b600060405180830381600087803b1580156200386857600080fd5b505af11580156200387d573d6000803e3d6000fd5b5050506000878152600160209081526040808320546001600160a01b03878116855260079093529281902054905163454683ad60e11b8152919092169250638a8d075a91620038cf91600401620046b4565b600060405180830381600087803b158015620038ea57600080fd5b505af1158015620038ff573d6000803e3d6000fd5b5050506000878152600160205260409081902054905163515fee7160e01b81526001600160a01b03909116915063515fee719062003942908490600401620046b4565b600060405180830381600087803b1580156200395d57600080fd5b505af115801562003972573d6000803e3d6000fd5b5050600190940193506200332392505050565b81836001600160a01b0316637e6f82956040518163ffffffff1660e01b815260040160206040518083038186803b158015620039c057600080fd5b505afa158015620039d5573d6000803e3d6000fd5b505050506040513d601f19601f82011682018060405250810190620039fb9190620045aa565b1062003a9b5760026003858154811062003a1157fe5b90600052602060002090600c020160060160006101000a81548160ff0219169083600681111562003a3e57fe5b02179055506000848152600160205260409020546001600160a01b031663a9e966b760026040518263ffffffff1660e01b815260040162003a809190620046b4565b600060405180830381600087803b1580156200226857600080fd5b60016003858154811062003aab57fe5b90600052602060002090600c020160060160006101000a81548160ff0219169083600681111562003ad857fe5b021790555060008481526001602081905260409182902054915163a9e966b760e01b81526001600160a01b039092169163a9e966b79162003b1c91600401620046b4565b600060405180830381600087803b15801562003b3757600080fd5b505af115801562003b4c573d6000803e3d6000fd5b5050505050505050565b6000816001600160a01b031663eab0a4796040518163ffffffff1660e01b815260040160206040518083038186803b15801562003b9257600080fd5b505afa15801562003ba7573d6000803e3d6000fd5b505050506040513d601f19601f8201168201806040525081019062003bcd9190620045aa565b600081815260016020526040902080546001600160a01b0319166001600160a01b0385161790559050600362003c038262003d40565b81546001808201845560009384526020938490208351600c909302019182558284015190820180546001600160a01b0319166001600160a01b03909216919091179055604082015180519293919262003c6392600285019201906200423b565b50606082015160038201556080820151600482015560a0820151805162003c959160058401916020909101906200423b565b5060c08201518160060160006101000a81548160ff0219169083600681111562003cbb57fe5b021790555060e08201516007820155610100820151805162003ce8916008840191602090910190620042c0565b50610120820151805162003d07916009840191602090910190620042c0565b50610140820151600a820180546001600160a01b0319166001600160a01b0390921691909117905561016090910151600b909101555050565b62003d4a62004326565b62003d5462004326565b60008381526001602090815260409182902054825163eab0a47960e01b815292516001600160a01b039091169263eab0a479926004808301939192829003018186803b15801562003da457600080fd5b505afa15801562003db9573d6000803e3d6000fd5b505050506040513d601f19601f8201168201806040525081019062003ddf9190620045aa565b8152600083815260016020908152604091829020548251630c0076c760e11b815292516001600160a01b0390911692631800ed8e926004808301939192829003018186803b15801562003e3157600080fd5b505afa15801562003e46573d6000803e3d6000fd5b505050506040513d601f19601f8201168201806040525081019062003e6c91906200445c565b6001600160a01b03908116602080840191909152600085815260019091526040808220548151633942720b60e11b81529151931692637284e41692600480840193919291829003018186803b15801562003ec557600080fd5b505afa15801562003eda573d6000803e3d6000fd5b505050506040513d6000823e601f3d908101601f1916820160405262003f0491908101906200449a565b604080830191909152600084815260016020908152908290205482516391cca3db60e01b815292516001600160a01b03909116926391cca3db926004808301939192829003018186803b15801562003f5b57600080fd5b505afa15801562003f70573d6000803e3d6000fd5b505050506040513d601f19601f8201168201806040525081019062003f969190620045aa565b60608201526000838152600160209081526040918290205482516302bbb92360e61b815292516001600160a01b039091169263aeee48c0926004808301939192829003018186803b15801562003feb57600080fd5b505afa15801562004000573d6000803e3d6000fd5b505050506040513d601f19601f82011682018060405250810190620040269190620045aa565b60808201526000838152600160205260408082205481516377a1855360e11b815291516001600160a01b039091169263ef430aa69260048082019391829003018186803b1580156200407757600080fd5b505afa1580156200408c573d6000803e3d6000fd5b505050506040513d6000823e601f3d908101601f19168201604052620040b691908101906200449a565b60a0820152600083815260016020908152604091829020548251631865c57d60e01b815292516001600160a01b0390911692631865c57d926004808301939192829003018186803b1580156200410b57600080fd5b505afa15801562004120573d6000803e3d6000fd5b505050506040513d601f19601f82011682018060405250810190620041469190620045aa565b60068111156200415257fe5b8160c0019060068111156200416357fe5b908160068111156200417157fe5b9052506000838152600160209081526040918290205482516319d74e6f60e11b815292516001600160a01b03909116926333ae9cde926004808301939192829003018186803b158015620041c457600080fd5b505afa158015620041d9573d6000803e3d6000fd5b505050506040513d601f19601f82011682018060405250810190620041ff9190620045aa565b60e082015292915050565b6110158062004a9583390190565b5080546000825590600052602060002090810190620042389190620043a5565b50565b828054600181600116156101000203166002900490600052602060002090601f016020900481019282601f106200427e57805160ff1916838001178555620042ae565b82800160010185558215620042ae579182015b82811115620042ae57825182559160200191906001019062004291565b50620042bc929150620043a5565b5090565b82805482825590600052602060002090810192821562004318579160200282015b828111156200431857825182546001600160a01b0319166001600160a01b03909116178255602090920191600190910190620042e1565b50620042bc929150620043bc565b6040518061018001604052806000815260200160006001600160a01b0316815260200160608152602001600081526020016000815260200160608152602001600060068111156200437357fe5b815260200160008152602001606081526020016060815260200160006001600160a01b03168152602001600081525090565b5b80821115620042bc5760008155600101620043a6565b5b80821115620042bc5780546001600160a01b0319168155600101620043bd565b600082601f830112620043ee578081fd5b813562004405620043ff8262004a1b565b620049f3565b91508082528360208285010111156200441d57600080fd5b8060208401602084013760009082016020015292915050565b60006020828403121562004448578081fd5b8135620044558162004a6f565b9392505050565b6000602082840312156200446e578081fd5b8151620044558162004a6f565b6000602082840312156200448d578081fd5b8151620044558162004a85565b600060208284031215620044ac578081fd5b815167ffffffffffffffff811115620044c3578182fd5b8201601f81018413620044d4578182fd5b8051620044e5620043ff8262004a1b565b818152856020838501011115620044fa578384fd5b6200450d82602083016020860162004a40565b95945050505050565b600080600080608085870312156200452c578283fd5b843567ffffffffffffffff8082111562004544578485fd5b6200455288838901620043dd565b95506020870135945060408701359350606087013591508082111562004576578283fd5b506200458587828801620043dd565b91505092959194509250565b600060208284031215620045a3578081fd5b5035919050565b600060208284031215620045bc578081fd5b5051919050565b60008060408385031215620045d6578182fd5b823591506020830135620045ea8162004a85565b809150509250929050565b6000806040838503121562004608578182fd5b50508035926020909101359150565b600081518084526200463181602086016020860162004a40565b601f01601f19169290920160200192915050565b600082516200465981846020870162004a40565b9190910192915050565b6001600160a01b0391909116815260200190565b6001600160a01b039384168152919092166020820152604081019190915260600190565b6001600160a01b03929092168252602082015260400190565b90815260200190565b60208082526033908201527f596f7520617265206e6f742070617274206f66207468652070726f64756374276040820152727320667265656c616e63696e67207465616d2160681b606082015260800190565b60208082526023908201527f596f752061736b656420666f72206d6f7265207468616e20796f75206761766560408201526217171760e91b606082015260800190565b6020808252602b908201527f596f7520617265206e6f7420746865206576616c7561746f7220666f7220746860408201526a69732070726f647563742160a81b606082015260800190565b60208082526030908201527f596f7520646f206e6f74207370656369616c697a6520696e207468652070726f60408201526f6475637427732063617465676f72792160801b606082015260800190565b60208082526027908201527f5468697320667265656c616e6365722068617320616c726561647920726567696040820152667374657265642160c81b606082015260800190565b60208082526022908201527f50726f6475637420697320646f6e652066756e64696e6720616c72656164792e604082015261171760f11b606082015260800190565b6020808252602f908201527f546865726520616c726561647920697320616e206576616c7561746f7220666f60408201526e7220746869732070726f647563742160881b606082015260800190565b60208082526017908201527f50726f6475637420646f6573206e6f7420657869737421000000000000000000604082015260600190565b6020808252601e908201527f4445562073756d206d75737420626520626967676572207468616e2030210000604082015260600190565b8681526001600160a01b038616602082015260c060408201819052600090620049609083018762004617565b85606084015284608084015282810360a084015262004980818562004617565b9998505050505050505050565b600086825285602083015260a06040830152620049ae60a083018662004617565b606083019490945250608001529392505050565b600085825284602083015283604083015260806060830152620049e9608083018462004617565b9695505050505050565b60405181810167ffffffffffffffff8111828210171562004a1357600080fd5b604052919050565b600067ffffffffffffffff82111562004a32578081fd5b50601f01601f191660200190565b60005b8381101562004a5d57818101518382015260200162004a43565b83811115620016025750506000910152565b6001600160a01b03811681146200423857600080fd5b80151581146200423857600080fdfe60806040523480156200001157600080fd5b506040516200101538038062001015833981810160405260c08110156200003757600080fd5b815160208301516040808501805191519395929483019291846401000000008211156200006357600080fd5b9083019060208201858111156200007957600080fd5b82516401000000008111828201881017156200009457600080fd5b82525081516020918201929091019080838360005b83811015620000c3578181015183820152602001620000a9565b50505050905090810190601f168015620000f15780820380516001836020036101000a031916815260200191505b506040818152602083015190830151606090930180519195939492939291846401000000008211156200012357600080fd5b9083019060208201858111156200013957600080fd5b82516401000000008111828201881017156200015457600080fd5b82525081516020918201929091019080838360005b838110156200018357818101518382015260200162000169565b50505050905090810190601f168015620001b15780820380516001836020036101000a031916815260200191505b506040525050506000869055600180546001600160a01b0319166001600160a01b0387161790558351620001ed9060029060208701906200022a565b506003839055600482905580516200020d9060059060208401906200022a565b50506006805460ff191690555050600060075550620002c6915050565b828054600181600116156101000203166002900490600052602060002090601f016020900481019282601f106200026d57805160ff19168380011785556200029d565b828001600101855582156200029d579182015b828111156200029d57825182559160200191906001019062000280565b50620002ab929150620002af565b5090565b5b80821115620002ab5760008155600101620002b0565b610d3f80620002d66000396000f3fe608060405234801561001057600080fd5b50600436106101da5760003560e01c80637e6f829511610104578063aeee48c0116100a2578063da775b2e11610071578063da775b2e146104e2578063dbcd84a414610508578063eab0a47914610510578063ef430aa614610518576101da565b8063aeee48c014610486578063c5e25ad31461048e578063ce7c2ac214610496578063d6009ded146104bc576101da565b806391cca3db116100de57806391cca3db146104335780639cb93dd11461043b578063a858daa914610443578063a9e966b714610469576101da565b80637e6f8295146103f15780638a8d075a146103f95780638c7a96d814610416576101da565b806343fb47bc1161017c578063712132201161014b578063712132201461031a5780637284e41614610322578063772e30171461039f5780637aa13bf9146103cb576101da565b806343fb47bc146102b2578063515fee71146102ba57806355b0f6fc146102d7578063617ade5e146102fd576101da565b80631800ed8e116101b85780631800ed8e146102805780631865c57d1461028857806333ae9cde146102a25780633d78ff2f146102aa576101da565b8063029b7e14146101df57806303c17172146102195780630b9364d814610247575b600080fd5b610205600480360360208110156101f557600080fd5b50356001600160a01b0316610520565b604080519115158252519081900360200190f35b6102456004803603604081101561022f57600080fd5b506001600160a01b038135169060200135610535565b005b6102646004803603602081101561025d57600080fd5b5035610612565b604080516001600160a01b039092168252519081900360200190f35b610264610639565b610290610648565b60408051918252519081900360200190f35b610290610663565b610290610669565b61024561066f565b610245600480360360208110156102d057600080fd5b50356107cd565b610205600480360360208110156102ed57600080fd5b50356001600160a01b031661080d565b6102646004803603602081101561031357600080fd5b5035610822565b61029061082f565b61032a610835565b6040805160208082528351818301528351919283929083019185019080838360005b8381101561036457818101518382015260200161034c565b50505050905090810190601f1680156103915780820380516001836020036101000a031916815260200191505b509250505060405180910390f35b610245600480360360408110156103b557600080fd5b506001600160a01b0381351690602001356108c0565b610245600480360360208110156103e157600080fd5b50356001600160a01b03166109cb565b6102906109ed565b6102456004803603602081101561040f57600080fd5b50356109f3565b6102646004803603602081101561042c57600080fd5b50356109fe565b610290610a0b565b610264610a11565b6102456004803603602081101561045957600080fd5b50356001600160a01b0316610a20565b6102456004803603602081101561047f57600080fd5b5035610af5565b610290610b1e565b610290610b24565b610290600480360360208110156104ac57600080fd5b50356001600160a01b0316610b2a565b610245600480360360208110156104d257600080fd5b50356001600160a01b0316610b3c565b610205600480360360208110156104f857600080fd5b50356001600160a01b0316610c11565b610245610c26565b610290610c50565b61032a610c56565b600f6020526000908152604090205460ff1681565b60006006805460ff169081111561054857fe5b1461059a576040805162461bcd60e51b815260206004820152601f60248201527f596f752063616e6e6f742074616b65206261636b2066756e6473206e6f772100604482015290519081900360640190fd5b6001600160a01b038216600090815260086020526040902080548290038155600780548390039055541580156105e857506001600160a01b0382166000908152600a602052604090205460ff165b1561060e576001600160a01b0382166000908152600a60205260409020805460ff191690555b5050565b600c818154811061061f57fe5b6000918252602090912001546001600160a01b0316905081565b6001546001600160a01b031681565b6006805460009160ff9091169081111561065e57fe5b905090565b60075481565b60095490565b60006006805460ff169081111561068257fe5b146106d4576040805162461bcd60e51b815260206004820152601f60248201527f596f752063616e6e6f742067697665206261636b2066756e6473206e6f772100604482015290519081900360640190fd5b6006805460ff1916600517905560005b6009548110156107b757600a6000600983815481106106ff57fe5b60009182526020808320909101546001600160a01b0316835282019290925260400190205460ff16156107af576000600860006009848154811061073f57fe5b60009182526020808320909101546001600160a01b0316835282019290925260400181209190915560098054600a9183918590811061077a57fe5b6000918252602080832091909101546001600160a01b031683528201929092526040019020805460ff19169115159190911790555b6001016106e4565b50600060078190556107cb90600990610ccf565b565b6000600c82815481106107dc57fe5b9060005260206000200160006101000a8154816001600160a01b0302191690836001600160a01b0316021790555050565b600e6020526000908152604090205460ff1681565b6009818154811061061f57fe5b600d5490565b6002805460408051602060018416156101000260001901909316849004601f810184900484028201840190925281815292918301828280156108b85780601f1061088d576101008083540402835291602001916108b8565b820191906000526020600020905b81548152906001019060200180831161089b57829003601f168201915b505050505081565b60006006805460ff16908111156108d357fe5b14610925576040805162461bcd60e51b815260206004820152601b60248201527f596f752063616e6e6f742073686172652066756e6473206e6f77210000000000604482015290519081900360640190fd5b6001600160a01b03821660009081526008602090815260408083208054850190556007805485019055600a90915290205460ff166109c3576001600160a01b0382166000818152600a60205260408120805460ff191660019081179091556009805491820181559091527f6e1540171b6c0c960b71a7020d9f60077f6af931a8bbf590da0223dacf75c7af0180546001600160a01b03191690911790555b61060e610cb1565b600b80546001600160a01b0319166001600160a01b0392909216919091179055565b60105481565b601080549091019055565b600d818154811061061f57fe5b60035481565b600b546001600160a01b031681565b6001600160a01b0381166000908152600e602052604090205460ff1615610a8e576040805162461bcd60e51b815260206004820152601d60248201527f467265656c616e63657220697320616c72656164792073746f72656421000000604482015290519081900360640190fd5b600c805460018181019092557fdf6966c971051c3d54ec59162606531493a51404a002842f56009d7e5cf4a8c70180546001600160a01b039093166001600160a01b0319909316831790556000918252600e6020526040909120805460ff19169091179055565b806006811115610b0157fe5b6006805460ff191660018383811115610b1657fe5b021790555050565b60045481565b600c5490565b60086020526000908152604090205481565b6001600160a01b0381166000908152600f602052604090205460ff1615610baa576040805162461bcd60e51b815260206004820181905260248201527f467265656c616e63657220697320616c7265616479207465616d656420757021604482015290519081900360640190fd5b600d805460018181019092557fd7b6990105719101dabeb77144f2a3385c8033acd3af97e9423a695e81ad1eb50180546001600160a01b039093166001600160a01b0319909316831790556000918252600f6020526040909120805460ff19169091179055565b600a6020526000908152604090205460ff1681565b610c32600c6000610ccf565b610c3e600d6000610ccf565b600b80546001600160a01b0319169055565b60005481565b6005805460408051602060026001851615610100026000190190941693909304601f810184900484028201840190925281815292918301828280156108b85780601f1061088d576101008083540402835291602001916108b8565b60045460035401600754106107cb576006805460ff19166001179055565b5080546000825590600052602060002090810190610ced9190610cf0565b50565b5b80821115610d055760008155600101610cf1565b509056fea264697066735822122036649ccf6446a8f52e9cc97493246c512e88b383532c74cdb2d517e7cd14655764736f6c63430007000033a264697066735822122060a7669f3ce63a28a2a3127ab9916f8cefa5eccae8a95e70f31545bf228e998564736f6c63430007000033",
  "immutableReferences": {},
  "source": "// SPDX-License-Identifier: MIT\r\npragma solidity >=0.6.0 <0.8.0;\r\npragma experimental ABIEncoderV2;\r\n\r\nimport \"./GenericUser.sol\";\r\nimport \"./Factory.sol\";\r\nimport \"./ERC20token_manager.sol\";\r\nimport \"./Product.sol\";\r\n\r\ncontract Marketplace {\r\n\r\n    mapping(address => GenericUser) private users_contracts;\r\n    mapping(uint => Product) private products_contracts;\r\n    genericUser[] private users_structs;\r\n    prodStruct[] private products_structs;\r\n    ERC20token_manager private tkn_mng;\r\n    Factory private uf;\r\n    uint public productsNu = 0;\r\n    mapping(address => freelancerShare) freelancers_map;\r\n    \r\n    enum States{ Funding, Teaming, Started, Finished, Published, Retired, Evaluation }\r\n    enum Roles{ Manager, Freelancer, Evaluator, Financer}\r\n\r\n    // Role: 0 - manager | 1 - freelancer | 2 - evaluator | 3 - financer\r\n    struct genericUser{\r\n        address addr;\r\n        uint role;\r\n        uint rep;\r\n        string name;\r\n        string category;\r\n    }\r\n\r\n    struct freelancerShare{\r\n        uint share; // from 1% to 100% of prod dev\r\n        uint rep; // for which freelancer to select\r\n    }\r\n\r\n    struct prodStruct{\r\n        uint product_id;\r\n        address manager_address;\r\n        string description;\r\n        uint dev;\r\n        uint rev;\r\n        string category;\r\n        States currentState;\r\n\t    uint funded_sum;\r\n        \r\n        address[] applied_freelancers;\r\n        address[] selected_freelancers; // who to select\r\n        address applied_evaluator;\r\n\r\n        uint alloc_share; // current allocated share (0%->100%)*\r\n    }\r\n\r\n    constructor (Factory _uf, ERC20token_manager _tkn_mng){\r\n        tkn_mng = _tkn_mng;\r\n        uf = _uf;\r\n\r\n        address manager_addr = 0x09666EB528f0E1df658249EAC9F2f85d65A131A4;\r\n        \r\n        address freelancer_0_addr = 0x5e1ef4Abfe15695cE42B1fDaA369682D0b22807E;\r\n        address freelancer_1_addr = 0xBEc7ece078138344c44574DFD19E01177108f344;\r\n        address freelancer_2_addr = 0x7ce3Bd36bf52A1133d404EA6036389fD5e51b15F;\r\n\r\n        address evaluator_0_addr = 0xBCb67EcDfd1908E4268A2A8E1F12Eba8074BE8F6;\r\n        address evaluator_1_addr = 0x8F12eC61806F82B433aD62B1cD44C20d707aeCA9;\r\n        \r\n        address financer_0_addr = 0x93364590630E3dBC9e803859d55b86b682A974eD;\r\n        address financer_1_addr = 0xD59f510ab6908Ec362Fed6AbDe53160054F2922D;\r\n        \r\n        // create user contracts and store\r\n        storeAndAllocUser(uf.new_manager(manager_addr, \"manager\"), 2000);\r\n        \r\n        storeAndAllocUser(uf.new_freelancer(freelancer_0_addr, \"freelancer-0\", \"Cryptocurrency\"), 2500);\r\n        storeAndAllocUser(uf.new_freelancer(freelancer_1_addr, \"freelancer-1\", \"Games\"), 3000);\r\n        storeAndAllocUser(uf.new_freelancer(freelancer_2_addr, \"freelancer-2\", \"Games\"), 7500);\r\n        \r\n        storeAndAllocUser(uf.new_evaluator(evaluator_0_addr, \"evaluator-0\", \"Games\"), 700);\r\n        storeAndAllocUser(uf.new_evaluator(evaluator_1_addr, \"evaluator-1\", \"Cryptocurrency\"), 950);\r\n        \r\n        storeAndAllocUser(uf.new_financer(financer_0_addr, \"financer-0\"), 30000);\r\n        storeAndAllocUser(uf.new_financer(financer_1_addr, \"financer-2\"), 50000);\r\n    }\r\n\r\n    // does not have enough gas for this..\r\n    // function storeUsers(address[] memory _addresses) public {\r\n    //     // Ganache\r\n    //     address manager_addr = _addresses[0];\r\n        \r\n    //     address freelancer_0_addr = _addresses[1];\r\n    //     address freelancer_1_addr = _addresses[2];\r\n    //     address freelancer_2_addr = _addresses[3];\r\n\r\n    //     address evaluator_0_addr = _addresses[4];\r\n    //     address evaluator_1_addr = _addresses[5];\r\n        \r\n    //     address financer_0_addr = _addresses[6];\r\n    //     address financer_1_addr = _addresses[7];\r\n        \r\n    //     // create user contracts and store\r\n    //     storeAndAllocUser(uf.new_manager(manager_addr, \"manager\"), 2000);\r\n        \r\n    //     storeAndAllocUser(uf.new_freelancer(freelancer_0_addr, \"freelancer-0\", \"Cryptocurrency\"), 2500);\r\n    //     storeAndAllocUser(uf.new_freelancer(freelancer_1_addr, \"freelancer-1\", \"Games\"), 3000);\r\n    //     storeAndAllocUser(uf.new_freelancer(freelancer_2_addr, \"freelancer-2\", \"Games\"), 7500);\r\n        \r\n    //     storeAndAllocUser(uf.new_evaluator(evaluator_0_addr, \"evaluator-0\", \"Games\"), 700);\r\n    //     storeAndAllocUser(uf.new_evaluator(evaluator_1_addr, \"evaluator-1\", \"Cryptocurrency\"), 950);\r\n        \r\n    //     storeAndAllocUser(uf.new_financer(financer_0_addr, \"financer-0\"), 30000);\r\n    //     storeAndAllocUser(uf.new_financer(financer_1_addr, \"financer-2\"), 50000);\r\n    // }\r\n    \r\n    modifier onlyManager {\r\n        require(users_contracts[msg.sender].role() == uint(Roles.Manager));\r\n        _;\r\n    }\r\n\r\n    modifier onlyFreelancer {\r\n        require(users_contracts[msg.sender].role() == uint(Roles.Freelancer));\r\n        _;\r\n    }\r\n\r\n    modifier onlyEvaluator {\r\n        require(users_contracts[msg.sender].role() == uint(Roles.Evaluator));\r\n        _;\r\n    }\r\n    \r\n    modifier onlyFreelancerOrEvaluator {\r\n        require(users_contracts[msg.sender].role() == uint(Roles.Freelancer) || users_contracts[msg.sender].role() == uint(Roles.Evaluator));\r\n        _;\r\n    }\r\n    \r\n    modifier onlyFinancer {\r\n        require(users_contracts[msg.sender].role() == uint(Roles.Financer));\r\n        _;\r\n    }\r\n    \r\n    function createUserStruct(address _addr) private view returns (genericUser memory){\r\n        genericUser memory gu;\r\n        gu.addr = users_contracts[_addr].addr();\r\n        gu.role = users_contracts[_addr].role();\r\n        gu.rep = users_contracts[_addr].rep();\r\n        gu.name = users_contracts[_addr].name();\r\n        gu.category = users_contracts[_addr].category();\r\n        \r\n        return gu;\r\n    }\r\n    \r\n    function createProductStruct(uint _prod_id) private view returns (prodStruct memory){\r\n        prodStruct memory ps;\r\n        ps.product_id = products_contracts[_prod_id].product_id();\r\n        ps.manager_address = products_contracts[_prod_id].manager_address();\r\n        ps.description = products_contracts[_prod_id].description();\r\n        ps.dev = products_contracts[_prod_id].dev();\r\n        ps.rev = products_contracts[_prod_id].rev();\r\n        ps.category = products_contracts[_prod_id].category();\r\n        ps.currentState = States(products_contracts[_prod_id].getState());\r\n        ps.funded_sum = products_contracts[_prod_id].funded_sum();\r\n        \r\n        return ps;\r\n    }\r\n    \r\n    function storeAndAllocUser(GenericUser _gu, uint _alloc_amount) private {\r\n        address _useraddr = _gu.addr();\r\n        \r\n        users_contracts[_useraddr] = _gu;\r\n        users_structs.push(createUserStruct(_useraddr));\r\n        tkn_mng.transfer(_useraddr, _alloc_amount);\r\n    }\r\n    \r\n    function storeProduct(Product _pr) private {\r\n        uint prod_id = _pr.product_id();\r\n        \r\n        products_contracts[prod_id] = _pr;\r\n        products_structs.push(createProductStruct(prod_id));\r\n    }\r\n    \r\n    function init_product(string memory _description, uint _dev, uint _rev, string memory _category) public onlyManager {\r\n        Product product = new Product(productsNu, msg.sender, _description, _dev, _rev, _category);\r\n        productsNu++;\r\n        storeProduct(product);\r\n    }\r\n    \r\n    function getThisBalance() public view returns (uint){\r\n        return (tkn_mng.getBalanceOf(address(this)));\r\n    }\r\n    \r\n    function getUserProfile(address _addr) public view returns (uint role, uint reputation, uint balance, string memory category) {\r\n        return (users_contracts[_addr].role(), users_contracts[_addr].rep(), tkn_mng.getBalanceOf(_addr), users_contracts[_addr].category());\r\n    }\r\n    \r\n    function getProductDetails(uint _prod_id) public view returns (uint dev, uint rev, string memory category, uint state, uint funded_sum) {\r\n        require(_prod_id < productsNu, \"Product does not exist!\");\r\n        Product prd = products_contracts[_prod_id];\r\n        \r\n        return (prd.dev(), prd.rev(), prd.category(), prd.getState(), prd.funded_sum());\r\n    }\r\n    \r\n    function finance_product(uint _prod_id, uint _token_amount) public onlyFinancer {\r\n        require(_prod_id < productsNu, \"Product does not exist!\");\r\n        \r\n        address fin_addr = msg.sender;\r\n        tkn_mng.transferFrom(fin_addr, address(this), _token_amount);\r\n        products_contracts[_prod_id].storeShare(fin_addr, _token_amount);\r\n        \r\n        if (products_contracts[_prod_id].getState() == uint(States.Teaming)){\r\n            products_structs[_prod_id].currentState = States.Teaming;\r\n        }\r\n    }\r\n    \r\n    function withdraw_sum(uint _prod_id, uint _token_amount) public onlyFinancer {\r\n        require(_prod_id < productsNu, \"Product does not exist!\");\r\n        address fin_addr = msg.sender;\r\n        require(products_contracts[_prod_id].shares(fin_addr) >= _token_amount, \"You asked for more than you gave...\");\r\n        \r\n        tkn_mng.transferFrom(address(this), fin_addr, _token_amount);\r\n        products_contracts[_prod_id].withdrawShare(fin_addr, _token_amount);\r\n    }\r\n    \r\n    function retireProduct(uint _prod_id) public onlyManager {\r\n        require(_prod_id < productsNu, \"Product does not exist!\");\r\n        require(products_contracts[_prod_id].getState() == uint(States.Funding), \"Product is done funding already...\");\r\n        \r\n        for(uint it = 0; it < products_contracts[_prod_id].getFinancersLength(); it++) {\r\n            address _fin_add = products_contracts[_prod_id].financers(it);\r\n            \r\n            if (products_contracts[_prod_id].financer_exists(_fin_add)){\r\n                tkn_mng.transferFrom(address(this), _fin_add, products_contracts[_prod_id].shares(_fin_add));\r\n            }\r\n        }\r\n        \r\n        products_contracts[_prod_id].giveBackAllFunds(); \r\n        products_structs[_prod_id].currentState = States.Retired;\r\n    }\r\n    \r\n    function registerForEvaluation(uint _prod_id) public onlyEvaluator{\r\n        require(_prod_id < productsNu, \"Product does not exist!\");\r\n        require(keccak256(abi.encodePacked((users_contracts[msg.sender].category()))) == keccak256(abi.encodePacked((products_contracts[_prod_id].category()))), \"You do not specialize in the product's category!\");\r\n        require(products_contracts[_prod_id].evaluator() == address(0), \"There already is an evaluator for this product!\");\r\n        require(products_contracts[_prod_id].getState() == uint(States.Teaming));\r\n        \r\n        products_structs[_prod_id].applied_evaluator = msg.sender;\r\n        products_contracts[_prod_id].storeEvaluator(msg.sender);\r\n    }\r\n    \r\n    function registerForFreelancing(uint _prod_id, uint _dev_amount) public onlyFreelancer {\r\n        require(_prod_id < productsNu, \"Product does not exist!\");\r\n        require(keccak256(abi.encodePacked((users_contracts[msg.sender].category()))) == keccak256(abi.encodePacked((products_contracts[_prod_id].category()))), \"You do not specialize in the product's category!\");\r\n        require(!products_contracts[_prod_id].freelancer_exists(msg.sender), \"This freelancer has already registered!\");\r\n        require(_dev_amount > 0, \"DEV sum must be bigger than 0!\");\r\n        require(products_contracts[_prod_id].getState() == uint(States.Teaming));\r\n        \r\n        products_structs[_prod_id].applied_freelancers.push(msg.sender);\r\n        products_contracts[_prod_id].storeFreelancer(msg.sender);\r\n        freelancers_map[msg.sender].rep = users_contracts[msg.sender].rep();\r\n        \r\n        if (_dev_amount >= products_contracts[_prod_id].dev()){\r\n            freelancers_map[msg.sender].share = products_contracts[_prod_id].dev();\r\n        }else{\r\n            freelancers_map[msg.sender].share = _dev_amount; \r\n        }\r\n    }\r\n\r\n    function selectFreelancers(uint _prod_id) public onlyManager {\r\n        require(_prod_id < productsNu, \"Product does not exist!\");\r\n        require(products_contracts[_prod_id].getState() == uint(States.Teaming));\r\n        \r\n        Product current_product = products_contracts[_prod_id];\r\n        uint dev_goal = products_contracts[_prod_id].dev();\r\n        uint freel_index = 0;\r\n        \r\n        while(current_product.alloc_share() < dev_goal && freel_index < current_product.getFreelancersLength()) {\r\n            // while not enough freelancers were selected\r\n            \r\n            address best_freelancer = current_product.freelancers(0); // current best freelancer is the first one\r\n            uint best_fl_index = 0;\r\n            \r\n            for (uint j=1; j < current_product.getFreelancersLength(); j++) { // for every other applied freelancer\r\n                address current_freelancer = current_product.freelancers(j);\r\n                \r\n                if (current_freelancer == address(0)){\r\n                    continue;\r\n                }\r\n                \r\n                if(freelancers_map[current_freelancer].rep > freelancers_map[best_freelancer].rep && \r\n                    (freelancers_map[current_freelancer].share + current_product.alloc_share()) <= dev_goal) { // if rep is better and share isnt bigger than max\r\n                    best_freelancer = current_freelancer;\r\n                    best_fl_index = j;\r\n                }\r\n            }\r\n\r\n            if(freelancers_map[best_freelancer].share + current_product.alloc_share() > dev_goal) {\r\n                break; // all remaining applied freelancers want too much share\r\n            }\r\n\r\n            products_structs[_prod_id].selected_freelancers.push(best_freelancer);\r\n            products_structs[_prod_id].alloc_share += freelancers_map[best_freelancer].share; // best freelancer is selected and current allocated share is updated\r\n            products_structs[_prod_id].applied_freelancers[best_fl_index] = address(0);\r\n            \r\n            products_contracts[_prod_id].teamFreelancer(best_freelancer);\r\n            products_contracts[_prod_id].addAllocShare(freelancers_map[best_freelancer].share);\r\n            products_contracts[_prod_id].resetFreelancer(best_fl_index);\r\n            \r\n            freel_index++;\r\n        }\r\n\r\n        if(current_product.alloc_share() >= dev_goal) {\r\n            products_structs[_prod_id].currentState = States.Started; // can start developing this product\r\n            products_contracts[_prod_id].setState(uint(States.Started));\r\n        }\r\n        else {\r\n            products_structs[_prod_id].currentState = States.Teaming;\r\n            products_contracts[_prod_id].setState(uint(States.Teaming));\r\n        }\r\n    }\r\n\r\n    function notifyManager(uint _prod_id) public onlyFreelancer { // finished development\r\n        require(_prod_id < productsNu, \"Product does not exist!\");\r\n        require(products_contracts[_prod_id].getState() == uint(States.Started));\r\n    \r\n        Product current_product = products_contracts[_prod_id];\r\n        \r\n        if (current_product.chosen_freelancer_exists(msg.sender)){\r\n            products_contracts[_prod_id].setState(uint(States.Finished));\r\n            products_structs[_prod_id].currentState = States.Finished;\r\n        }else{\r\n            revert(\"You are not part of the product's freelancing team!\");\r\n        }\r\n    }\r\n\r\n    function acceptResult(uint _prod_id, bool accept) public onlyManager {\r\n        require(_prod_id < productsNu, \"Product does not exist!\");\r\n        require(products_contracts[_prod_id].getState() == uint(States.Finished));\r\n        \r\n        Product current_product = products_contracts[_prod_id];\r\n        address man_addr = current_product.manager_address();\r\n        \r\n        // if manager accepts to pay freelancers\r\n        if(accept) {\r\n            tkn_mng.transferFrom(address(this), man_addr, current_product.rev());\r\n            users_contracts[man_addr].rep_up();\r\n\r\n            for (uint j=0; j<current_product.getChosenFreelancersLength(); j++) {\r\n                address current_freelancer = current_product.chosen_freelancers(j);\r\n                \r\n                //transfer money to freelancer based on his share\r\n                tkn_mng.transferFrom(address(this), current_freelancer, freelancers_map[current_freelancer].share);\r\n                \r\n                //increment freelancer rep\r\n                if(freelancers_map[current_freelancer].rep < 10) {\r\n                    freelancers_map[current_freelancer].rep += 1;\r\n                }\r\n                users_contracts[current_freelancer].rep_up();\r\n            }\r\n            products_contracts[_prod_id].setState(uint(States.Published));\r\n            products_structs[_prod_id].currentState = States.Published;\r\n        }\r\n        else {\r\n            products_contracts[_prod_id].setState(uint(States.Evaluation));\r\n            products_structs[_prod_id].currentState = States.Evaluation;\r\n        }\r\n    }\r\n\r\n    function evaluateProduct(uint _prod_id, bool accept) public onlyEvaluator {\r\n        require(_prod_id < productsNu, \"Product does not exist!\");\r\n        require(products_contracts[_prod_id].getState() == uint(States.Evaluation));\r\n        Product current_product = products_contracts[_prod_id];\r\n        require(msg.sender == current_product.evaluator(), \"You are not the evaluator for this product!\");\r\n        \r\n        address man_addr = current_product.manager_address();\r\n        tkn_mng.transferFrom(address(this), msg.sender, current_product.rev());\r\n        \r\n        // if evaluator accepts to pay freelancers\r\n        if(accept) {\r\n            for (uint j=0; j<current_product.getChosenFreelancersLength(); j++) {\r\n                address current_freelancer = current_product.chosen_freelancers(j);\r\n                \r\n                //transfer money to freelancer based on his share\r\n                tkn_mng.transferFrom(address(this), current_freelancer, freelancers_map[current_freelancer].share);\r\n                \r\n                //increment freelancer rep\r\n                if(freelancers_map[current_freelancer].rep < 10) {\r\n                    freelancers_map[current_freelancer].rep += 1;\r\n                }\r\n                users_contracts[current_freelancer].rep_up();\r\n            }\r\n            products_contracts[_prod_id].setState(uint(States.Published));\r\n            products_structs[_prod_id].currentState = States.Published;\r\n            \r\n            if(freelancers_map[man_addr].rep > 1) {\r\n                    freelancers_map[man_addr].rep -= 1;\r\n                }\r\n            users_contracts[man_addr].rep_down();\r\n        }\r\n        else {\r\n            for (uint j=0; j<current_product.getChosenFreelancersLength(); j++) {\r\n                address current_freelancer = current_product.chosen_freelancers(j);\r\n\r\n                //decrement freelancer rep\r\n                if(freelancers_map[current_freelancer].rep > 1) {\r\n                    freelancers_map[current_freelancer].rep -= 1;\r\n                }\r\n                users_contracts[current_freelancer].rep_down();\r\n            }\r\n            // mark the current product for redevelopment\r\n            products_structs[_prod_id].alloc_share = 0;\r\n            delete products_structs[_prod_id].applied_evaluator;\r\n            delete products_structs[_prod_id].applied_freelancers;\r\n            delete products_structs[_prod_id].selected_freelancers;\r\n            products_contracts[_prod_id].deleteAllFreelancersAndEvaluator();\r\n            \r\n            products_contracts[_prod_id].setState(uint(States.Teaming));\r\n            products_structs[_prod_id].currentState = States.Teaming;\r\n            }\r\n    }\r\n}\r\n",
  "sourcePath": "E:/PROJECTS/Blockchain-project/flask-python/static/contracts/contracts/marketplace.sol",
  "compiler": {
    "name": "solc",
    "version": "0.7.0+commit.9e61f92b.Emscripten.clang"
  },
  "schemaVersion": "3.3.3",
  "updatedAt": "2021-02-04T22:04:37.870Z",
  "networkType": "ethereum",
  "devdoc": {
    "kind": "dev",
    "methods": {},
    "version": 1
  },
  "userdoc": {
    "kind": "user",
    "methods": {},
    "version": 1
  }
}