{
  "contractName": "Marketplace",
  "abi": [
    {
      "inputs": [
        {
          "internalType": "contract Factory",
          "name": "_uf",
          "type": "address"
        },
        {
          "internalType": "contract ERC20token_manager",
          "name": "_tkn_mng",
          "type": "address"
        }
      ],
      "stateMutability": "nonpayable",
      "type": "constructor"
    },
    {
      "inputs": [
        {
          "internalType": "address",
          "name": "_addr",
          "type": "address"
        }
      ],
      "name": "getUserProfile",
      "outputs": [
        {
          "internalType": "string",
          "name": "name",
          "type": "string"
        },
        {
          "internalType": "string",
          "name": "role",
          "type": "string"
        },
        {
          "internalType": "uint256",
          "name": "reputation",
          "type": "uint256"
        },
        {
          "internalType": "uint256",
          "name": "balance",
          "type": "uint256"
        },
        {
          "internalType": "string",
          "name": "category",
          "type": "string"
        }
      ],
      "stateMutability": "view",
      "type": "function",
      "constant": true
    }
  ],
  "bytecode": "0x60806040523480156200001157600080fd5b506040516200189d3803806200189d833981810160405260408110156200003757600080fd5b81019080805190602001909291908051906020019092919050505080600360006101000a8154816001600160a01b0302191690836001600160a01b031602179055506000735b38da6a701c568545dcfcb03fcb875f56beddc49050600073ab8483f64d9c6d1ecf9b849ae677dd3315835cb290506000734b20993bc481177ec7e8f571cecae8a9e22c02db905060007378731d3ca6b7e34ac0f824c42a7cc18a495cabab9050600073617f2e2fd72fd9d5503197092ac168c91465e7f2905060007317f6ad8ef982297579c203069c1dbffe4348c37290506000735c6b0f7bf3e7ce046039bd8fabdfd3f9f5021678905060007303c6fced478cbbc9a4fab34ef9f40767739d1ff790506000731ae0ea34a72d944a8c7603ffb3ec30a6669e454c90506000734b0897b0513fdc7c541b6d9d7e929c4e5364d2db9050600073583031d1113ad414f02576bd6afabfb3021402259050600073dd870fa1b7c4700f2bd7f44238821c26f73921489050620002538e6001600160a01b0316639e3eb21d8e6040518263ffffffff1660e01b815260040180826001600160a01b0316815260200180602001828103825260078152602001806636b0b730b3b2b960c91b81525060200192505050602060405180830381600087803b1580156200021c57600080fd5b505af115801562000231573d6000803e3d6000fd5b505050506040513d60208110156200024857600080fd5b50516107d062000b3a565b620003308e6001600160a01b031663cefa61ca8d6040518263ffffffff1660e01b815260040180826001600160a01b0316815260200180602001806020018381038352600c8152602001806b0667265656c616e6365722d360a41b8152506020018381038252600e8152602001806d43727970746f63757272656e637960901b8152506020019350505050602060405180830381600087803b158015620002f957600080fd5b505af11580156200030e573d6000803e3d6000fd5b505050506040513d60208110156200032557600080fd5b50516109c462000b3a565b620004048e6001600160a01b031663cefa61ca8c6040518263ffffffff1660e01b815260040180826001600160a01b0316815260200180602001806020018381038352600c8152602001806b667265656c616e6365722d3160a01b815250602001838103825260058152602001806447616d657360d81b8152506020019350505050602060405180830381600087803b158015620003cd57600080fd5b505af1158015620003e2573d6000803e3d6000fd5b505050506040513d6020811015620003f957600080fd5b5051610bb862000b3a565b620004d88e6001600160a01b031663cefa61ca8b6040518263ffffffff1660e01b815260040180826001600160a01b0316815260200180602001806020018381038352600c8152602001806b333932b2b630b731b2b9169960a11b815250602001838103825260058152602001806447616d657360d81b8152506020019350505050602060405180830381600087803b158015620004a157600080fd5b505af1158015620004b6573d6000803e3d6000fd5b505050506040513d6020811015620004cd57600080fd5b5051611d4c62000b3a565b620005b58e6001600160a01b031663cefa61ca8a6040518263ffffffff1660e01b815260040180826001600160a01b0316815260200180602001806020018381038352600c8152602001806b667265656c616e6365722d3360a01b8152506020018381038252600e8152602001806d43727970746f63757272656e637960901b8152506020019350505050602060405180830381600087803b1580156200057e57600080fd5b505af115801562000593573d6000803e3d6000fd5b505050506040513d6020811015620005aa57600080fd5b505161113062000b3a565b620006888e6001600160a01b0316633c517706896040518263ffffffff1660e01b815260040180826001600160a01b0316815260200180602001806020018381038352600b8152602001806a06576616c7561746f722d360ac1b815250602001838103825260058152602001806447616d657360d81b8152506020019350505050602060405180830381600087803b1580156200065157600080fd5b505af115801562000666573d6000803e3d6000fd5b505050506040513d60208110156200067d57600080fd5b50516102bc62000b3a565b620007648e6001600160a01b0316633c517706886040518263ffffffff1660e01b815260040180826001600160a01b0316815260200180602001806020018381038352600b8152602001806a6576616c7561746f722d3160a81b8152506020018381038252600e8152602001806d43727970746f63757272656e637960901b8152506020019350505050602060405180830381600087803b1580156200072d57600080fd5b505af115801562000742573d6000803e3d6000fd5b505050506040513d60208110156200075957600080fd5b50516103b662000b3a565b620008378e6001600160a01b0316633c517706876040518263ffffffff1660e01b815260040180826001600160a01b0316815260200180602001806020018381038352600b8152602001806a32bb30b63ab0ba37b9169960a91b815250602001838103825260058152602001806447616d657360d81b8152506020019350505050602060405180830381600087803b1580156200080057600080fd5b505af115801562000815573d6000803e3d6000fd5b505050506040513d60208110156200082c57600080fd5b505161044c62000b3a565b620009138e6001600160a01b0316633c517706866040518263ffffffff1660e01b815260040180826001600160a01b0316815260200180602001806020018381038352600b8152602001806a6576616c7561746f722d3360a81b8152506020018381038252600e8152602001806d43727970746f63757272656e637960901b8152506020019350505050602060405180830381600087803b158015620008dc57600080fd5b505af1158015620008f1573d6000803e3d6000fd5b505050506040513d60208110156200090857600080fd5b50516101f462000b3a565b620009c48e6001600160a01b031663aa24d732856040518263ffffffff1660e01b815260040180826001600160a01b03168152602001806020018281038252600a81526020018069066696e616e6365722d360b41b81525060200192505050602060405180830381600087803b1580156200098d57600080fd5b505af1158015620009a2573d6000803e3d6000fd5b505050506040513d6020811015620009b957600080fd5b505161753062000b3a565b62000a758e6001600160a01b031663aa24d732846040518263ffffffff1660e01b815260040180826001600160a01b03168152602001806020018281038252600a8152602001806966696e616e6365722d3160b01b81525060200192505050602060405180830381600087803b15801562000a3e57600080fd5b505af115801562000a53573d6000803e3d6000fd5b505050506040513d602081101562000a6a57600080fd5b50516161a862000b3a565b62000b268e6001600160a01b031663aa24d732836040518263ffffffff1660e01b815260040180826001600160a01b03168152602001806020018281038252600a815260200180693334b730b731b2b9169960b11b81525060200192505050602060405180830381600087803b15801562000aef57600080fd5b505af115801562000b04573d6000803e3d6000fd5b505050506040513d602081101562000b1b57600080fd5b505161c35062000b3a565b5050505050505050505050505050620011eb565b6000826001600160a01b031663767800de6040518163ffffffff1660e01b815260040160206040518083038186803b15801562000b7657600080fd5b505afa15801562000b8b573d6000803e3d6000fd5b505050506040513d602081101562000ba257600080fd5b50516001600160a01b03808216600090815260208190526040902080546001600160a01b0319169186169190911790559050600162000be18262000cdf565b8154600180820184556000938452602093849020835160059093020180546001600160a01b0319166001600160a01b03909316929092178255828401519082015560408201516002820155606082015180519293919262000c49926003850192019062001117565b506080820151805162000c6791600484019160209091019062001117565b50506003546040805163a9059cbb60e01b81526001600160a01b03858116600483015260248201879052915191909216925063a9059cbb9160448082019260009290919082900301818387803b15801562000cc157600080fd5b505af115801562000cd6573d6000803e3d6000fd5b50505050505050565b62000ce96200119c565b62000cf36200119c565b6001600160a01b0380841660009081526020818152604091829020548251633b3c006f60e11b8152925193169263767800de926004808201939291829003018186803b15801562000d4357600080fd5b505afa15801562000d58573d6000803e3d6000fd5b505050506040513d602081101562000d6f57600080fd5b50516001600160a01b039081168252838116600090815260208181526040918290205482516310055c1d60e01b815292519316926310055c1d926004808201939291829003018186803b15801562000dc657600080fd5b505afa15801562000ddb573d6000803e3d6000fd5b505050506040513d602081101562000df257600080fd5b50516020828101919091526001600160a01b03808516600090815280835260409081902054815163ccc0795960e01b8152915192169263ccc0795992600480840193829003018186803b15801562000e4957600080fd5b505afa15801562000e5e573d6000803e3d6000fd5b505050506040513d602081101562000e7557600080fd5b50516040808301919091526001600160a01b03808516600090815260208190528281205483516306fdde0360e01b815293519216926306fdde039260048083019392829003018186803b15801562000ecc57600080fd5b505afa15801562000ee1573d6000803e3d6000fd5b505050506040513d6000823e601f3d908101601f19168201604052602081101562000f0b57600080fd5b810190808051604051939291908464010000000082111562000f2c57600080fd5b90830190602082018581111562000f4257600080fd5b825164010000000081118282018810171562000f5d57600080fd5b82525081516020918201929091019080838360005b8381101562000f8c57818101518382015260200162000f72565b50505050905090810190601f16801562000fba5780820380516001836020036101000a031916815260200191505b50604090815260608601949094525050506001600160a01b03808516600090815260208190528281205483516377a1855360e11b8152935192169263ef430aa69260048083019392829003018186803b1580156200101757600080fd5b505afa1580156200102c573d6000803e3d6000fd5b505050506040513d6000823e601f3d908101601f1916820160405260208110156200105657600080fd5b81019080805160405193929190846401000000008211156200107757600080fd5b9083019060208201858111156200108d57600080fd5b8251640100000000811182820188101715620010a857600080fd5b82525081516020918201929091019080838360005b83811015620010d7578181015183820152602001620010bd565b50505050905090810190601f168015620011055780820380516001836020036101000a031916815260200191505b50604052505050608082015292915050565b828054600181600116156101000203166002900490600052602060002090601f016020900481019282601f106200115a57805160ff19168380011785556200118a565b828001600101855582156200118a579182015b828111156200118a5782518255916020019190600101906200116d565b5062001198929150620011d4565b5090565b6040518060a0016040528060006001600160a01b03168152602001600081526020016000815260200160608152602001606081525090565b5b80821115620011985760008155600101620011d5565b6106a280620011fb6000396000f3fe608060405234801561001057600080fd5b506004361061002b5760003560e01c8063987ee15614610030575b600080fd5b6100566004803603602081101561004657600080fd5b50356001600160a01b03166101a8565b60405180806020018060200186815260200185815260200180602001848103845289818151815260200191508051906020019080838360005b838110156100a757818101518382015260200161008f565b50505050905090810190601f1680156100d45780820380516001836020036101000a031916815260200191505b5084810383528851815288516020918201918a019080838360005b838110156101075781810151838201526020016100ef565b50505050905090810190601f1680156101345780820380516001836020036101000a031916815260200191505b50848103825285518152855160209182019187019080838360005b8381101561016757818101518382015260200161014f565b50505050905090810190601f1680156101945780820380516001836020036101000a031916815260200191505b509850505050505050505060405180910390f35b6001600160a01b038082166000908152602081815260408083205481516310055c1d60e01b81529151606095869594859487948594879491909116926310055c1d9260048082019391829003018186803b15801561020557600080fd5b505afa158015610219573d6000803e3d6000fd5b505050506040513d602081101561022f57600080fd5b505190508061025f576040518060400160405280600781526020016626b0b730b3b2b960c91b81525091506102e8565b8060011415610292576040518060400160405280600a815260200169233932b2b630b731b2b960b11b81525091506102e8565b80600214156102c4576040518060400160405280600981526020016822bb30b63ab0ba37b960b91b81525091506102e8565b604051806040016040528060088152602001672334b730b731b2b960c11b81525091505b6001600160a01b038089166000908152602081905260408082205481516306fdde0360e01b815291519316926306fdde0392600480840193919291829003018186803b15801561033757600080fd5b505afa15801561034b573d6000803e3d6000fd5b505050506040513d6000823e601f3d908101601f19168201604052602081101561037457600080fd5b810190808051604051939291908464010000000082111561039457600080fd5b9083019060208201858111156103a957600080fd5b82516401000000008111828201881017156103c357600080fd5b82525081516020918201929091019080838360005b838110156103f05781810151838201526020016103d8565b50505050905090810190601f16801561041d5780820380516001836020036101000a031916815260200191505b5060408181526001600160a01b03808f1660009081526020818152908390205463ccc0795960e01b855292518a975092909116945063ccc079599350600480840193919291829003018186803b15801561047657600080fd5b505afa15801561048a573d6000803e3d6000fd5b505050506040513d60208110156104a057600080fd5b505160035460408051634dcb776760e11b81526001600160a01b038e8116600483015291519190921691639b96eece916024808301926020929190829003018186803b1580156104ef57600080fd5b505afa158015610503573d6000803e3d6000fd5b505050506040513d602081101561051957600080fd5b50516001600160a01b03808d166000908152602081905260408082205481516377a1855360e11b8152915193169263ef430aa692600480840193919291829003018186803b15801561056a57600080fd5b505afa15801561057e573d6000803e3d6000fd5b505050506040513d6000823e601f3d908101601f1916820160405260208110156105a757600080fd5b81019080805160405193929190846401000000008211156105c757600080fd5b9083019060208201858111156105dc57600080fd5b82516401000000008111828201881017156105f657600080fd5b82525081516020918201929091019080838360005b8381101561062357818101518382015260200161060b565b50505050905090810190601f1680156106505780820380516001836020036101000a031916815260200191505b506040525050509650965096509650965050509193959092945056fea2646970667358221220638774d0262e5dbca2ccd0fa4f65d173b167f502adcaf1438c3ec503f15f0ce064736f6c63430007000033",
  "immutableReferences": {},
  "source": "// SPDX-License-Identifier: MIT\r\npragma solidity >=0.6.0 <0.8.0;\r\n\r\nimport \"./GenericUser.sol\";\r\nimport \"./Factory.sol\";\r\nimport \"./ERC20token_manager.sol\";\r\n\r\ncontract Marketplace {\r\n\r\n    mapping(address => GenericUser) private users_contracts;\r\n    genericUser[] private users_structs;\r\n    product[] private products;\r\n    ERC20token_manager private tkn_mng;\r\n    \r\n    enum States{ defined, started, finished}\r\n\r\n    // Role: 0 - manager | 1 - freelancer | 2 - evaluator | 3 - financer\r\n    struct genericUser{\r\n        address addr;\r\n        uint role;\r\n        uint rep;\r\n        string name;\r\n        string category;\r\n    }\r\n\r\n    struct freelancerShare{\r\n        address adr;\r\n        uint share;\r\n    }\r\n\r\n    struct product{\r\n        uint product_id;\r\n        address manager_address;\r\n        string description;\r\n        uint dev;\r\n        uint rev;\r\n        string category;\r\n        address evaluator;\r\n        uint freelancersNr;\r\n        mapping (uint => freelancerShare) freelancingShares;\r\n        States currentState;\r\n    }\r\n\r\n\r\n    constructor (Factory _uf, ERC20token_manager _tkn_mng){\r\n        tkn_mng = _tkn_mng;\r\n        \r\n        // choose addresses from the remix deploy & run tab\r\n        address manager_addr = 0x5B38Da6a701c568545dCfcB03FcB875f56beddC4;\r\n        \r\n        address freelancer_0_addr = 0xAb8483F64d9C6d1EcF9b849Ae677dD3315835cb2;\r\n        address freelancer_1_addr = 0x4B20993Bc481177ec7E8f571ceCaE8A9e22C02db;\r\n        address freelancer_2_addr = 0x78731D3Ca6b7E34aC0F824c42a7cC18A495cabaB;\r\n        address freelancer_3_addr = 0x617F2E2fD72FD9D5503197092aC168c91465E7f2;\r\n        \r\n        address evaluator_0_addr = 0x17F6AD8Ef982297579C203069C1DbfFE4348c372;\r\n        address evaluator_1_addr = 0x5c6B0f7Bf3E7ce046039Bd8FABdfD3f9F5021678;\r\n        address evaluator_2_addr = 0x03C6FcED478cBbC9a4FAB34eF9f40767739D1Ff7;\r\n        address evaluator_3_addr = 0x1aE0EA34a72D944a8C7603FfB3eC30a6669E454C;\r\n        \r\n        address financer_0_addr = 0x4B0897b0513fdC7C541B6d9D7E929C4e5364D2dB;\r\n        address financer_1_addr = 0x583031D1113aD414F02576BD6afaBfb302140225;\r\n        address financer_2_addr = 0xdD870fA1b7C4700F2BD7f44238821C26f7392148;\r\n        \r\n        // create user contracts and store\r\n        storeAndAllocUser(_uf.new_manager(manager_addr, \"manager\"), 2000);\r\n        \r\n        storeAndAllocUser(_uf.new_freelancer(freelancer_0_addr, \"freelancer-0\", \"Cryptocurrency\"), 2500);\r\n        storeAndAllocUser(_uf.new_freelancer(freelancer_1_addr, \"freelancer-1\", \"Games\"), 3000);\r\n        storeAndAllocUser(_uf.new_freelancer(freelancer_2_addr, \"freelancer-2\", \"Games\"), 7500);\r\n        storeAndAllocUser(_uf.new_freelancer(freelancer_3_addr, \"freelancer-3\", \"Cryptocurrency\"), 4400);\r\n        \r\n        storeAndAllocUser(_uf.new_evaluator(evaluator_0_addr, \"evaluator-0\", \"Games\"), 700);\r\n        storeAndAllocUser(_uf.new_evaluator(evaluator_1_addr, \"evaluator-1\", \"Cryptocurrency\"), 950);\r\n        storeAndAllocUser(_uf.new_evaluator(evaluator_2_addr, \"evaluator-2\", \"Games\"), 1100);\r\n        storeAndAllocUser(_uf.new_evaluator(evaluator_3_addr, \"evaluator-3\", \"Cryptocurrency\"), 500);\r\n        \r\n        storeAndAllocUser(_uf.new_financer(financer_0_addr, \"financer-0\"), 30000);\r\n        storeAndAllocUser(_uf.new_financer(financer_1_addr, \"financer-1\"), 25000);\r\n        storeAndAllocUser(_uf.new_financer(financer_2_addr, \"financer-2\"), 50000);\r\n    }\r\n    \r\n    function createStruct(address _addr) private view returns (genericUser memory){\r\n        genericUser memory gu;\r\n        gu.addr = users_contracts[_addr].addr();\r\n        gu.role = users_contracts[_addr].role();\r\n        gu.rep = users_contracts[_addr].rep();\r\n        gu.name = users_contracts[_addr].name();\r\n        gu.category = users_contracts[_addr].category();\r\n        \r\n        return gu;\r\n    }\r\n    \r\n    function storeAndAllocUser(GenericUser _gu, uint _alloc_amount) private {\r\n        address _useraddr = _gu.addr();\r\n        \r\n        users_contracts[_useraddr] = _gu;\r\n        users_structs.push(createStruct(_useraddr));\r\n        tkn_mng.transfer(_useraddr, _alloc_amount);\r\n    }\r\n    \r\n    function getUserProfile(address _addr) public view returns (string memory name, string memory role, uint reputation, uint balance, string memory category) {\r\n        string memory str_role;\r\n        uint256 int_role = users_contracts[_addr].role();\r\n        \r\n        if (int_role == 0){\r\n            str_role = \"Manager\";\r\n        }else if (int_role == 1){\r\n            str_role = \"Freelancer\";\r\n        }else if (int_role == 2){\r\n            str_role = \"Evaluator\";\r\n        }else{\r\n            str_role = \"Financer\";\r\n        }\r\n        \r\n        return (users_contracts[_addr].name(), str_role, users_contracts[_addr].rep(), tkn_mng.getBalanceOf(_addr), users_contracts[_addr].category());\r\n    }\r\n}\r\n",
  "sourcePath": "E:/PROJECTS/Blockchain-project/flask-python/static/contracts/contracts/Marketplace.sol",
  "compiler": {
    "name": "solc",
    "version": "0.7.0+commit.9e61f92b.Emscripten.clang"
  },
  "schemaVersion": "3.3.3",
  "updatedAt": "2021-02-03T14:22:14.837Z",
  "networkType": "ethereum",
  "devdoc": {
    "kind": "dev",
    "methods": {},
    "version": 1
  },
  "userdoc": {
    "kind": "user",
    "methods": {},
    "version": 1
  }
}