{
  "contractName": "Product",
  "abi": [
    {
      "inputs": [
        {
          "internalType": "uint256",
          "name": "_prod_id",
          "type": "uint256"
        },
        {
          "internalType": "address",
          "name": "_mng_addr",
          "type": "address"
        },
        {
          "internalType": "string",
          "name": "_description",
          "type": "string"
        },
        {
          "internalType": "uint256",
          "name": "_dev",
          "type": "uint256"
        },
        {
          "internalType": "uint256",
          "name": "_rev",
          "type": "uint256"
        },
        {
          "internalType": "string",
          "name": "_category",
          "type": "string"
        }
      ],
      "stateMutability": "nonpayable",
      "type": "constructor"
    },
    {
      "inputs": [],
      "name": "alloc_share",
      "outputs": [
        {
          "internalType": "uint256",
          "name": "",
          "type": "uint256"
        }
      ],
      "stateMutability": "view",
      "type": "function"
    },
    {
      "inputs": [],
      "name": "category",
      "outputs": [
        {
          "internalType": "string",
          "name": "",
          "type": "string"
        }
      ],
      "stateMutability": "view",
      "type": "function"
    },
    {
      "inputs": [
        {
          "internalType": "address",
          "name": "",
          "type": "address"
        }
      ],
      "name": "chosen_freelancer_exists",
      "outputs": [
        {
          "internalType": "bool",
          "name": "",
          "type": "bool"
        }
      ],
      "stateMutability": "view",
      "type": "function"
    },
    {
      "inputs": [
        {
          "internalType": "uint256",
          "name": "",
          "type": "uint256"
        }
      ],
      "name": "chosen_freelancers",
      "outputs": [
        {
          "internalType": "address",
          "name": "",
          "type": "address"
        }
      ],
      "stateMutability": "view",
      "type": "function"
    },
    {
      "inputs": [],
      "name": "description",
      "outputs": [
        {
          "internalType": "string",
          "name": "",
          "type": "string"
        }
      ],
      "stateMutability": "view",
      "type": "function"
    },
    {
      "inputs": [],
      "name": "dev",
      "outputs": [
        {
          "internalType": "uint256",
          "name": "",
          "type": "uint256"
        }
      ],
      "stateMutability": "view",
      "type": "function"
    },
    {
      "inputs": [],
      "name": "evaluator",
      "outputs": [
        {
          "internalType": "address",
          "name": "",
          "type": "address"
        }
      ],
      "stateMutability": "view",
      "type": "function"
    },
    {
      "inputs": [
        {
          "internalType": "address",
          "name": "",
          "type": "address"
        }
      ],
      "name": "financer_exists",
      "outputs": [
        {
          "internalType": "bool",
          "name": "",
          "type": "bool"
        }
      ],
      "stateMutability": "view",
      "type": "function"
    },
    {
      "inputs": [
        {
          "internalType": "uint256",
          "name": "",
          "type": "uint256"
        }
      ],
      "name": "financers",
      "outputs": [
        {
          "internalType": "address",
          "name": "",
          "type": "address"
        }
      ],
      "stateMutability": "view",
      "type": "function"
    },
    {
      "inputs": [
        {
          "internalType": "address",
          "name": "",
          "type": "address"
        }
      ],
      "name": "freelancer_exists",
      "outputs": [
        {
          "internalType": "bool",
          "name": "",
          "type": "bool"
        }
      ],
      "stateMutability": "view",
      "type": "function"
    },
    {
      "inputs": [
        {
          "internalType": "uint256",
          "name": "",
          "type": "uint256"
        }
      ],
      "name": "freelancers",
      "outputs": [
        {
          "internalType": "address",
          "name": "",
          "type": "address"
        }
      ],
      "stateMutability": "view",
      "type": "function"
    },
    {
      "inputs": [],
      "name": "funded_sum",
      "outputs": [
        {
          "internalType": "uint256",
          "name": "",
          "type": "uint256"
        }
      ],
      "stateMutability": "view",
      "type": "function"
    },
    {
      "inputs": [],
      "name": "manager_address",
      "outputs": [
        {
          "internalType": "address",
          "name": "",
          "type": "address"
        }
      ],
      "stateMutability": "view",
      "type": "function"
    },
    {
      "inputs": [],
      "name": "product_id",
      "outputs": [
        {
          "internalType": "uint256",
          "name": "",
          "type": "uint256"
        }
      ],
      "stateMutability": "view",
      "type": "function"
    },
    {
      "inputs": [],
      "name": "rev",
      "outputs": [
        {
          "internalType": "uint256",
          "name": "",
          "type": "uint256"
        }
      ],
      "stateMutability": "view",
      "type": "function"
    },
    {
      "inputs": [
        {
          "internalType": "address",
          "name": "",
          "type": "address"
        }
      ],
      "name": "shares",
      "outputs": [
        {
          "internalType": "uint256",
          "name": "",
          "type": "uint256"
        }
      ],
      "stateMutability": "view",
      "type": "function"
    },
    {
      "inputs": [],
      "name": "getState",
      "outputs": [
        {
          "internalType": "uint256",
          "name": "",
          "type": "uint256"
        }
      ],
      "stateMutability": "view",
      "type": "function"
    },
    {
      "inputs": [
        {
          "internalType": "uint256",
          "name": "_st",
          "type": "uint256"
        }
      ],
      "name": "setState",
      "outputs": [],
      "stateMutability": "nonpayable",
      "type": "function"
    },
    {
      "inputs": [],
      "name": "getFinancersLength",
      "outputs": [
        {
          "internalType": "uint256",
          "name": "",
          "type": "uint256"
        }
      ],
      "stateMutability": "view",
      "type": "function"
    },
    {
      "inputs": [],
      "name": "getFreelancersLength",
      "outputs": [
        {
          "internalType": "uint256",
          "name": "",
          "type": "uint256"
        }
      ],
      "stateMutability": "view",
      "type": "function"
    },
    {
      "inputs": [],
      "name": "getChosenFreelancersLength",
      "outputs": [
        {
          "internalType": "uint256",
          "name": "",
          "type": "uint256"
        }
      ],
      "stateMutability": "view",
      "type": "function"
    },
    {
      "inputs": [
        {
          "internalType": "address",
          "name": "_ev",
          "type": "address"
        }
      ],
      "name": "storeEvaluator",
      "outputs": [],
      "stateMutability": "nonpayable",
      "type": "function"
    },
    {
      "inputs": [
        {
          "internalType": "address",
          "name": "_fr",
          "type": "address"
        }
      ],
      "name": "storeFreelancer",
      "outputs": [],
      "stateMutability": "nonpayable",
      "type": "function"
    },
    {
      "inputs": [
        {
          "internalType": "address",
          "name": "_fr",
          "type": "address"
        }
      ],
      "name": "teamFreelancer",
      "outputs": [],
      "stateMutability": "nonpayable",
      "type": "function"
    },
    {
      "inputs": [
        {
          "internalType": "uint256",
          "name": "_idx",
          "type": "uint256"
        }
      ],
      "name": "resetFreelancer",
      "outputs": [],
      "stateMutability": "nonpayable",
      "type": "function"
    },
    {
      "inputs": [],
      "name": "deleteAllFreelancersAndEvaluator",
      "outputs": [],
      "stateMutability": "nonpayable",
      "type": "function"
    },
    {
      "inputs": [
        {
          "internalType": "uint256",
          "name": "_sh",
          "type": "uint256"
        }
      ],
      "name": "addAllocShare",
      "outputs": [],
      "stateMutability": "nonpayable",
      "type": "function"
    },
    {
      "inputs": [
        {
          "internalType": "address",
          "name": "_financer",
          "type": "address"
        },
        {
          "internalType": "uint256",
          "name": "_amount",
          "type": "uint256"
        }
      ],
      "name": "storeShare",
      "outputs": [],
      "stateMutability": "nonpayable",
      "type": "function"
    },
    {
      "inputs": [
        {
          "internalType": "address",
          "name": "_financer",
          "type": "address"
        },
        {
          "internalType": "uint256",
          "name": "_amount",
          "type": "uint256"
        }
      ],
      "name": "withdrawShare",
      "outputs": [],
      "stateMutability": "nonpayable",
      "type": "function"
    },
    {
      "inputs": [],
      "name": "giveBackAllFunds",
      "outputs": [],
      "stateMutability": "nonpayable",
      "type": "function"
    }
  ],
  "bytecode": "0x60806040523480156200001157600080fd5b506040516200101538038062001015833981810160405260c08110156200003757600080fd5b815160208301516040808501805191519395929483019291846401000000008211156200006357600080fd5b9083019060208201858111156200007957600080fd5b82516401000000008111828201881017156200009457600080fd5b82525081516020918201929091019080838360005b83811015620000c3578181015183820152602001620000a9565b50505050905090810190601f168015620000f15780820380516001836020036101000a031916815260200191505b506040818152602083015190830151606090930180519195939492939291846401000000008211156200012357600080fd5b9083019060208201858111156200013957600080fd5b82516401000000008111828201881017156200015457600080fd5b82525081516020918201929091019080838360005b838110156200018357818101518382015260200162000169565b50505050905090810190601f168015620001b15780820380516001836020036101000a031916815260200191505b506040525050506000869055600180546001600160a01b0319166001600160a01b0387161790558351620001ed9060029060208701906200022a565b506003839055600482905580516200020d9060059060208401906200022a565b50506006805460ff191690555050600060075550620002c6915050565b828054600181600116156101000203166002900490600052602060002090601f016020900481019282601f106200026d57805160ff19168380011785556200029d565b828001600101855582156200029d579182015b828111156200029d57825182559160200191906001019062000280565b50620002ab929150620002af565b5090565b5b80821115620002ab5760008155600101620002b0565b610d3f80620002d66000396000f3fe608060405234801561001057600080fd5b50600436106101da5760003560e01c80637e6f829511610104578063aeee48c0116100a2578063da775b2e11610071578063da775b2e146104e2578063dbcd84a414610508578063eab0a47914610510578063ef430aa614610518576101da565b8063aeee48c014610486578063c5e25ad31461048e578063ce7c2ac214610496578063d6009ded146104bc576101da565b806391cca3db116100de57806391cca3db146104335780639cb93dd11461043b578063a858daa914610443578063a9e966b714610469576101da565b80637e6f8295146103f15780638a8d075a146103f95780638c7a96d814610416576101da565b806343fb47bc1161017c578063712132201161014b578063712132201461031a5780637284e41614610322578063772e30171461039f5780637aa13bf9146103cb576101da565b806343fb47bc146102b2578063515fee71146102ba57806355b0f6fc146102d7578063617ade5e146102fd576101da565b80631800ed8e116101b85780631800ed8e146102805780631865c57d1461028857806333ae9cde146102a25780633d78ff2f146102aa576101da565b8063029b7e14146101df57806303c17172146102195780630b9364d814610247575b600080fd5b610205600480360360208110156101f557600080fd5b50356001600160a01b0316610520565b604080519115158252519081900360200190f35b6102456004803603604081101561022f57600080fd5b506001600160a01b038135169060200135610535565b005b6102646004803603602081101561025d57600080fd5b5035610612565b604080516001600160a01b039092168252519081900360200190f35b610264610639565b610290610648565b60408051918252519081900360200190f35b610290610663565b610290610669565b61024561066f565b610245600480360360208110156102d057600080fd5b50356107cd565b610205600480360360208110156102ed57600080fd5b50356001600160a01b031661080d565b6102646004803603602081101561031357600080fd5b5035610822565b61029061082f565b61032a610835565b6040805160208082528351818301528351919283929083019185019080838360005b8381101561036457818101518382015260200161034c565b50505050905090810190601f1680156103915780820380516001836020036101000a031916815260200191505b509250505060405180910390f35b610245600480360360408110156103b557600080fd5b506001600160a01b0381351690602001356108c0565b610245600480360360208110156103e157600080fd5b50356001600160a01b03166109cb565b6102906109ed565b6102456004803603602081101561040f57600080fd5b50356109f3565b6102646004803603602081101561042c57600080fd5b50356109fe565b610290610a0b565b610264610a11565b6102456004803603602081101561045957600080fd5b50356001600160a01b0316610a20565b6102456004803603602081101561047f57600080fd5b5035610af5565b610290610b1e565b610290610b24565b610290600480360360208110156104ac57600080fd5b50356001600160a01b0316610b2a565b610245600480360360208110156104d257600080fd5b50356001600160a01b0316610b3c565b610205600480360360208110156104f857600080fd5b50356001600160a01b0316610c11565b610245610c26565b610290610c50565b61032a610c56565b600f6020526000908152604090205460ff1681565b60006006805460ff169081111561054857fe5b1461059a576040805162461bcd60e51b815260206004820152601f60248201527f596f752063616e6e6f742074616b65206261636b2066756e6473206e6f772100604482015290519081900360640190fd5b6001600160a01b038216600090815260086020526040902080548290038155600780548390039055541580156105e857506001600160a01b0382166000908152600a602052604090205460ff165b1561060e576001600160a01b0382166000908152600a60205260409020805460ff191690555b5050565b600c818154811061061f57fe5b6000918252602090912001546001600160a01b0316905081565b6001546001600160a01b031681565b6006805460009160ff9091169081111561065e57fe5b905090565b60075481565b60095490565b60006006805460ff169081111561068257fe5b146106d4576040805162461bcd60e51b815260206004820152601f60248201527f596f752063616e6e6f742067697665206261636b2066756e6473206e6f772100604482015290519081900360640190fd5b6006805460ff1916600517905560005b6009548110156107b757600a6000600983815481106106ff57fe5b60009182526020808320909101546001600160a01b0316835282019290925260400190205460ff16156107af576000600860006009848154811061073f57fe5b60009182526020808320909101546001600160a01b0316835282019290925260400181209190915560098054600a9183918590811061077a57fe5b6000918252602080832091909101546001600160a01b031683528201929092526040019020805460ff19169115159190911790555b6001016106e4565b50600060078190556107cb90600990610ccf565b565b6000600c82815481106107dc57fe5b9060005260206000200160006101000a8154816001600160a01b0302191690836001600160a01b0316021790555050565b600e6020526000908152604090205460ff1681565b6009818154811061061f57fe5b600d5490565b6002805460408051602060018416156101000260001901909316849004601f810184900484028201840190925281815292918301828280156108b85780601f1061088d576101008083540402835291602001916108b8565b820191906000526020600020905b81548152906001019060200180831161089b57829003601f168201915b505050505081565b60006006805460ff16908111156108d357fe5b14610925576040805162461bcd60e51b815260206004820152601b60248201527f596f752063616e6e6f742073686172652066756e6473206e6f77210000000000604482015290519081900360640190fd5b6001600160a01b03821660009081526008602090815260408083208054850190556007805485019055600a90915290205460ff166109c3576001600160a01b0382166000818152600a60205260408120805460ff191660019081179091556009805491820181559091527f6e1540171b6c0c960b71a7020d9f60077f6af931a8bbf590da0223dacf75c7af0180546001600160a01b03191690911790555b61060e610cb1565b600b80546001600160a01b0319166001600160a01b0392909216919091179055565b60105481565b601080549091019055565b600d818154811061061f57fe5b60035481565b600b546001600160a01b031681565b6001600160a01b0381166000908152600e602052604090205460ff1615610a8e576040805162461bcd60e51b815260206004820152601d60248201527f467265656c616e63657220697320616c72656164792073746f72656421000000604482015290519081900360640190fd5b600c805460018181019092557fdf6966c971051c3d54ec59162606531493a51404a002842f56009d7e5cf4a8c70180546001600160a01b039093166001600160a01b0319909316831790556000918252600e6020526040909120805460ff19169091179055565b806006811115610b0157fe5b6006805460ff191660018383811115610b1657fe5b021790555050565b60045481565b600c5490565b60086020526000908152604090205481565b6001600160a01b0381166000908152600f602052604090205460ff1615610baa576040805162461bcd60e51b815260206004820181905260248201527f467265656c616e63657220697320616c7265616479207465616d656420757021604482015290519081900360640190fd5b600d805460018181019092557fd7b6990105719101dabeb77144f2a3385c8033acd3af97e9423a695e81ad1eb50180546001600160a01b039093166001600160a01b0319909316831790556000918252600f6020526040909120805460ff19169091179055565b600a6020526000908152604090205460ff1681565b610c32600c6000610ccf565b610c3e600d6000610ccf565b600b80546001600160a01b0319169055565b60005481565b6005805460408051602060026001851615610100026000190190941693909304601f810184900484028201840190925281815292918301828280156108b85780601f1061088d576101008083540402835291602001916108b8565b60045460035401600754106107cb576006805460ff19166001179055565b5080546000825590600052602060002090810190610ced9190610cf0565b50565b5b80821115610d055760008155600101610cf1565b509056fea264697066735822122036649ccf6446a8f52e9cc97493246c512e88b383532c74cdb2d517e7cd14655764736f6c63430007000033",
  "immutableReferences": {},
  "source": "// SPDX-License-Identifier: MIT\r\npragma solidity >=0.6.0 <0.8.0;\r\n\r\ncontract Product {\r\n    uint public product_id;\r\n    address public manager_address;\r\n    string public description;\r\n    uint public dev;\r\n    uint public rev;\r\n    string public category;\r\n    States currentState;\r\n    \r\n    uint public funded_sum;\r\n    mapping (address => uint256) public shares;\r\n    address[] public financers;\r\n    mapping (address => bool) public financer_exists;\r\n    \r\n    address public evaluator;\r\n    address[] public freelancers;\r\n    address[] public chosen_freelancers;\r\n    mapping (address => bool) public freelancer_exists;\r\n    mapping (address => bool) public chosen_freelancer_exists;\r\n    uint public alloc_share;\r\n    \r\n    enum States{ Funding, Teaming, Started, Finished, Published, Retired, Evaluation }\r\n    \r\n    constructor (uint _prod_id, address _mng_addr, string memory _description, uint _dev, uint _rev, string memory _category) {\r\n        product_id = _prod_id;\r\n        manager_address = _mng_addr;\r\n        description = _description;\r\n        dev = _dev;\r\n        rev = _rev;\r\n        category = _category;\r\n        currentState = States.Funding;\r\n        funded_sum = 0;\r\n    }\r\n    \r\n    function getState() public view returns (uint){\r\n        return uint(currentState);\r\n    }\r\n    \r\n    function setState(uint _st) public {\r\n        currentState = States(_st);\r\n    }\r\n    \r\n    function getFinancersLength() public view returns (uint) {\r\n        return financers.length;\r\n    }\r\n    \r\n    function getFreelancersLength() public view returns (uint) {\r\n        return freelancers.length;\r\n    }\r\n    \r\n    function getChosenFreelancersLength() public view returns (uint) {\r\n        return chosen_freelancers.length;\r\n    }\r\n    \r\n    function storeEvaluator(address _ev) public {\r\n        evaluator = _ev;\r\n    }\r\n    \r\n    function storeFreelancer(address _fr) public {\r\n        require(freelancer_exists[_fr] == false, \"Freelancer is already stored!\");\r\n        freelancers.push(_fr);\r\n        freelancer_exists[_fr] = true;\r\n    }\r\n    \r\n    function teamFreelancer(address _fr) public {\r\n        require(chosen_freelancer_exists[_fr] == false, \"Freelancer is already teamed up!\");\r\n        chosen_freelancers.push(_fr);\r\n        chosen_freelancer_exists[_fr] = true;\r\n    }\r\n    \r\n    function resetFreelancer(uint _idx) public {\r\n        freelancers[_idx] = address(0);\r\n    }\r\n    \r\n    function deleteAllFreelancersAndEvaluator() public {\r\n        delete freelancers;\r\n        delete chosen_freelancers;\r\n        delete evaluator;\r\n    }\r\n    \r\n    function addAllocShare(uint _sh) public {\r\n        alloc_share += _sh;\r\n    }\r\n    \r\n    function check_sum() private {\r\n        if (funded_sum >= (dev + rev)) {\r\n            currentState = States.Teaming;\r\n        }\r\n    }\r\n    \r\n    function storeShare(address _financer, uint _amount) public {\r\n        require(currentState == States.Funding, \"You cannot share funds now!\");\r\n        \r\n        shares[_financer] += _amount;\r\n        funded_sum += _amount;\r\n        if (!financer_exists[_financer]){\r\n            financer_exists[_financer] = true;\r\n            financers.push(_financer);\r\n        }\r\n        check_sum();\r\n    }\r\n    \r\n    function withdrawShare(address _financer, uint _amount) public {\r\n        require(currentState == States.Funding, \"You cannot take back funds now!\");\r\n\r\n        shares[_financer] -= _amount;\r\n        funded_sum -= _amount;\r\n        \r\n        if (shares[_financer] == 0 && financer_exists[_financer]){\r\n            financer_exists[_financer] = false;\r\n        }\r\n    }\r\n    \r\n    function giveBackAllFunds() public {\r\n        require(currentState == States.Funding, \"You cannot give back funds now!\");\r\n        currentState = States.Retired;\r\n        \r\n        for(uint it = 0; it < financers.length; it++) {\r\n            if (financer_exists[financers[it]]){\r\n                shares[financers[it]] = 0;\r\n                financer_exists[financers[it]] = false;\r\n            }\r\n        }\r\n        funded_sum = 0;\r\n        delete financers;\r\n    }\r\n}",
  "sourcePath": "E:\\PROJECTS\\Blockchain-project\\flask-python\\static\\contracts\\contracts\\Product.sol",
  "compiler": {
    "name": "solc",
    "version": "0.7.0+commit.9e61f92b.Emscripten.clang"
  },
  "schemaVersion": "3.3.3",
  "updatedAt": "2021-02-04T22:04:31.525Z",
  "devdoc": {
    "kind": "dev",
    "methods": {},
    "version": 1
  },
  "userdoc": {
    "kind": "user",
    "methods": {},
    "version": 1
  }
}