{
  "contractName": "Product",
  "abi": [
    {
      "inputs": [
        {
          "internalType": "uint256",
          "name": "_prod_id",
          "type": "uint256"
        },
        {
          "internalType": "address",
          "name": "_mng_addr",
          "type": "address"
        },
        {
          "internalType": "string",
          "name": "_description",
          "type": "string"
        },
        {
          "internalType": "uint256",
          "name": "_dev",
          "type": "uint256"
        },
        {
          "internalType": "uint256",
          "name": "_rev",
          "type": "uint256"
        },
        {
          "internalType": "string",
          "name": "_category",
          "type": "string"
        }
      ],
      "stateMutability": "nonpayable",
      "type": "constructor"
    },
    {
      "inputs": [],
      "name": "category",
      "outputs": [
        {
          "internalType": "string",
          "name": "",
          "type": "string"
        }
      ],
      "stateMutability": "view",
      "type": "function"
    },
    {
      "inputs": [],
      "name": "description",
      "outputs": [
        {
          "internalType": "string",
          "name": "",
          "type": "string"
        }
      ],
      "stateMutability": "view",
      "type": "function"
    },
    {
      "inputs": [],
      "name": "dev",
      "outputs": [
        {
          "internalType": "uint256",
          "name": "",
          "type": "uint256"
        }
      ],
      "stateMutability": "view",
      "type": "function"
    },
    {
      "inputs": [],
      "name": "manager_address",
      "outputs": [
        {
          "internalType": "address",
          "name": "",
          "type": "address"
        }
      ],
      "stateMutability": "view",
      "type": "function"
    },
    {
      "inputs": [],
      "name": "product_id",
      "outputs": [
        {
          "internalType": "uint256",
          "name": "",
          "type": "uint256"
        }
      ],
      "stateMutability": "view",
      "type": "function"
    },
    {
      "inputs": [],
      "name": "rev",
      "outputs": [
        {
          "internalType": "uint256",
          "name": "",
          "type": "uint256"
        }
      ],
      "stateMutability": "view",
      "type": "function"
    },
    {
      "inputs": [],
      "name": "getState",
      "outputs": [
        {
          "internalType": "uint256",
          "name": "",
          "type": "uint256"
        }
      ],
      "stateMutability": "view",
      "type": "function"
    }
  ],
  "bytecode": "0x608060405234801561001057600080fd5b50604051610565380380610565833981810160405260c081101561003357600080fd5b8151602083015160408085018051915193959294830192918464010000000082111561005e57600080fd5b90830190602082018581111561007357600080fd5b825164010000000081118282018810171561008d57600080fd5b82525081516020918201929091019080838360005b838110156100ba5781810151838201526020016100a2565b50505050905090810190601f1680156100e75780820380516001836020036101000a031916815260200191505b5060408181526020830151908301516060909301805191959394929392918464010000000082111561011857600080fd5b90830190602082018581111561012d57600080fd5b825164010000000081118282018810171561014757600080fd5b82525081516020918201929091019080838360005b8381101561017457818101518382015260200161015c565b50505050905090810190601f1680156101a15780820380516001836020036101000a031916815260200191505b506040525050506000869055600180546001600160a01b0319166001600160a01b03871617905583516101db906002906020870190610210565b506003839055600482905580516101f9906005906020840190610210565b50506006805460ff19169055506102a39350505050565b828054600181600116156101000203166002900490600052602060002090601f016020900481019282601f1061025157805160ff191683800117855561027e565b8280016001018555821561027e579182015b8281111561027e578251825591602001919060010190610263565b5061028a92915061028e565b5090565b5b8082111561028a576000815560010161028f565b6102b3806102b26000396000f3fe608060405234801561001057600080fd5b506004361061007d5760003560e01c806391cca3db1161005b57806391cca3db1461013d578063aeee48c014610145578063eab0a4791461014d578063ef430aa6146101555761007d565b80631800ed8e146100825780631865c57d146100a65780637284e416146100c0575b600080fd5b61008a61015d565b604080516001600160a01b039092168252519081900360200190f35b6100ae61016c565b60408051918252519081900360200190f35b6100c8610185565b6040805160208082528351818301528351919283929083019185019080838360005b838110156101025781810151838201526020016100ea565b50505050905090810190601f16801561012f5780820380516001836020036101000a031916815260200191505b509250505060405180910390f35b6100ae610210565b6100ae610216565b6100ae61021c565b6100c8610222565b6001546001600160a01b031681565b60065460009060ff16600281111561018057fe5b905090565b6002805460408051602060018416156101000260001901909316849004601f810184900484028201840190925281815292918301828280156102085780601f106101dd57610100808354040283529160200191610208565b820191906000526020600020905b8154815290600101906020018083116101eb57829003601f168201915b505050505081565b60035481565b60045481565b60005481565b6005805460408051602060026001851615610100026000190190941693909304601f810184900484028201840190925281815292918301828280156102085780601f106101dd5761010080835404028352916020019161020856fea2646970667358221220cc7c6804b3c3c11035adaf61902d8813ad489c0275f34a7e15d447cf613006c564736f6c63430007000033",
  "immutableReferences": {},
  "source": "// SPDX-License-Identifier: MIT\r\npragma solidity >=0.6.0 <0.8.0;\r\n\r\ncontract Product {\r\n    uint public product_id;\r\n    address public manager_address;\r\n    string public description;\r\n    uint public dev;\r\n    uint public rev;\r\n    string public category;\r\n    States currentState;\r\n    \r\n    enum States{ Defined, Started, Finished}\r\n    \r\n    constructor (uint _prod_id, address _mng_addr, string memory _description, uint _dev, uint _rev, string memory _category) {\r\n        product_id = _prod_id;\r\n        manager_address = _mng_addr;\r\n        description = _description;\r\n        dev = _dev;\r\n        rev = _rev;\r\n        category = _category;\r\n        currentState = States.Defined;\r\n    }\r\n    \r\n    function getState() public view returns (uint){\r\n        return uint(currentState);\r\n    }\r\n}",
  "sourcePath": "E:\\PROJECTS\\Blockchain-project\\flask-python\\static\\contracts\\contracts\\Product.sol",
  "compiler": {
    "name": "solc",
    "version": "0.7.0+commit.9e61f92b.Emscripten.clang"
  },
  "schemaVersion": "3.3.3",
  "updatedAt": "2021-02-03T21:55:52.420Z",
  "devdoc": {
    "kind": "dev",
    "methods": {},
    "version": 1
  },
  "userdoc": {
    "kind": "user",
    "methods": {},
    "version": 1
  }
}